{
	".deps/npm/@openzeppelin/contracts/token/ERC20/testLoto.sol": {
		"Loteria": {
			"abi": [
				{
					"inputs": [
						{
							"internalType": "address",
							"name": "_token",
							"type": "address"
						},
						{
							"internalType": "uint256",
							"name": "_preco",
							"type": "uint256"
						}
					],
					"stateMutability": "nonpayable",
					"type": "constructor"
				},
				{
					"anonymous": false,
					"inputs": [
						{
							"indexed": true,
							"internalType": "address",
							"name": "comprador",
							"type": "address"
						},
						{
							"indexed": false,
							"internalType": "uint256[]",
							"name": "numeros",
							"type": "uint256[]"
						}
					],
					"name": "Compra",
					"type": "event"
				},
				{
					"anonymous": false,
					"inputs": [
						{
							"indexed": true,
							"internalType": "address",
							"name": "retirante",
							"type": "address"
						},
						{
							"indexed": false,
							"internalType": "uint256",
							"name": "valor",
							"type": "uint256"
						}
					],
					"name": "Retirada",
					"type": "event"
				},
				{
					"anonymous": false,
					"inputs": [
						{
							"indexed": true,
							"internalType": "address",
							"name": "vencedor",
							"type": "address"
						},
						{
							"indexed": false,
							"internalType": "uint256",
							"name": "premio",
							"type": "uint256"
						},
						{
							"indexed": false,
							"internalType": "uint256",
							"name": "sorteado",
							"type": "uint256"
						}
					],
					"name": "Sorteio",
					"type": "event"
				},
				{
					"inputs": [],
					"name": "aberta",
					"outputs": [
						{
							"internalType": "bool",
							"name": "",
							"type": "bool"
						}
					],
					"stateMutability": "view",
					"type": "function"
				},
				{
					"inputs": [
						{
							"internalType": "uint256",
							"name": "",
							"type": "uint256"
						},
						{
							"internalType": "uint256",
							"name": "",
							"type": "uint256"
						}
					],
					"name": "apostadores",
					"outputs": [
						{
							"internalType": "address",
							"name": "",
							"type": "address"
						}
					],
					"stateMutability": "view",
					"type": "function"
				},
				{
					"inputs": [
						{
							"internalType": "uint256[]",
							"name": "_numeros",
							"type": "uint256[]"
						}
					],
					"name": "comprar",
					"outputs": [],
					"stateMutability": "nonpayable",
					"type": "function"
				},
				{
					"inputs": [
						{
							"internalType": "address",
							"name": "",
							"type": "address"
						},
						{
							"internalType": "uint256",
							"name": "",
							"type": "uint256"
						}
					],
					"name": "numeros",
					"outputs": [
						{
							"internalType": "uint256",
							"name": "",
							"type": "uint256"
						}
					],
					"stateMutability": "view",
					"type": "function"
				},
				{
					"inputs": [],
					"name": "owner",
					"outputs": [
						{
							"internalType": "address",
							"name": "",
							"type": "address"
						}
					],
					"stateMutability": "view",
					"type": "function"
				},
				{
					"inputs": [],
					"name": "preco",
					"outputs": [
						{
							"internalType": "uint256",
							"name": "",
							"type": "uint256"
						}
					],
					"stateMutability": "view",
					"type": "function"
				},
				{
					"inputs": [],
					"name": "premio",
					"outputs": [
						{
							"internalType": "uint256",
							"name": "",
							"type": "uint256"
						}
					],
					"stateMutability": "view",
					"type": "function"
				},
				{
					"inputs": [],
					"name": "reabrir",
					"outputs": [],
					"stateMutability": "nonpayable",
					"type": "function"
				},
				{
					"inputs": [],
					"name": "sorteado",
					"outputs": [
						{
							"internalType": "uint256",
							"name": "",
							"type": "uint256"
						}
					],
					"stateMutability": "view",
					"type": "function"
				},
				{
					"inputs": [],
					"name": "sortear",
					"outputs": [],
					"stateMutability": "nonpayable",
					"type": "function"
				},
				{
					"inputs": [],
					"name": "token",
					"outputs": [
						{
							"internalType": "contract IERC20",
							"name": "",
							"type": "address"
						}
					],
					"stateMutability": "view",
					"type": "function"
				},
				{
					"inputs": [],
					"name": "total",
					"outputs": [
						{
							"internalType": "uint256",
							"name": "",
							"type": "uint256"
						}
					],
					"stateMutability": "view",
					"type": "function"
				}
			],
			"devdoc": {
				"kind": "dev",
				"methods": {},
				"version": 1
			},
			"evm": {
				"assembly": "    /* \".deps/npm/@openzeppelin/contracts/token/ERC20/testLoto.sol\":165:5821  contract Loteria {... */\n  mstore(0x40, 0x80)\n    /* \".deps/npm/@openzeppelin/contracts/token/ERC20/testLoto.sol\":1778:2182  constructor(address _token, uint256 _preco) {... */\n  callvalue\n  dup1\n  iszero\n  tag_1\n  jumpi\n  0x00\n  dup1\n  revert\ntag_1:\n  pop\n  mload(0x40)\n  sub(codesize, bytecodeSize)\n  dup1\n  bytecodeSize\n  dup4\n  codecopy\n  dup2\n  dup2\n  add\n  0x40\n  mstore\n  dup2\n  add\n  swap1\n  tag_2\n  swap2\n  swap1\n  tag_3\n  jump\t// in\ntag_2:\n    /* \".deps/npm/@openzeppelin/contracts/token/ERC20/testLoto.sol\":1841:1851  msg.sender */\n  caller\n    /* \".deps/npm/@openzeppelin/contracts/token/ERC20/testLoto.sol\":1833:1838  owner */\n  0x00\n  dup1\n    /* \".deps/npm/@openzeppelin/contracts/token/ERC20/testLoto.sol\":1833:1851  owner = msg.sender */\n  0x0100\n  exp\n  dup2\n  sload\n  dup2\n  0xffffffffffffffffffffffffffffffffffffffff\n  mul\n  not\n  and\n  swap1\n  dup4\n  0xffffffffffffffffffffffffffffffffffffffff\n  and\n  mul\n  or\n  swap1\n  sstore\n  pop\n    /* \".deps/npm/@openzeppelin/contracts/token/ERC20/testLoto.sol\":1933:1939  _token */\n  dup2\n    /* \".deps/npm/@openzeppelin/contracts/token/ERC20/testLoto.sol\":1918:1923  token */\n  0x02\n  0x00\n    /* \".deps/npm/@openzeppelin/contracts/token/ERC20/testLoto.sol\":1918:1940  token = IERC20(_token) */\n  0x0100\n  exp\n  dup2\n  sload\n  dup2\n  0xffffffffffffffffffffffffffffffffffffffff\n  mul\n  not\n  and\n  swap1\n  dup4\n  0xffffffffffffffffffffffffffffffffffffffff\n  and\n  mul\n  or\n  swap1\n  sstore\n  pop\n    /* \".deps/npm/@openzeppelin/contracts/token/ERC20/testLoto.sol\":2030:2036  _preco */\n  dup1\n    /* \".deps/npm/@openzeppelin/contracts/token/ERC20/testLoto.sol\":2022:2027  preco */\n  0x03\n    /* \".deps/npm/@openzeppelin/contracts/token/ERC20/testLoto.sol\":2022:2036  preco = _preco */\n  dup2\n  swap1\n  sstore\n  pop\n    /* \".deps/npm/@openzeppelin/contracts/token/ERC20/testLoto.sol\":2128:2132  true */\n  0x01\n    /* \".deps/npm/@openzeppelin/contracts/token/ERC20/testLoto.sol\":2119:2125  aberta */\n  0x06\n  0x00\n    /* \".deps/npm/@openzeppelin/contracts/token/ERC20/testLoto.sol\":2119:2132  aberta = true */\n  0x0100\n  exp\n  dup2\n  sload\n  dup2\n  0xff\n  mul\n  not\n  and\n  swap1\n  dup4\n  iszero\n  iszero\n  mul\n  or\n  swap1\n  sstore\n  pop\n    /* \".deps/npm/@openzeppelin/contracts/token/ERC20/testLoto.sol\":1778:2182  constructor(address _token, uint256 _preco) {... */\n  pop\n  pop\n    /* \".deps/npm/@openzeppelin/contracts/token/ERC20/testLoto.sol\":165:5821  contract Loteria {... */\n  jump(tag_6)\n    /* \"#utility.yul\":88:205   */\ntag_8:\n    /* \"#utility.yul\":197:198   */\n  0x00\n    /* \"#utility.yul\":194:195   */\n  dup1\n    /* \"#utility.yul\":187:199   */\n  revert\n    /* \"#utility.yul\":334:460   */\ntag_10:\n    /* \"#utility.yul\":371:378   */\n  0x00\n    /* \"#utility.yul\":411:453   */\n  0xffffffffffffffffffffffffffffffffffffffff\n    /* \"#utility.yul\":404:409   */\n  dup3\n    /* \"#utility.yul\":400:454   */\n  and\n    /* \"#utility.yul\":389:454   */\n  swap1\n  pop\n    /* \"#utility.yul\":334:460   */\n  swap2\n  swap1\n  pop\n  jump\t// out\n    /* \"#utility.yul\":466:562   */\ntag_11:\n    /* \"#utility.yul\":503:510   */\n  0x00\n    /* \"#utility.yul\":532:556   */\n  tag_23\n    /* \"#utility.yul\":550:555   */\n  dup3\n    /* \"#utility.yul\":532:556   */\n  tag_10\n  jump\t// in\ntag_23:\n    /* \"#utility.yul\":521:556   */\n  swap1\n  pop\n    /* \"#utility.yul\":466:562   */\n  swap2\n  swap1\n  pop\n  jump\t// out\n    /* \"#utility.yul\":568:690   */\ntag_12:\n    /* \"#utility.yul\":641:665   */\n  tag_25\n    /* \"#utility.yul\":659:664   */\n  dup2\n    /* \"#utility.yul\":641:665   */\n  tag_11\n  jump\t// in\ntag_25:\n    /* \"#utility.yul\":634:639   */\n  dup2\n    /* \"#utility.yul\":631:666   */\n  eq\n    /* \"#utility.yul\":621:684   */\n  tag_26\n  jumpi\n    /* \"#utility.yul\":680:681   */\n  0x00\n    /* \"#utility.yul\":677:678   */\n  dup1\n    /* \"#utility.yul\":670:682   */\n  revert\n    /* \"#utility.yul\":621:684   */\ntag_26:\n    /* \"#utility.yul\":568:690   */\n  pop\n  jump\t// out\n    /* \"#utility.yul\":696:839   */\ntag_13:\n    /* \"#utility.yul\":753:758   */\n  0x00\n    /* \"#utility.yul\":784:790   */\n  dup2\n    /* \"#utility.yul\":778:791   */\n  mload\n    /* \"#utility.yul\":769:791   */\n  swap1\n  pop\n    /* \"#utility.yul\":800:833   */\n  tag_28\n    /* \"#utility.yul\":827:832   */\n  dup2\n    /* \"#utility.yul\":800:833   */\n  tag_12\n  jump\t// in\ntag_28:\n    /* \"#utility.yul\":696:839   */\n  swap3\n  swap2\n  pop\n  pop\n  jump\t// out\n    /* \"#utility.yul\":845:922   */\ntag_14:\n    /* \"#utility.yul\":882:889   */\n  0x00\n    /* \"#utility.yul\":911:916   */\n  dup2\n    /* \"#utility.yul\":900:916   */\n  swap1\n  pop\n    /* \"#utility.yul\":845:922   */\n  swap2\n  swap1\n  pop\n  jump\t// out\n    /* \"#utility.yul\":928:1050   */\ntag_15:\n    /* \"#utility.yul\":1001:1025   */\n  tag_31\n    /* \"#utility.yul\":1019:1024   */\n  dup2\n    /* \"#utility.yul\":1001:1025   */\n  tag_14\n  jump\t// in\ntag_31:\n    /* \"#utility.yul\":994:999   */\n  dup2\n    /* \"#utility.yul\":991:1026   */\n  eq\n    /* \"#utility.yul\":981:1044   */\n  tag_32\n  jumpi\n    /* \"#utility.yul\":1040:1041   */\n  0x00\n    /* \"#utility.yul\":1037:1038   */\n  dup1\n    /* \"#utility.yul\":1030:1042   */\n  revert\n    /* \"#utility.yul\":981:1044   */\ntag_32:\n    /* \"#utility.yul\":928:1050   */\n  pop\n  jump\t// out\n    /* \"#utility.yul\":1056:1199   */\ntag_16:\n    /* \"#utility.yul\":1113:1118   */\n  0x00\n    /* \"#utility.yul\":1144:1150   */\n  dup2\n    /* \"#utility.yul\":1138:1151   */\n  mload\n    /* \"#utility.yul\":1129:1151   */\n  swap1\n  pop\n    /* \"#utility.yul\":1160:1193   */\n  tag_34\n    /* \"#utility.yul\":1187:1192   */\n  dup2\n    /* \"#utility.yul\":1160:1193   */\n  tag_15\n  jump\t// in\ntag_34:\n    /* \"#utility.yul\":1056:1199   */\n  swap3\n  swap2\n  pop\n  pop\n  jump\t// out\n    /* \"#utility.yul\":1205:1712   */\ntag_3:\n    /* \"#utility.yul\":1284:1290   */\n  0x00\n    /* \"#utility.yul\":1292:1298   */\n  dup1\n    /* \"#utility.yul\":1341:1343   */\n  0x40\n    /* \"#utility.yul\":1329:1338   */\n  dup4\n    /* \"#utility.yul\":1320:1327   */\n  dup6\n    /* \"#utility.yul\":1316:1339   */\n  sub\n    /* \"#utility.yul\":1312:1344   */\n  slt\n    /* \"#utility.yul\":1309:1428   */\n  iszero\n  tag_36\n  jumpi\n    /* \"#utility.yul\":1347:1426   */\n  tag_37\n  tag_8\n  jump\t// in\ntag_37:\n    /* \"#utility.yul\":1309:1428   */\ntag_36:\n    /* \"#utility.yul\":1467:1468   */\n  0x00\n    /* \"#utility.yul\":1492:1556   */\n  tag_38\n    /* \"#utility.yul\":1548:1555   */\n  dup6\n    /* \"#utility.yul\":1539:1545   */\n  dup3\n    /* \"#utility.yul\":1528:1537   */\n  dup7\n    /* \"#utility.yul\":1524:1546   */\n  add\n    /* \"#utility.yul\":1492:1556   */\n  tag_13\n  jump\t// in\ntag_38:\n    /* \"#utility.yul\":1482:1556   */\n  swap3\n  pop\n    /* \"#utility.yul\":1438:1566   */\n  pop\n    /* \"#utility.yul\":1605:1607   */\n  0x20\n    /* \"#utility.yul\":1631:1695   */\n  tag_39\n    /* \"#utility.yul\":1687:1694   */\n  dup6\n    /* \"#utility.yul\":1678:1684   */\n  dup3\n    /* \"#utility.yul\":1667:1676   */\n  dup7\n    /* \"#utility.yul\":1663:1685   */\n  add\n    /* \"#utility.yul\":1631:1695   */\n  tag_16\n  jump\t// in\ntag_39:\n    /* \"#utility.yul\":1621:1695   */\n  swap2\n  pop\n    /* \"#utility.yul\":1576:1705   */\n  pop\n    /* \"#utility.yul\":1205:1712   */\n  swap3\n  pop\n  swap3\n  swap1\n  pop\n  jump\t// out\n    /* \".deps/npm/@openzeppelin/contracts/token/ERC20/testLoto.sol\":165:5821  contract Loteria {... */\ntag_6:\n  dataSize(sub_0)\n  dup1\n  dataOffset(sub_0)\n  0x00\n  codecopy\n  0x00\n  return\nstop\n\nsub_0: assembly {\n        /* \".deps/npm/@openzeppelin/contracts/token/ERC20/testLoto.sol\":165:5821  contract Loteria {... */\n      mstore(0x40, 0x80)\n      callvalue\n      dup1\n      iszero\n      tag_1\n      jumpi\n      0x00\n      dup1\n      revert\n    tag_1:\n      pop\n      jumpi(tag_2, lt(calldatasize, 0x04))\n      shr(0xe0, calldataload(0x00))\n      dup1\n      0x8ade2ac4\n      gt\n      tag_15\n      jumpi\n      dup1\n      0x8ade2ac4\n      eq\n      tag_9\n      jumpi\n      dup1\n      0x8da5cb5b\n      eq\n      tag_10\n      jumpi\n      dup1\n      0xb24733e3\n      eq\n      tag_11\n      jumpi\n      dup1\n      0xd8787a86\n      eq\n      tag_12\n      jumpi\n      dup1\n      0xdfe22b5f\n      eq\n      tag_13\n      jumpi\n      dup1\n      0xfc0c546a\n      eq\n      tag_14\n      jumpi\n      jump(tag_2)\n    tag_15:\n      dup1\n      0x2832ffa4\n      eq\n      tag_3\n      jumpi\n      dup1\n      0x2ddbd13a\n      eq\n      tag_4\n      jumpi\n      dup1\n      0x50237f72\n      eq\n      tag_5\n      jumpi\n      dup1\n      0x6b7bdd0c\n      eq\n      tag_6\n      jumpi\n      dup1\n      0x6dc4114f\n      eq\n      tag_7\n      jumpi\n      dup1\n      0x76ffe866\n      eq\n      tag_8\n      jumpi\n    tag_2:\n      0x00\n      dup1\n      revert\n        /* \".deps/npm/@openzeppelin/contracts/token/ERC20/testLoto.sol\":2297:3412  function comprar(uint256[] memory _numeros) public {... */\n    tag_3:\n      tag_16\n      0x04\n      dup1\n      calldatasize\n      sub\n      dup2\n      add\n      swap1\n      tag_17\n      swap2\n      swap1\n      tag_18\n      jump\t// in\n    tag_17:\n      tag_19\n      jump\t// in\n    tag_16:\n      stop\n        /* \".deps/npm/@openzeppelin/contracts/token/ERC20/testLoto.sol\":499:519  uint256 public total */\n    tag_4:\n      tag_20\n      tag_21\n      jump\t// in\n    tag_20:\n      mload(0x40)\n      tag_22\n      swap2\n      swap1\n      tag_23\n      jump\t// in\n    tag_22:\n      mload(0x40)\n      dup1\n      swap2\n      sub\n      swap1\n      return\n        /* \".deps/npm/@openzeppelin/contracts/token/ERC20/testLoto.sol\":293:314  uint256 public premio */\n    tag_5:\n      tag_24\n      tag_25\n      jump\t// in\n    tag_24:\n      mload(0x40)\n      tag_26\n      swap2\n      swap1\n      tag_23\n      jump\t// in\n    tag_26:\n      mload(0x40)\n      dup1\n      swap2\n      sub\n      swap1\n      return\n        /* \".deps/npm/@openzeppelin/contracts/token/ERC20/testLoto.sol\":5614:5818  function reabrir() public onlyOwner {... */\n    tag_6:\n      tag_27\n      tag_28\n      jump\t// in\n    tag_27:\n      stop\n        /* \".deps/npm/@openzeppelin/contracts/token/ERC20/testLoto.sol\":640:658  bool public aberta */\n    tag_7:\n      tag_29\n      tag_30\n      jump\t// in\n    tag_29:\n      mload(0x40)\n      tag_31\n      swap2\n      swap1\n      tag_32\n      jump\t// in\n    tag_31:\n      mload(0x40)\n      dup1\n      swap2\n      sub\n      swap1\n      return\n        /* \".deps/npm/@openzeppelin/contracts/token/ERC20/testLoto.sol\":755:799  mapping(address => uint256[]) public numeros */\n    tag_8:\n      tag_33\n      0x04\n      dup1\n      calldatasize\n      sub\n      dup2\n      add\n      swap1\n      tag_34\n      swap2\n      swap1\n      tag_35\n      jump\t// in\n    tag_34:\n      tag_36\n      jump\t// in\n    tag_33:\n      mload(0x40)\n      tag_37\n      swap2\n      swap1\n      tag_23\n      jump\t// in\n    tag_37:\n      mload(0x40)\n      dup1\n      swap2\n      sub\n      swap1\n      return\n        /* \".deps/npm/@openzeppelin/contracts/token/ERC20/testLoto.sol\":3550:5491  function sortear() public onlyOwner {... */\n    tag_9:\n      tag_38\n      tag_39\n      jump\t// in\n    tag_38:\n      stop\n        /* \".deps/npm/@openzeppelin/contracts/token/ERC20/testLoto.sol\":231:251  address public owner */\n    tag_10:\n      tag_40\n      tag_41\n      jump\t// in\n    tag_40:\n      mload(0x40)\n      tag_42\n      swap2\n      swap1\n      tag_43\n      jump\t// in\n    tag_42:\n      mload(0x40)\n      dup1\n      swap2\n      sub\n      swap1\n      return\n        /* \".deps/npm/@openzeppelin/contracts/token/ERC20/testLoto.sol\":570:593  uint256 public sorteado */\n    tag_11:\n      tag_44\n      tag_45\n      jump\t// in\n    tag_44:\n      mload(0x40)\n      tag_46\n      swap2\n      swap1\n      tag_23\n      jump\t// in\n    tag_46:\n      mload(0x40)\n      dup1\n      swap2\n      sub\n      swap1\n      return\n        /* \".deps/npm/@openzeppelin/contracts/token/ERC20/testLoto.sol\":423:443  uint256 public preco */\n    tag_12:\n      tag_47\n      tag_48\n      jump\t// in\n    tag_47:\n      mload(0x40)\n      tag_49\n      swap2\n      swap1\n      tag_23\n      jump\t// in\n    tag_49:\n      mload(0x40)\n      dup1\n      swap2\n      sub\n      swap1\n      return\n        /* \".deps/npm/@openzeppelin/contracts/token/ERC20/testLoto.sol\":873:921  mapping(uint256 => address[]) public apostadores */\n    tag_13:\n      tag_50\n      0x04\n      dup1\n      calldatasize\n      sub\n      dup2\n      add\n      swap1\n      tag_51\n      swap2\n      swap1\n      tag_52\n      jump\t// in\n    tag_51:\n      tag_53\n      jump\t// in\n    tag_50:\n      mload(0x40)\n      tag_54\n      swap2\n      swap1\n      tag_43\n      jump\t// in\n    tag_54:\n      mload(0x40)\n      dup1\n      swap2\n      sub\n      swap1\n      return\n        /* \".deps/npm/@openzeppelin/contracts/token/ERC20/testLoto.sol\":353:372  IERC20 public token */\n    tag_14:\n      tag_55\n      tag_56\n      jump\t// in\n    tag_55:\n      mload(0x40)\n      tag_57\n      swap2\n      swap1\n      tag_58\n      jump\t// in\n    tag_57:\n      mload(0x40)\n      dup1\n      swap2\n      sub\n      swap1\n      return\n        /* \".deps/npm/@openzeppelin/contracts/token/ERC20/testLoto.sol\":2297:3412  function comprar(uint256[] memory _numeros) public {... */\n    tag_19:\n        /* \".deps/npm/@openzeppelin/contracts/token/ERC20/testLoto.sol\":2367:2373  aberta */\n      0x06\n      0x00\n      swap1\n      sload\n      swap1\n      0x0100\n      exp\n      swap1\n      div\n      0xff\n      and\n        /* \".deps/npm/@openzeppelin/contracts/token/ERC20/testLoto.sol\":2359:2400  require(aberta, \"A loteria esta fechada\") */\n      tag_60\n      jumpi\n      mload(0x40)\n      0x08c379a000000000000000000000000000000000000000000000000000000000\n      dup2\n      mstore\n      0x04\n      add\n      tag_61\n      swap1\n      tag_62\n      jump\t// in\n    tag_61:\n      mload(0x40)\n      dup1\n      swap2\n      sub\n      swap1\n      revert\n    tag_60:\n        /* \".deps/npm/@openzeppelin/contracts/token/ERC20/testLoto.sol\":2475:2476  0 */\n      0x00\n        /* \".deps/npm/@openzeppelin/contracts/token/ERC20/testLoto.sol\":2457:2465  _numeros */\n      dup2\n        /* \".deps/npm/@openzeppelin/contracts/token/ERC20/testLoto.sol\":2457:2472  _numeros.length */\n      mload\n        /* \".deps/npm/@openzeppelin/contracts/token/ERC20/testLoto.sol\":2457:2476  _numeros.length > 0 */\n      gt\n        /* \".deps/npm/@openzeppelin/contracts/token/ERC20/testLoto.sol\":2449:2519  require(_numeros.length > 0, \"Voce deve comprar pelo menos um numero\") */\n      tag_63\n      jumpi\n      mload(0x40)\n      0x08c379a000000000000000000000000000000000000000000000000000000000\n      dup2\n      mstore\n      0x04\n      add\n      tag_64\n      swap1\n      tag_65\n      jump\t// in\n    tag_64:\n      mload(0x40)\n      dup1\n      swap2\n      sub\n      swap1\n      revert\n    tag_63:\n        /* \".deps/npm/@openzeppelin/contracts/token/ERC20/testLoto.sol\":2595:2608  uint256 valor */\n      0x00\n        /* \".deps/npm/@openzeppelin/contracts/token/ERC20/testLoto.sol\":2629:2634  preco */\n      sload(0x03)\n        /* \".deps/npm/@openzeppelin/contracts/token/ERC20/testLoto.sol\":2611:2619  _numeros */\n      dup3\n        /* \".deps/npm/@openzeppelin/contracts/token/ERC20/testLoto.sol\":2611:2626  _numeros.length */\n      mload\n        /* \".deps/npm/@openzeppelin/contracts/token/ERC20/testLoto.sol\":2611:2634  _numeros.length * preco */\n      tag_66\n      swap2\n      swap1\n      tag_67\n      jump\t// in\n    tag_66:\n        /* \".deps/npm/@openzeppelin/contracts/token/ERC20/testLoto.sol\":2595:2634  uint256 valor = _numeros.length * preco */\n      swap1\n      pop\n        /* \".deps/npm/@openzeppelin/contracts/token/ERC20/testLoto.sol\":2698:2703  token */\n      0x02\n      0x00\n      swap1\n      sload\n      swap1\n      0x0100\n      exp\n      swap1\n      div\n      0xffffffffffffffffffffffffffffffffffffffff\n      and\n        /* \".deps/npm/@openzeppelin/contracts/token/ERC20/testLoto.sol\":2698:2716  token.transferFrom */\n      0xffffffffffffffffffffffffffffffffffffffff\n      and\n      0x23b872dd\n        /* \".deps/npm/@openzeppelin/contracts/token/ERC20/testLoto.sol\":2717:2727  msg.sender */\n      caller\n        /* \".deps/npm/@openzeppelin/contracts/token/ERC20/testLoto.sol\":2737:2741  this */\n      address\n        /* \".deps/npm/@openzeppelin/contracts/token/ERC20/testLoto.sol\":2744:2749  valor */\n      dup5\n        /* \".deps/npm/@openzeppelin/contracts/token/ERC20/testLoto.sol\":2698:2750  token.transferFrom(msg.sender, address(this), valor) */\n      mload(0x40)\n      dup5\n      0xffffffff\n      and\n      0xe0\n      shl\n      dup2\n      mstore\n      0x04\n      add\n      tag_68\n      swap4\n      swap3\n      swap2\n      swap1\n      tag_69\n      jump\t// in\n    tag_68:\n      0x20\n      mload(0x40)\n      dup1\n      dup4\n      sub\n      dup2\n      0x00\n      dup8\n      gas\n      call\n      iszero\n      dup1\n      iszero\n      tag_71\n      jumpi\n      returndatasize\n      0x00\n      dup1\n      returndatacopy\n      revert(0x00, returndatasize)\n    tag_71:\n      pop\n      pop\n      pop\n      pop\n      mload(0x40)\n      returndatasize\n      not(0x1f)\n      0x1f\n      dup3\n      add\n      and\n      dup3\n      add\n      dup1\n      0x40\n      mstore\n      pop\n      dup2\n      add\n      swap1\n      tag_72\n      swap2\n      swap1\n      tag_73\n      jump\t// in\n    tag_72:\n        /* \".deps/npm/@openzeppelin/contracts/token/ERC20/testLoto.sol\":2690:2785  require(token.transferFrom(msg.sender, address(this), valor), \"Transferencia de tokens falhou\") */\n      tag_74\n      jumpi\n      mload(0x40)\n      0x08c379a000000000000000000000000000000000000000000000000000000000\n      dup2\n      mstore\n      0x04\n      add\n      tag_75\n      swap1\n      tag_76\n      jump\t// in\n    tag_75:\n      mload(0x40)\n      dup1\n      swap2\n      sub\n      swap1\n      revert\n    tag_74:\n        /* \".deps/npm/@openzeppelin/contracts/token/ERC20/testLoto.sol\":2905:2910  valor */\n      dup1\n        /* \".deps/npm/@openzeppelin/contracts/token/ERC20/testLoto.sol\":2896:2901  total */\n      0x04\n      0x00\n        /* \".deps/npm/@openzeppelin/contracts/token/ERC20/testLoto.sol\":2896:2910  total += valor */\n      dup3\n      dup3\n      sload\n      tag_77\n      swap2\n      swap1\n      tag_78\n      jump\t// in\n    tag_77:\n      swap3\n      pop\n      pop\n      dup2\n      swap1\n      sstore\n      pop\n        /* \".deps/npm/@openzeppelin/contracts/token/ERC20/testLoto.sol\":2979:2988  uint256 i */\n      0x00\n        /* \".deps/npm/@openzeppelin/contracts/token/ERC20/testLoto.sol\":2974:3313  for (uint256 i = 0; i < _numeros.length; i++) { // Para cada número comprado pelo comprador... */\n    tag_79:\n        /* \".deps/npm/@openzeppelin/contracts/token/ERC20/testLoto.sol\":2998:3006  _numeros */\n      dup3\n        /* \".deps/npm/@openzeppelin/contracts/token/ERC20/testLoto.sol\":2998:3013  _numeros.length */\n      mload\n        /* \".deps/npm/@openzeppelin/contracts/token/ERC20/testLoto.sol\":2994:2995  i */\n      dup2\n        /* \".deps/npm/@openzeppelin/contracts/token/ERC20/testLoto.sol\":2994:3013  i < _numeros.length */\n      lt\n        /* \".deps/npm/@openzeppelin/contracts/token/ERC20/testLoto.sol\":2974:3313  for (uint256 i = 0; i < _numeros.length; i++) { // Para cada número comprado pelo comprador... */\n      iszero\n      tag_80\n      jumpi\n        /* \".deps/npm/@openzeppelin/contracts/token/ERC20/testLoto.sol\":3080:3087  numeros */\n      0x07\n        /* \".deps/npm/@openzeppelin/contracts/token/ERC20/testLoto.sol\":3080:3099  numeros[msg.sender] */\n      0x00\n        /* \".deps/npm/@openzeppelin/contracts/token/ERC20/testLoto.sol\":3088:3098  msg.sender */\n      caller\n        /* \".deps/npm/@openzeppelin/contracts/token/ERC20/testLoto.sol\":3080:3099  numeros[msg.sender] */\n      0xffffffffffffffffffffffffffffffffffffffff\n      and\n      0xffffffffffffffffffffffffffffffffffffffff\n      and\n      dup2\n      mstore\n      0x20\n      add\n      swap1\n      dup2\n      mstore\n      0x20\n      add\n      0x00\n      keccak256\n        /* \".deps/npm/@openzeppelin/contracts/token/ERC20/testLoto.sol\":3105:3113  _numeros */\n      dup4\n        /* \".deps/npm/@openzeppelin/contracts/token/ERC20/testLoto.sol\":3114:3115  i */\n      dup3\n        /* \".deps/npm/@openzeppelin/contracts/token/ERC20/testLoto.sol\":3105:3116  _numeros[i] */\n      dup2\n      mload\n      dup2\n      lt\n      tag_82\n      jumpi\n      tag_83\n      tag_84\n      jump\t// in\n    tag_83:\n    tag_82:\n      0x20\n      mul\n      0x20\n      add\n      add\n      mload\n        /* \".deps/npm/@openzeppelin/contracts/token/ERC20/testLoto.sol\":3080:3117  numeros[msg.sender].push(_numeros[i]) */\n      swap1\n      dup1\n      0x01\n      dup2\n      sload\n      add\n      dup1\n      dup3\n      sstore\n      dup1\n      swap2\n      pop\n      pop\n      0x01\n      swap1\n      sub\n      swap1\n      0x00\n      mstore\n      keccak256(0x00, 0x20)\n      add\n      0x00\n      swap1\n      swap2\n      swap1\n      swap2\n      swap1\n      swap2\n      pop\n      sstore\n        /* \".deps/npm/@openzeppelin/contracts/token/ERC20/testLoto.sol\":3188:3199  apostadores */\n      0x08\n        /* \".deps/npm/@openzeppelin/contracts/token/ERC20/testLoto.sol\":3188:3212  apostadores[_numeros[i]] */\n      0x00\n        /* \".deps/npm/@openzeppelin/contracts/token/ERC20/testLoto.sol\":3200:3208  _numeros */\n      dup5\n        /* \".deps/npm/@openzeppelin/contracts/token/ERC20/testLoto.sol\":3209:3210  i */\n      dup4\n        /* \".deps/npm/@openzeppelin/contracts/token/ERC20/testLoto.sol\":3200:3211  _numeros[i] */\n      dup2\n      mload\n      dup2\n      lt\n      tag_86\n      jumpi\n      tag_87\n      tag_84\n      jump\t// in\n    tag_87:\n    tag_86:\n      0x20\n      mul\n      0x20\n      add\n      add\n      mload\n        /* \".deps/npm/@openzeppelin/contracts/token/ERC20/testLoto.sol\":3188:3212  apostadores[_numeros[i]] */\n      dup2\n      mstore\n      0x20\n      add\n      swap1\n      dup2\n      mstore\n      0x20\n      add\n      0x00\n      keccak256\n        /* \".deps/npm/@openzeppelin/contracts/token/ERC20/testLoto.sol\":3218:3228  msg.sender */\n      caller\n        /* \".deps/npm/@openzeppelin/contracts/token/ERC20/testLoto.sol\":3188:3229  apostadores[_numeros[i]].push(msg.sender) */\n      swap1\n      dup1\n      0x01\n      dup2\n      sload\n      add\n      dup1\n      dup3\n      sstore\n      dup1\n      swap2\n      pop\n      pop\n      0x01\n      swap1\n      sub\n      swap1\n      0x00\n      mstore\n      keccak256(0x00, 0x20)\n      add\n      0x00\n      swap1\n      swap2\n      swap1\n      swap2\n      swap1\n      swap2\n      0x0100\n      exp\n      dup2\n      sload\n      dup2\n      0xffffffffffffffffffffffffffffffffffffffff\n      mul\n      not\n      and\n      swap1\n      dup4\n      0xffffffffffffffffffffffffffffffffffffffff\n      and\n      mul\n      or\n      swap1\n      sstore\n      pop\n        /* \".deps/npm/@openzeppelin/contracts/token/ERC20/testLoto.sol\":3015:3018  i++ */\n      dup1\n      dup1\n      tag_89\n      swap1\n      tag_90\n      jump\t// in\n    tag_89:\n      swap2\n      pop\n      pop\n        /* \".deps/npm/@openzeppelin/contracts/token/ERC20/testLoto.sol\":2974:3313  for (uint256 i = 0; i < _numeros.length; i++) { // Para cada número comprado pelo comprador... */\n      jump(tag_79)\n    tag_80:\n      pop\n        /* \".deps/npm/@openzeppelin/contracts/token/ERC20/testLoto.sol\":3335:3345  msg.sender */\n      caller\n        /* \".deps/npm/@openzeppelin/contracts/token/ERC20/testLoto.sol\":3328:3356  Compra(msg.sender, _numeros) */\n      0xffffffffffffffffffffffffffffffffffffffff\n      and\n      0x40cdfeb8eab7629300182755f706ba32e44c0089edabb30c660d9df355250e9f\n        /* \".deps/npm/@openzeppelin/contracts/token/ERC20/testLoto.sol\":3347:3355  _numeros */\n      dup4\n        /* \".deps/npm/@openzeppelin/contracts/token/ERC20/testLoto.sol\":3328:3356  Compra(msg.sender, _numeros) */\n      mload(0x40)\n      tag_91\n      swap2\n      swap1\n      tag_92\n      jump\t// in\n    tag_91:\n      mload(0x40)\n      dup1\n      swap2\n      sub\n      swap1\n      log2\n        /* \".deps/npm/@openzeppelin/contracts/token/ERC20/testLoto.sol\":2348:3412  {... */\n      pop\n        /* \".deps/npm/@openzeppelin/contracts/token/ERC20/testLoto.sol\":2297:3412  function comprar(uint256[] memory _numeros) public {... */\n      pop\n      jump\t// out\n        /* \".deps/npm/@openzeppelin/contracts/token/ERC20/testLoto.sol\":499:519  uint256 public total */\n    tag_21:\n      sload(0x04)\n      dup2\n      jump\t// out\n        /* \".deps/npm/@openzeppelin/contracts/token/ERC20/testLoto.sol\":293:314  uint256 public premio */\n    tag_25:\n      sload(0x01)\n      dup2\n      jump\t// out\n        /* \".deps/npm/@openzeppelin/contracts/token/ERC20/testLoto.sol\":5614:5818  function reabrir() public onlyOwner {... */\n    tag_28:\n        /* \".deps/npm/@openzeppelin/contracts/token/ERC20/testLoto.sol\":1595:1600  owner */\n      0x00\n      dup1\n      sload\n      swap1\n      0x0100\n      exp\n      swap1\n      div\n      0xffffffffffffffffffffffffffffffffffffffff\n      and\n        /* \".deps/npm/@openzeppelin/contracts/token/ERC20/testLoto.sol\":1581:1600  msg.sender == owner */\n      0xffffffffffffffffffffffffffffffffffffffff\n      and\n        /* \".deps/npm/@openzeppelin/contracts/token/ERC20/testLoto.sol\":1581:1591  msg.sender */\n      caller\n        /* \".deps/npm/@openzeppelin/contracts/token/ERC20/testLoto.sol\":1581:1600  msg.sender == owner */\n      0xffffffffffffffffffffffffffffffffffffffff\n      and\n      eq\n        /* \".deps/npm/@openzeppelin/contracts/token/ERC20/testLoto.sol\":1573:1643  require(msg.sender == owner, \"Somente o dono pode chamar essa funcao\") */\n      tag_94\n      jumpi\n      mload(0x40)\n      0x08c379a000000000000000000000000000000000000000000000000000000000\n      dup2\n      mstore\n      0x04\n      add\n      tag_95\n      swap1\n      tag_96\n      jump\t// in\n    tag_95:\n      mload(0x40)\n      dup1\n      swap2\n      sub\n      swap1\n      revert\n    tag_94:\n        /* \".deps/npm/@openzeppelin/contracts/token/ERC20/testLoto.sol\":5670:5676  aberta */\n      0x06\n      0x00\n      swap1\n      sload\n      swap1\n      0x0100\n      exp\n      swap1\n      div\n      0xff\n      and\n        /* \".deps/npm/@openzeppelin/contracts/token/ERC20/testLoto.sol\":5669:5676  !aberta */\n      iszero\n        /* \".deps/npm/@openzeppelin/contracts/token/ERC20/testLoto.sol\":5661:5705  require(!aberta, \"A loteria ja esta aberta\") */\n      tag_98\n      jumpi\n      mload(0x40)\n      0x08c379a000000000000000000000000000000000000000000000000000000000\n      dup2\n      mstore\n      0x04\n      add\n      tag_99\n      swap1\n      tag_100\n      jump\t// in\n    tag_99:\n      mload(0x40)\n      dup1\n      swap2\n      sub\n      swap1\n      revert\n    tag_98:\n        /* \".deps/npm/@openzeppelin/contracts/token/ERC20/testLoto.sol\":5764:5768  true */\n      0x01\n        /* \".deps/npm/@openzeppelin/contracts/token/ERC20/testLoto.sol\":5755:5761  aberta */\n      0x06\n      0x00\n        /* \".deps/npm/@openzeppelin/contracts/token/ERC20/testLoto.sol\":5755:5768  aberta = true */\n      0x0100\n      exp\n      dup2\n      sload\n      dup2\n      0xff\n      mul\n      not\n      and\n      swap1\n      dup4\n      iszero\n      iszero\n      mul\n      or\n      swap1\n      sstore\n      pop\n        /* \".deps/npm/@openzeppelin/contracts/token/ERC20/testLoto.sol\":5614:5818  function reabrir() public onlyOwner {... */\n      jump\t// out\n        /* \".deps/npm/@openzeppelin/contracts/token/ERC20/testLoto.sol\":640:658  bool public aberta */\n    tag_30:\n      0x06\n      0x00\n      swap1\n      sload\n      swap1\n      0x0100\n      exp\n      swap1\n      div\n      0xff\n      and\n      dup2\n      jump\t// out\n        /* \".deps/npm/@openzeppelin/contracts/token/ERC20/testLoto.sol\":755:799  mapping(address => uint256[]) public numeros */\n    tag_36:\n      mstore(0x20, 0x07)\n      dup2\n      0x00\n      mstore\n      keccak256(0x00, 0x40)\n      dup2\n      dup2\n      sload\n      dup2\n      lt\n      tag_101\n      jumpi\n      0x00\n      dup1\n      revert\n    tag_101:\n      swap1\n      0x00\n      mstore\n      keccak256(0x00, 0x20)\n      add\n      0x00\n      swap2\n      pop\n      swap2\n      pop\n      pop\n      sload\n      dup2\n      jump\t// out\n        /* \".deps/npm/@openzeppelin/contracts/token/ERC20/testLoto.sol\":3550:5491  function sortear() public onlyOwner {... */\n    tag_39:\n        /* \".deps/npm/@openzeppelin/contracts/token/ERC20/testLoto.sol\":1595:1600  owner */\n      0x00\n      dup1\n      sload\n      swap1\n      0x0100\n      exp\n      swap1\n      div\n      0xffffffffffffffffffffffffffffffffffffffff\n      and\n        /* \".deps/npm/@openzeppelin/contracts/token/ERC20/testLoto.sol\":1581:1600  msg.sender == owner */\n      0xffffffffffffffffffffffffffffffffffffffff\n      and\n        /* \".deps/npm/@openzeppelin/contracts/token/ERC20/testLoto.sol\":1581:1591  msg.sender */\n      caller\n        /* \".deps/npm/@openzeppelin/contracts/token/ERC20/testLoto.sol\":1581:1600  msg.sender == owner */\n      0xffffffffffffffffffffffffffffffffffffffff\n      and\n      eq\n        /* \".deps/npm/@openzeppelin/contracts/token/ERC20/testLoto.sol\":1573:1643  require(msg.sender == owner, \"Somente o dono pode chamar essa funcao\") */\n      tag_104\n      jumpi\n      mload(0x40)\n      0x08c379a000000000000000000000000000000000000000000000000000000000\n      dup2\n      mstore\n      0x04\n      add\n      tag_105\n      swap1\n      tag_96\n      jump\t// in\n    tag_105:\n      mload(0x40)\n      dup1\n      swap2\n      sub\n      swap1\n      revert\n    tag_104:\n        /* \".deps/npm/@openzeppelin/contracts/token/ERC20/testLoto.sol\":3605:3611  aberta */\n      0x06\n      0x00\n      swap1\n      sload\n      swap1\n      0x0100\n      exp\n      swap1\n      div\n      0xff\n      and\n        /* \".deps/npm/@openzeppelin/contracts/token/ERC20/testLoto.sol\":3597:3638  require(aberta, \"A loteria esta fechada\") */\n      tag_107\n      jumpi\n      mload(0x40)\n      0x08c379a000000000000000000000000000000000000000000000000000000000\n      dup2\n      mstore\n      0x04\n      add\n      tag_108\n      swap1\n      tag_62\n      jump\t// in\n    tag_108:\n      mload(0x40)\n      dup1\n      swap2\n      sub\n      swap1\n      revert\n    tag_107:\n        /* \".deps/npm/@openzeppelin/contracts/token/ERC20/testLoto.sol\":3703:3704  0 */\n      0x00\n        /* \".deps/npm/@openzeppelin/contracts/token/ERC20/testLoto.sol\":3695:3700  total */\n      sload(0x04)\n        /* \".deps/npm/@openzeppelin/contracts/token/ERC20/testLoto.sol\":3695:3704  total > 0 */\n      gt\n        /* \".deps/npm/@openzeppelin/contracts/token/ERC20/testLoto.sol\":3687:3733  require(total > 0, \"A loteria nao tem fundos\") */\n      tag_109\n      jumpi\n      mload(0x40)\n      0x08c379a000000000000000000000000000000000000000000000000000000000\n      dup2\n      mstore\n      0x04\n      add\n      tag_110\n      swap1\n      tag_111\n      jump\t// in\n    tag_110:\n      mload(0x40)\n      dup1\n      swap2\n      sub\n      swap1\n      revert\n    tag_109:\n        /* \".deps/npm/@openzeppelin/contracts/token/ERC20/testLoto.sol\":3827:3832  false */\n      0x00\n        /* \".deps/npm/@openzeppelin/contracts/token/ERC20/testLoto.sol\":3818:3824  aberta */\n      0x06\n      0x00\n        /* \".deps/npm/@openzeppelin/contracts/token/ERC20/testLoto.sol\":3818:3832  aberta = false */\n      0x0100\n      exp\n      dup2\n      sload\n      dup2\n      0xff\n      mul\n      not\n      and\n      swap1\n      dup4\n      iszero\n      iszero\n      mul\n      or\n      swap1\n      sstore\n      pop\n        /* \".deps/npm/@openzeppelin/contracts/token/ERC20/testLoto.sol\":3991:3992  1 */\n      0x01\n        /* \".deps/npm/@openzeppelin/contracts/token/ERC20/testLoto.sol\":3985:3988  100 */\n      0x64\n        /* \".deps/npm/@openzeppelin/contracts/token/ERC20/testLoto.sol\":3932:3947  block.timestamp */\n      timestamp\n        /* \".deps/npm/@openzeppelin/contracts/token/ERC20/testLoto.sol\":3949:3965  block.difficulty */\n      prevrandao\n        /* \".deps/npm/@openzeppelin/contracts/token/ERC20/testLoto.sol\":3967:3979  block.number */\n      number\n        /* \".deps/npm/@openzeppelin/contracts/token/ERC20/testLoto.sol\":3915:3980  abi.encodePacked(block.timestamp, block.difficulty, block.number) */\n      add(0x20, mload(0x40))\n      tag_112\n      swap4\n      swap3\n      swap2\n      swap1\n      tag_113\n      jump\t// in\n    tag_112:\n      mload(0x40)\n      0x20\n      dup2\n      dup4\n      sub\n      sub\n      dup2\n      mstore\n      swap1\n      0x40\n      mstore\n        /* \".deps/npm/@openzeppelin/contracts/token/ERC20/testLoto.sol\":3905:3981  keccak256(abi.encodePacked(block.timestamp, block.difficulty, block.number)) */\n      dup1\n      mload\n      swap1\n      0x20\n      add\n      keccak256\n        /* \".deps/npm/@openzeppelin/contracts/token/ERC20/testLoto.sol\":3897:3982  uint256(keccak256(abi.encodePacked(block.timestamp, block.difficulty, block.number))) */\n      0x00\n      shr\n        /* \".deps/npm/@openzeppelin/contracts/token/ERC20/testLoto.sol\":3897:3988  uint256(keccak256(abi.encodePacked(block.timestamp, block.difficulty, block.number))) % 100 */\n      tag_114\n      swap2\n      swap1\n      tag_115\n      jump\t// in\n    tag_114:\n        /* \".deps/npm/@openzeppelin/contracts/token/ERC20/testLoto.sol\":3897:3992  uint256(keccak256(abi.encodePacked(block.timestamp, block.difficulty, block.number))) % 100 + 1 */\n      tag_116\n      swap2\n      swap1\n      tag_78\n      jump\t// in\n    tag_116:\n        /* \".deps/npm/@openzeppelin/contracts/token/ERC20/testLoto.sol\":3886:3894  sorteado */\n      0x05\n        /* \".deps/npm/@openzeppelin/contracts/token/ERC20/testLoto.sol\":3886:3992  sorteado = uint256(keccak256(abi.encodePacked(block.timestamp, block.difficulty, block.number))) % 100 + 1 */\n      dup2\n      swap1\n      sstore\n      pop\n        /* \".deps/npm/@openzeppelin/contracts/token/ERC20/testLoto.sol\":4076:4103  address[] memory vencedores */\n      0x00\n        /* \".deps/npm/@openzeppelin/contracts/token/ERC20/testLoto.sol\":4106:4117  apostadores */\n      0x08\n        /* \".deps/npm/@openzeppelin/contracts/token/ERC20/testLoto.sol\":4106:4127  apostadores[sorteado] */\n      0x00\n        /* \".deps/npm/@openzeppelin/contracts/token/ERC20/testLoto.sol\":4118:4126  sorteado */\n      sload(0x05)\n        /* \".deps/npm/@openzeppelin/contracts/token/ERC20/testLoto.sol\":4106:4127  apostadores[sorteado] */\n      dup2\n      mstore\n      0x20\n      add\n      swap1\n      dup2\n      mstore\n      0x20\n      add\n      0x00\n      keccak256\n        /* \".deps/npm/@openzeppelin/contracts/token/ERC20/testLoto.sol\":4076:4127  address[] memory vencedores = apostadores[sorteado] */\n      dup1\n      sload\n      dup1\n      0x20\n      mul\n      0x20\n      add\n      mload(0x40)\n      swap1\n      dup2\n      add\n      0x40\n      mstore\n      dup1\n      swap3\n      swap2\n      swap1\n      dup2\n      dup2\n      mstore\n      0x20\n      add\n      dup3\n      dup1\n      sload\n      dup1\n      iszero\n      tag_117\n      jumpi\n      0x20\n      mul\n      dup3\n      add\n      swap2\n      swap1\n      0x00\n      mstore\n      keccak256(0x00, 0x20)\n      swap1\n    tag_118:\n      dup2\n      0x00\n      swap1\n      sload\n      swap1\n      0x0100\n      exp\n      swap1\n      div\n      0xffffffffffffffffffffffffffffffffffffffff\n      and\n      0xffffffffffffffffffffffffffffffffffffffff\n      and\n      dup2\n      mstore\n      0x20\n      add\n      swap1\n      0x01\n      add\n      swap1\n      dup1\n      dup4\n      gt\n      tag_118\n      jumpi\n    tag_117:\n      pop\n      pop\n      pop\n      pop\n      pop\n      swap1\n      pop\n        /* \".deps/npm/@openzeppelin/contracts/token/ERC20/testLoto.sol\":4227:4228  0 */\n      0x00\n        /* \".deps/npm/@openzeppelin/contracts/token/ERC20/testLoto.sol\":4207:4217  vencedores */\n      dup2\n        /* \".deps/npm/@openzeppelin/contracts/token/ERC20/testLoto.sol\":4207:4224  vencedores.length */\n      mload\n        /* \".deps/npm/@openzeppelin/contracts/token/ERC20/testLoto.sol\":4207:4228  vencedores.length > 0 */\n      gt\n        /* \".deps/npm/@openzeppelin/contracts/token/ERC20/testLoto.sol\":4203:5121  if (vencedores.length > 0) { // Se houver pelo menos um vencedor... */\n      iszero\n      tag_119\n      jumpi\n        /* \".deps/npm/@openzeppelin/contracts/token/ERC20/testLoto.sol\":4281:4295  uint256 premio */\n      0x00\n        /* \".deps/npm/@openzeppelin/contracts/token/ERC20/testLoto.sol\":4313:4316  100 */\n      0x64\n        /* \".deps/npm/@openzeppelin/contracts/token/ERC20/testLoto.sol\":4307:4309  95 */\n      0x5f\n        /* \".deps/npm/@openzeppelin/contracts/token/ERC20/testLoto.sol\":4299:4304  total */\n      sload(0x04)\n        /* \".deps/npm/@openzeppelin/contracts/token/ERC20/testLoto.sol\":4299:4309  total * 95 */\n      tag_120\n      swap2\n      swap1\n      tag_67\n      jump\t// in\n    tag_120:\n        /* \".deps/npm/@openzeppelin/contracts/token/ERC20/testLoto.sol\":4298:4316  (total * 95) / 100 */\n      tag_121\n      swap2\n      swap1\n      tag_122\n      jump\t// in\n    tag_121:\n        /* \".deps/npm/@openzeppelin/contracts/token/ERC20/testLoto.sol\":4281:4316  uint256 premio = (total * 95) / 100 */\n      swap1\n      pop\n        /* \".deps/npm/@openzeppelin/contracts/token/ERC20/testLoto.sol\":4401:4414  uint256 valor */\n      0x00\n        /* \".deps/npm/@openzeppelin/contracts/token/ERC20/testLoto.sol\":4426:4436  vencedores */\n      dup3\n        /* \".deps/npm/@openzeppelin/contracts/token/ERC20/testLoto.sol\":4426:4443  vencedores.length */\n      mload\n        /* \".deps/npm/@openzeppelin/contracts/token/ERC20/testLoto.sol\":4417:4423  premio */\n      dup3\n        /* \".deps/npm/@openzeppelin/contracts/token/ERC20/testLoto.sol\":4417:4443  premio / vencedores.length */\n      tag_123\n      swap2\n      swap1\n      tag_122\n      jump\t// in\n    tag_123:\n        /* \".deps/npm/@openzeppelin/contracts/token/ERC20/testLoto.sol\":4401:4443  uint256 valor = premio / vencedores.length */\n      swap1\n      pop\n        /* \".deps/npm/@openzeppelin/contracts/token/ERC20/testLoto.sol\":4510:4519  uint256 i */\n      0x00\n        /* \".deps/npm/@openzeppelin/contracts/token/ERC20/testLoto.sol\":4505:4808  for (uint256 i = 0; i < vencedores.length; i++) { // Para cada vencedor... */\n    tag_124:\n        /* \".deps/npm/@openzeppelin/contracts/token/ERC20/testLoto.sol\":4529:4539  vencedores */\n      dup4\n        /* \".deps/npm/@openzeppelin/contracts/token/ERC20/testLoto.sol\":4529:4546  vencedores.length */\n      mload\n        /* \".deps/npm/@openzeppelin/contracts/token/ERC20/testLoto.sol\":4525:4526  i */\n      dup2\n        /* \".deps/npm/@openzeppelin/contracts/token/ERC20/testLoto.sol\":4525:4546  i < vencedores.length */\n      lt\n        /* \".deps/npm/@openzeppelin/contracts/token/ERC20/testLoto.sol\":4505:4808  for (uint256 i = 0; i < vencedores.length; i++) { // Para cada vencedor... */\n      iszero\n      tag_125\n      jumpi\n        /* \".deps/npm/@openzeppelin/contracts/token/ERC20/testLoto.sol\":4594:4599  token */\n      0x02\n      0x00\n      swap1\n      sload\n      swap1\n      0x0100\n      exp\n      swap1\n      div\n      0xffffffffffffffffffffffffffffffffffffffff\n      and\n        /* \".deps/npm/@openzeppelin/contracts/token/ERC20/testLoto.sol\":4594:4608  token.transfer */\n      0xffffffffffffffffffffffffffffffffffffffff\n      and\n      0xa9059cbb\n        /* \".deps/npm/@openzeppelin/contracts/token/ERC20/testLoto.sol\":4609:4619  vencedores */\n      dup6\n        /* \".deps/npm/@openzeppelin/contracts/token/ERC20/testLoto.sol\":4620:4621  i */\n      dup4\n        /* \".deps/npm/@openzeppelin/contracts/token/ERC20/testLoto.sol\":4609:4622  vencedores[i] */\n      dup2\n      mload\n      dup2\n      lt\n      tag_127\n      jumpi\n      tag_128\n      tag_84\n      jump\t// in\n    tag_128:\n    tag_127:\n      0x20\n      mul\n      0x20\n      add\n      add\n      mload\n        /* \".deps/npm/@openzeppelin/contracts/token/ERC20/testLoto.sol\":4624:4629  valor */\n      dup5\n        /* \".deps/npm/@openzeppelin/contracts/token/ERC20/testLoto.sol\":4594:4630  token.transfer(vencedores[i], valor) */\n      mload(0x40)\n      dup4\n      0xffffffff\n      and\n      0xe0\n      shl\n      dup2\n      mstore\n      0x04\n      add\n      tag_129\n      swap3\n      swap2\n      swap1\n      tag_130\n      jump\t// in\n    tag_129:\n      0x20\n      mload(0x40)\n      dup1\n      dup4\n      sub\n      dup2\n      0x00\n      dup8\n      gas\n      call\n      iszero\n      dup1\n      iszero\n      tag_132\n      jumpi\n      returndatasize\n      0x00\n      dup1\n      returndatacopy\n      revert(0x00, returndatasize)\n    tag_132:\n      pop\n      pop\n      pop\n      pop\n      mload(0x40)\n      returndatasize\n      not(0x1f)\n      0x1f\n      dup3\n      add\n      and\n      dup3\n      add\n      dup1\n      0x40\n      mstore\n      pop\n      dup2\n      add\n      swap1\n      tag_133\n      swap2\n      swap1\n      tag_73\n      jump\t// in\n    tag_133:\n      pop\n        /* \".deps/npm/@openzeppelin/contracts/token/ERC20/testLoto.sol\":4713:4723  vencedores */\n      dup4\n        /* \".deps/npm/@openzeppelin/contracts/token/ERC20/testLoto.sol\":4724:4725  i */\n      dup2\n        /* \".deps/npm/@openzeppelin/contracts/token/ERC20/testLoto.sol\":4713:4726  vencedores[i] */\n      dup2\n      mload\n      dup2\n      lt\n      tag_134\n      jumpi\n      tag_135\n      tag_84\n      jump\t// in\n    tag_135:\n    tag_134:\n      0x20\n      mul\n      0x20\n      add\n      add\n      mload\n        /* \".deps/npm/@openzeppelin/contracts/token/ERC20/testLoto.sol\":4704:4734  Retirada(vencedores[i], valor) */\n      0xffffffffffffffffffffffffffffffffffffffff\n      and\n      0x0f03616d91da279c94798e7c7e176bf320a7e4722e68b134c8f83dbc0bf43a4b\n        /* \".deps/npm/@openzeppelin/contracts/token/ERC20/testLoto.sol\":4728:4733  valor */\n      dup4\n        /* \".deps/npm/@openzeppelin/contracts/token/ERC20/testLoto.sol\":4704:4734  Retirada(vencedores[i], valor) */\n      mload(0x40)\n      tag_136\n      swap2\n      swap1\n      tag_23\n      jump\t// in\n    tag_136:\n      mload(0x40)\n      dup1\n      swap2\n      sub\n      swap1\n      log2\n        /* \".deps/npm/@openzeppelin/contracts/token/ERC20/testLoto.sol\":4548:4551  i++ */\n      dup1\n      dup1\n      tag_137\n      swap1\n      tag_90\n      jump\t// in\n    tag_137:\n      swap2\n      pop\n      pop\n        /* \".deps/npm/@openzeppelin/contracts/token/ERC20/testLoto.sol\":4505:4808  for (uint256 i = 0; i < vencedores.length; i++) { // Para cada vencedor... */\n      jump(tag_124)\n    tag_125:\n      pop\n        /* \".deps/npm/@openzeppelin/contracts/token/ERC20/testLoto.sol\":4835:4845  vencedores */\n      dup3\n        /* \".deps/npm/@openzeppelin/contracts/token/ERC20/testLoto.sol\":4846:4847  0 */\n      0x00\n        /* \".deps/npm/@openzeppelin/contracts/token/ERC20/testLoto.sol\":4835:4848  vencedores[0] */\n      dup2\n      mload\n      dup2\n      lt\n      tag_138\n      jumpi\n      tag_139\n      tag_84\n      jump\t// in\n    tag_139:\n    tag_138:\n      0x20\n      mul\n      0x20\n      add\n      add\n      mload\n        /* \".deps/npm/@openzeppelin/contracts/token/ERC20/testLoto.sol\":4827:4867  Sorteio(vencedores[0], premio, sorteado) */\n      0xffffffffffffffffffffffffffffffffffffffff\n      and\n      0x642ee3256d48a8ca800d4524ff59b98ae3fb70f54d4dff14e901e17dfebe1260\n        /* \".deps/npm/@openzeppelin/contracts/token/ERC20/testLoto.sol\":4850:4856  premio */\n      dup4\n        /* \".deps/npm/@openzeppelin/contracts/token/ERC20/testLoto.sol\":4858:4866  sorteado */\n      sload(0x05)\n        /* \".deps/npm/@openzeppelin/contracts/token/ERC20/testLoto.sol\":4827:4867  Sorteio(vencedores[0], premio, sorteado) */\n      mload(0x40)\n      tag_140\n      swap3\n      swap2\n      swap1\n      tag_141\n      jump\t// in\n    tag_140:\n      mload(0x40)\n      dup1\n      swap2\n      sub\n      swap1\n      log2\n        /* \".deps/npm/@openzeppelin/contracts/token/ERC20/testLoto.sol\":4230:4952  { // Se houver pelo menos um vencedor... */\n      pop\n      pop\n        /* \".deps/npm/@openzeppelin/contracts/token/ERC20/testLoto.sol\":4203:5121  if (vencedores.length > 0) { // Se houver pelo menos um vencedor... */\n      jump(tag_142)\n    tag_119:\n        /* \".deps/npm/@openzeppelin/contracts/token/ERC20/testLoto.sol\":5028:5029  0 */\n      0x00\n        /* \".deps/npm/@openzeppelin/contracts/token/ERC20/testLoto.sol\":5012:5044  Sorteio(address(0), 0, sorteado) */\n      0xffffffffffffffffffffffffffffffffffffffff\n      and\n      0x642ee3256d48a8ca800d4524ff59b98ae3fb70f54d4dff14e901e17dfebe1260\n        /* \".deps/npm/@openzeppelin/contracts/token/ERC20/testLoto.sol\":5032:5033  0 */\n      0x00\n        /* \".deps/npm/@openzeppelin/contracts/token/ERC20/testLoto.sol\":5035:5043  sorteado */\n      sload(0x05)\n        /* \".deps/npm/@openzeppelin/contracts/token/ERC20/testLoto.sol\":5012:5044  Sorteio(address(0), 0, sorteado) */\n      mload(0x40)\n      tag_143\n      swap3\n      swap2\n      swap1\n      tag_144\n      jump\t// in\n    tag_143:\n      mload(0x40)\n      dup1\n      swap2\n      sub\n      swap1\n      log2\n        /* \".deps/npm/@openzeppelin/contracts/token/ERC20/testLoto.sol\":4203:5121  if (vencedores.length > 0) { // Se houver pelo menos um vencedor... */\n    tag_142:\n        /* \".deps/npm/@openzeppelin/contracts/token/ERC20/testLoto.sol\":5131:5143  uint256 taxa */\n      0x00\n        /* \".deps/npm/@openzeppelin/contracts/token/ERC20/testLoto.sol\":5154:5160  premio */\n      sload(0x01)\n        /* \".deps/npm/@openzeppelin/contracts/token/ERC20/testLoto.sol\":5146:5151  total */\n      sload(0x04)\n        /* \".deps/npm/@openzeppelin/contracts/token/ERC20/testLoto.sol\":5146:5160  total - premio */\n      tag_145\n      swap2\n      swap1\n      tag_146\n      jump\t// in\n    tag_145:\n        /* \".deps/npm/@openzeppelin/contracts/token/ERC20/testLoto.sol\":5131:5160  uint256 taxa = total - premio */\n      swap1\n      pop\n        /* \".deps/npm/@openzeppelin/contracts/token/ERC20/testLoto.sol\":5237:5242  token */\n      0x02\n      0x00\n      swap1\n      sload\n      swap1\n      0x0100\n      exp\n      swap1\n      div\n      0xffffffffffffffffffffffffffffffffffffffff\n      and\n        /* \".deps/npm/@openzeppelin/contracts/token/ERC20/testLoto.sol\":5237:5251  token.transfer */\n      0xffffffffffffffffffffffffffffffffffffffff\n      and\n      0xa9059cbb\n        /* \".deps/npm/@openzeppelin/contracts/token/ERC20/testLoto.sol\":5252:5257  owner */\n      0x00\n      dup1\n      sload\n      swap1\n      0x0100\n      exp\n      swap1\n      div\n      0xffffffffffffffffffffffffffffffffffffffff\n      and\n        /* \".deps/npm/@openzeppelin/contracts/token/ERC20/testLoto.sol\":5259:5263  taxa */\n      dup4\n        /* \".deps/npm/@openzeppelin/contracts/token/ERC20/testLoto.sol\":5237:5264  token.transfer(owner, taxa) */\n      mload(0x40)\n      dup4\n      0xffffffff\n      and\n      0xe0\n      shl\n      dup2\n      mstore\n      0x04\n      add\n      tag_147\n      swap3\n      swap2\n      swap1\n      tag_130\n      jump\t// in\n    tag_147:\n      0x20\n      mload(0x40)\n      dup1\n      dup4\n      sub\n      dup2\n      0x00\n      dup8\n      gas\n      call\n      iszero\n      dup1\n      iszero\n      tag_149\n      jumpi\n      returndatasize\n      0x00\n      dup1\n      returndatacopy\n      revert(0x00, returndatasize)\n    tag_149:\n      pop\n      pop\n      pop\n      pop\n      mload(0x40)\n      returndatasize\n      not(0x1f)\n      0x1f\n      dup3\n      add\n      and\n      dup3\n      add\n      dup1\n      0x40\n      mstore\n      pop\n      dup2\n      add\n      swap1\n      tag_150\n      swap2\n      swap1\n      tag_73\n      jump\t// in\n    tag_150:\n      pop\n        /* \".deps/npm/@openzeppelin/contracts/token/ERC20/testLoto.sol\":5344:5349  owner */\n      0x00\n      dup1\n      sload\n      swap1\n      0x0100\n      exp\n      swap1\n      div\n      0xffffffffffffffffffffffffffffffffffffffff\n      and\n        /* \".deps/npm/@openzeppelin/contracts/token/ERC20/testLoto.sol\":5335:5356  Retirada(owner, taxa) */\n      0xffffffffffffffffffffffffffffffffffffffff\n      and\n      0x0f03616d91da279c94798e7c7e176bf320a7e4722e68b134c8f83dbc0bf43a4b\n        /* \".deps/npm/@openzeppelin/contracts/token/ERC20/testLoto.sol\":5351:5355  taxa */\n      dup3\n        /* \".deps/npm/@openzeppelin/contracts/token/ERC20/testLoto.sol\":5335:5356  Retirada(owner, taxa) */\n      mload(0x40)\n      tag_151\n      swap2\n      swap1\n      tag_23\n      jump\t// in\n    tag_151:\n      mload(0x40)\n      dup1\n      swap2\n      sub\n      swap1\n      log2\n        /* \".deps/npm/@openzeppelin/contracts/token/ERC20/testLoto.sol\":5433:5434  0 */\n      0x00\n        /* \".deps/npm/@openzeppelin/contracts/token/ERC20/testLoto.sol\":5425:5430  total */\n      0x04\n        /* \".deps/npm/@openzeppelin/contracts/token/ERC20/testLoto.sol\":5425:5434  total = 0 */\n      dup2\n      swap1\n      sstore\n      pop\n        /* \".deps/npm/@openzeppelin/contracts/token/ERC20/testLoto.sol\":3586:5491  {... */\n      pop\n      pop\n        /* \".deps/npm/@openzeppelin/contracts/token/ERC20/testLoto.sol\":3550:5491  function sortear() public onlyOwner {... */\n      jump\t// out\n        /* \".deps/npm/@openzeppelin/contracts/token/ERC20/testLoto.sol\":231:251  address public owner */\n    tag_41:\n      0x00\n      dup1\n      sload\n      swap1\n      0x0100\n      exp\n      swap1\n      div\n      0xffffffffffffffffffffffffffffffffffffffff\n      and\n      dup2\n      jump\t// out\n        /* \".deps/npm/@openzeppelin/contracts/token/ERC20/testLoto.sol\":570:593  uint256 public sorteado */\n    tag_45:\n      sload(0x05)\n      dup2\n      jump\t// out\n        /* \".deps/npm/@openzeppelin/contracts/token/ERC20/testLoto.sol\":423:443  uint256 public preco */\n    tag_48:\n      sload(0x03)\n      dup2\n      jump\t// out\n        /* \".deps/npm/@openzeppelin/contracts/token/ERC20/testLoto.sol\":873:921  mapping(uint256 => address[]) public apostadores */\n    tag_53:\n      mstore(0x20, 0x08)\n      dup2\n      0x00\n      mstore\n      keccak256(0x00, 0x40)\n      dup2\n      dup2\n      sload\n      dup2\n      lt\n      tag_152\n      jumpi\n      0x00\n      dup1\n      revert\n    tag_152:\n      swap1\n      0x00\n      mstore\n      keccak256(0x00, 0x20)\n      add\n      0x00\n      swap2\n      pop\n      swap2\n      pop\n      swap1\n      sload\n      swap1\n      0x0100\n      exp\n      swap1\n      div\n      0xffffffffffffffffffffffffffffffffffffffff\n      and\n      dup2\n      jump\t// out\n        /* \".deps/npm/@openzeppelin/contracts/token/ERC20/testLoto.sol\":353:372  IERC20 public token */\n    tag_56:\n      0x02\n      0x00\n      swap1\n      sload\n      swap1\n      0x0100\n      exp\n      swap1\n      div\n      0xffffffffffffffffffffffffffffffffffffffff\n      and\n      dup2\n      jump\t// out\n        /* \"#utility.yul\":7:82   */\n    tag_154:\n        /* \"#utility.yul\":40:46   */\n      0x00\n        /* \"#utility.yul\":73:75   */\n      0x40\n        /* \"#utility.yul\":67:76   */\n      mload\n        /* \"#utility.yul\":57:76   */\n      swap1\n      pop\n        /* \"#utility.yul\":7:82   */\n      swap1\n      jump\t// out\n        /* \"#utility.yul\":88:205   */\n    tag_155:\n        /* \"#utility.yul\":197:198   */\n      0x00\n        /* \"#utility.yul\":194:195   */\n      dup1\n        /* \"#utility.yul\":187:199   */\n      revert\n        /* \"#utility.yul\":211:328   */\n    tag_156:\n        /* \"#utility.yul\":320:321   */\n      0x00\n        /* \"#utility.yul\":317:318   */\n      dup1\n        /* \"#utility.yul\":310:322   */\n      revert\n        /* \"#utility.yul\":334:451   */\n    tag_157:\n        /* \"#utility.yul\":443:444   */\n      0x00\n        /* \"#utility.yul\":440:441   */\n      dup1\n        /* \"#utility.yul\":433:445   */\n      revert\n        /* \"#utility.yul\":457:559   */\n    tag_158:\n        /* \"#utility.yul\":498:504   */\n      0x00\n        /* \"#utility.yul\":549:551   */\n      0x1f\n        /* \"#utility.yul\":545:552   */\n      not\n        /* \"#utility.yul\":540:542   */\n      0x1f\n        /* \"#utility.yul\":533:538   */\n      dup4\n        /* \"#utility.yul\":529:543   */\n      add\n        /* \"#utility.yul\":525:553   */\n      and\n        /* \"#utility.yul\":515:553   */\n      swap1\n      pop\n        /* \"#utility.yul\":457:559   */\n      swap2\n      swap1\n      pop\n      jump\t// out\n        /* \"#utility.yul\":565:745   */\n    tag_159:\n        /* \"#utility.yul\":613:690   */\n      0x4e487b7100000000000000000000000000000000000000000000000000000000\n        /* \"#utility.yul\":610:611   */\n      0x00\n        /* \"#utility.yul\":603:691   */\n      mstore\n        /* \"#utility.yul\":710:714   */\n      0x41\n        /* \"#utility.yul\":707:708   */\n      0x04\n        /* \"#utility.yul\":700:715   */\n      mstore\n        /* \"#utility.yul\":734:738   */\n      0x24\n        /* \"#utility.yul\":731:732   */\n      0x00\n        /* \"#utility.yul\":724:739   */\n      revert\n        /* \"#utility.yul\":751:1032   */\n    tag_160:\n        /* \"#utility.yul\":834:861   */\n      tag_219\n        /* \"#utility.yul\":856:860   */\n      dup3\n        /* \"#utility.yul\":834:861   */\n      tag_158\n      jump\t// in\n    tag_219:\n        /* \"#utility.yul\":826:832   */\n      dup2\n        /* \"#utility.yul\":822:862   */\n      add\n        /* \"#utility.yul\":964:970   */\n      dup2\n        /* \"#utility.yul\":952:962   */\n      dup2\n        /* \"#utility.yul\":949:971   */\n      lt\n        /* \"#utility.yul\":928:946   */\n      0xffffffffffffffff\n        /* \"#utility.yul\":916:926   */\n      dup3\n        /* \"#utility.yul\":913:947   */\n      gt\n        /* \"#utility.yul\":910:972   */\n      or\n        /* \"#utility.yul\":907:995   */\n      iszero\n      tag_220\n      jumpi\n        /* \"#utility.yul\":975:993   */\n      tag_221\n      tag_159\n      jump\t// in\n    tag_221:\n        /* \"#utility.yul\":907:995   */\n    tag_220:\n        /* \"#utility.yul\":1015:1025   */\n      dup1\n        /* \"#utility.yul\":1011:1013   */\n      0x40\n        /* \"#utility.yul\":1004:1026   */\n      mstore\n        /* \"#utility.yul\":794:1032   */\n      pop\n        /* \"#utility.yul\":751:1032   */\n      pop\n      pop\n      jump\t// out\n        /* \"#utility.yul\":1038:1167   */\n    tag_161:\n        /* \"#utility.yul\":1072:1078   */\n      0x00\n        /* \"#utility.yul\":1099:1119   */\n      tag_223\n      tag_154\n      jump\t// in\n    tag_223:\n        /* \"#utility.yul\":1089:1119   */\n      swap1\n      pop\n        /* \"#utility.yul\":1128:1161   */\n      tag_224\n        /* \"#utility.yul\":1156:1160   */\n      dup3\n        /* \"#utility.yul\":1148:1154   */\n      dup3\n        /* \"#utility.yul\":1128:1161   */\n      tag_160\n      jump\t// in\n    tag_224:\n        /* \"#utility.yul\":1038:1167   */\n      swap2\n      swap1\n      pop\n      jump\t// out\n        /* \"#utility.yul\":1173:1484   */\n    tag_162:\n        /* \"#utility.yul\":1250:1254   */\n      0x00\n        /* \"#utility.yul\":1340:1358   */\n      0xffffffffffffffff\n        /* \"#utility.yul\":1332:1338   */\n      dup3\n        /* \"#utility.yul\":1329:1359   */\n      gt\n        /* \"#utility.yul\":1326:1382   */\n      iszero\n      tag_226\n      jumpi\n        /* \"#utility.yul\":1362:1380   */\n      tag_227\n      tag_159\n      jump\t// in\n    tag_227:\n        /* \"#utility.yul\":1326:1382   */\n    tag_226:\n        /* \"#utility.yul\":1412:1416   */\n      0x20\n        /* \"#utility.yul\":1404:1410   */\n      dup3\n        /* \"#utility.yul\":1400:1417   */\n      mul\n        /* \"#utility.yul\":1392:1417   */\n      swap1\n      pop\n        /* \"#utility.yul\":1472:1476   */\n      0x20\n        /* \"#utility.yul\":1466:1470   */\n      dup2\n        /* \"#utility.yul\":1462:1477   */\n      add\n        /* \"#utility.yul\":1454:1477   */\n      swap1\n      pop\n        /* \"#utility.yul\":1173:1484   */\n      swap2\n      swap1\n      pop\n      jump\t// out\n        /* \"#utility.yul\":1490:1607   */\n    tag_163:\n        /* \"#utility.yul\":1599:1600   */\n      0x00\n        /* \"#utility.yul\":1596:1597   */\n      dup1\n        /* \"#utility.yul\":1589:1601   */\n      revert\n        /* \"#utility.yul\":1613:1690   */\n    tag_164:\n        /* \"#utility.yul\":1650:1657   */\n      0x00\n        /* \"#utility.yul\":1679:1684   */\n      dup2\n        /* \"#utility.yul\":1668:1684   */\n      swap1\n      pop\n        /* \"#utility.yul\":1613:1690   */\n      swap2\n      swap1\n      pop\n      jump\t// out\n        /* \"#utility.yul\":1696:1818   */\n    tag_165:\n        /* \"#utility.yul\":1769:1793   */\n      tag_231\n        /* \"#utility.yul\":1787:1792   */\n      dup2\n        /* \"#utility.yul\":1769:1793   */\n      tag_164\n      jump\t// in\n    tag_231:\n        /* \"#utility.yul\":1762:1767   */\n      dup2\n        /* \"#utility.yul\":1759:1794   */\n      eq\n        /* \"#utility.yul\":1749:1812   */\n      tag_232\n      jumpi\n        /* \"#utility.yul\":1808:1809   */\n      0x00\n        /* \"#utility.yul\":1805:1806   */\n      dup1\n        /* \"#utility.yul\":1798:1810   */\n      revert\n        /* \"#utility.yul\":1749:1812   */\n    tag_232:\n        /* \"#utility.yul\":1696:1818   */\n      pop\n      jump\t// out\n        /* \"#utility.yul\":1824:1963   */\n    tag_166:\n        /* \"#utility.yul\":1870:1875   */\n      0x00\n        /* \"#utility.yul\":1908:1914   */\n      dup2\n        /* \"#utility.yul\":1895:1915   */\n      calldataload\n        /* \"#utility.yul\":1886:1915   */\n      swap1\n      pop\n        /* \"#utility.yul\":1924:1957   */\n      tag_234\n        /* \"#utility.yul\":1951:1956   */\n      dup2\n        /* \"#utility.yul\":1924:1957   */\n      tag_165\n      jump\t// in\n    tag_234:\n        /* \"#utility.yul\":1824:1963   */\n      swap3\n      swap2\n      pop\n      pop\n      jump\t// out\n        /* \"#utility.yul\":1986:2696   */\n    tag_167:\n        /* \"#utility.yul\":2082:2087   */\n      0x00\n        /* \"#utility.yul\":2107:2188   */\n      tag_236\n        /* \"#utility.yul\":2123:2187   */\n      tag_237\n        /* \"#utility.yul\":2180:2186   */\n      dup5\n        /* \"#utility.yul\":2123:2187   */\n      tag_162\n      jump\t// in\n    tag_237:\n        /* \"#utility.yul\":2107:2188   */\n      tag_161\n      jump\t// in\n    tag_236:\n        /* \"#utility.yul\":2098:2188   */\n      swap1\n      pop\n        /* \"#utility.yul\":2208:2213   */\n      dup1\n        /* \"#utility.yul\":2237:2243   */\n      dup4\n        /* \"#utility.yul\":2230:2235   */\n      dup3\n        /* \"#utility.yul\":2223:2244   */\n      mstore\n        /* \"#utility.yul\":2271:2275   */\n      0x20\n        /* \"#utility.yul\":2264:2269   */\n      dup3\n        /* \"#utility.yul\":2260:2276   */\n      add\n        /* \"#utility.yul\":2253:2276   */\n      swap1\n      pop\n        /* \"#utility.yul\":2324:2328   */\n      0x20\n        /* \"#utility.yul\":2316:2322   */\n      dup5\n        /* \"#utility.yul\":2312:2329   */\n      mul\n        /* \"#utility.yul\":2304:2310   */\n      dup4\n        /* \"#utility.yul\":2300:2330   */\n      add\n        /* \"#utility.yul\":2353:2356   */\n      dup6\n        /* \"#utility.yul\":2345:2351   */\n      dup2\n        /* \"#utility.yul\":2342:2357   */\n      gt\n        /* \"#utility.yul\":2339:2461   */\n      iszero\n      tag_238\n      jumpi\n        /* \"#utility.yul\":2372:2451   */\n      tag_239\n      tag_163\n      jump\t// in\n    tag_239:\n        /* \"#utility.yul\":2339:2461   */\n    tag_238:\n        /* \"#utility.yul\":2487:2493   */\n      dup4\n        /* \"#utility.yul\":2470:2690   */\n    tag_240:\n        /* \"#utility.yul\":2504:2510   */\n      dup2\n        /* \"#utility.yul\":2499:2502   */\n      dup2\n        /* \"#utility.yul\":2496:2511   */\n      lt\n        /* \"#utility.yul\":2470:2690   */\n      iszero\n      tag_242\n      jumpi\n        /* \"#utility.yul\":2579:2582   */\n      dup1\n        /* \"#utility.yul\":2608:2645   */\n      tag_243\n        /* \"#utility.yul\":2641:2644   */\n      dup9\n        /* \"#utility.yul\":2629:2639   */\n      dup3\n        /* \"#utility.yul\":2608:2645   */\n      tag_166\n      jump\t// in\n    tag_243:\n        /* \"#utility.yul\":2603:2606   */\n      dup5\n        /* \"#utility.yul\":2596:2646   */\n      mstore\n        /* \"#utility.yul\":2675:2679   */\n      0x20\n        /* \"#utility.yul\":2670:2673   */\n      dup5\n        /* \"#utility.yul\":2666:2680   */\n      add\n        /* \"#utility.yul\":2659:2680   */\n      swap4\n      pop\n        /* \"#utility.yul\":2546:2690   */\n      pop\n        /* \"#utility.yul\":2530:2534   */\n      0x20\n        /* \"#utility.yul\":2525:2528   */\n      dup2\n        /* \"#utility.yul\":2521:2535   */\n      add\n        /* \"#utility.yul\":2514:2535   */\n      swap1\n      pop\n        /* \"#utility.yul\":2470:2690   */\n      jump(tag_240)\n    tag_242:\n        /* \"#utility.yul\":2474:2495   */\n      pop\n        /* \"#utility.yul\":2088:2696   */\n      pop\n      pop\n        /* \"#utility.yul\":1986:2696   */\n      swap4\n      swap3\n      pop\n      pop\n      pop\n      jump\t// out\n        /* \"#utility.yul\":2719:3089   */\n    tag_168:\n        /* \"#utility.yul\":2790:2795   */\n      0x00\n        /* \"#utility.yul\":2839:2842   */\n      dup3\n        /* \"#utility.yul\":2832:2836   */\n      0x1f\n        /* \"#utility.yul\":2824:2830   */\n      dup4\n        /* \"#utility.yul\":2820:2837   */\n      add\n        /* \"#utility.yul\":2816:2843   */\n      slt\n        /* \"#utility.yul\":2806:2928   */\n      tag_245\n      jumpi\n        /* \"#utility.yul\":2847:2926   */\n      tag_246\n      tag_157\n      jump\t// in\n    tag_246:\n        /* \"#utility.yul\":2806:2928   */\n    tag_245:\n        /* \"#utility.yul\":2964:2970   */\n      dup2\n        /* \"#utility.yul\":2951:2971   */\n      calldataload\n        /* \"#utility.yul\":2989:3083   */\n      tag_247\n        /* \"#utility.yul\":3079:3082   */\n      dup5\n        /* \"#utility.yul\":3071:3077   */\n      dup3\n        /* \"#utility.yul\":3064:3068   */\n      0x20\n        /* \"#utility.yul\":3056:3062   */\n      dup7\n        /* \"#utility.yul\":3052:3069   */\n      add\n        /* \"#utility.yul\":2989:3083   */\n      tag_167\n      jump\t// in\n    tag_247:\n        /* \"#utility.yul\":2980:3083   */\n      swap2\n      pop\n        /* \"#utility.yul\":2796:3089   */\n      pop\n        /* \"#utility.yul\":2719:3089   */\n      swap3\n      swap2\n      pop\n      pop\n      jump\t// out\n        /* \"#utility.yul\":3095:3634   */\n    tag_18:\n        /* \"#utility.yul\":3179:3185   */\n      0x00\n        /* \"#utility.yul\":3228:3230   */\n      0x20\n        /* \"#utility.yul\":3216:3225   */\n      dup3\n        /* \"#utility.yul\":3207:3214   */\n      dup5\n        /* \"#utility.yul\":3203:3226   */\n      sub\n        /* \"#utility.yul\":3199:3231   */\n      slt\n        /* \"#utility.yul\":3196:3315   */\n      iszero\n      tag_249\n      jumpi\n        /* \"#utility.yul\":3234:3313   */\n      tag_250\n      tag_155\n      jump\t// in\n    tag_250:\n        /* \"#utility.yul\":3196:3315   */\n    tag_249:\n        /* \"#utility.yul\":3382:3383   */\n      0x00\n        /* \"#utility.yul\":3371:3380   */\n      dup3\n        /* \"#utility.yul\":3367:3384   */\n      add\n        /* \"#utility.yul\":3354:3385   */\n      calldataload\n        /* \"#utility.yul\":3412:3430   */\n      0xffffffffffffffff\n        /* \"#utility.yul\":3404:3410   */\n      dup2\n        /* \"#utility.yul\":3401:3431   */\n      gt\n        /* \"#utility.yul\":3398:3515   */\n      iszero\n      tag_251\n      jumpi\n        /* \"#utility.yul\":3434:3513   */\n      tag_252\n      tag_156\n      jump\t// in\n    tag_252:\n        /* \"#utility.yul\":3398:3515   */\n    tag_251:\n        /* \"#utility.yul\":3539:3617   */\n      tag_253\n        /* \"#utility.yul\":3609:3616   */\n      dup5\n        /* \"#utility.yul\":3600:3606   */\n      dup3\n        /* \"#utility.yul\":3589:3598   */\n      dup6\n        /* \"#utility.yul\":3585:3607   */\n      add\n        /* \"#utility.yul\":3539:3617   */\n      tag_168\n      jump\t// in\n    tag_253:\n        /* \"#utility.yul\":3529:3617   */\n      swap2\n      pop\n        /* \"#utility.yul\":3325:3627   */\n      pop\n        /* \"#utility.yul\":3095:3634   */\n      swap3\n      swap2\n      pop\n      pop\n      jump\t// out\n        /* \"#utility.yul\":3640:3758   */\n    tag_169:\n        /* \"#utility.yul\":3727:3751   */\n      tag_255\n        /* \"#utility.yul\":3745:3750   */\n      dup2\n        /* \"#utility.yul\":3727:3751   */\n      tag_164\n      jump\t// in\n    tag_255:\n        /* \"#utility.yul\":3722:3725   */\n      dup3\n        /* \"#utility.yul\":3715:3752   */\n      mstore\n        /* \"#utility.yul\":3640:3758   */\n      pop\n      pop\n      jump\t// out\n        /* \"#utility.yul\":3764:3986   */\n    tag_23:\n        /* \"#utility.yul\":3857:3861   */\n      0x00\n        /* \"#utility.yul\":3895:3897   */\n      0x20\n        /* \"#utility.yul\":3884:3893   */\n      dup3\n        /* \"#utility.yul\":3880:3898   */\n      add\n        /* \"#utility.yul\":3872:3898   */\n      swap1\n      pop\n        /* \"#utility.yul\":3908:3979   */\n      tag_257\n        /* \"#utility.yul\":3976:3977   */\n      0x00\n        /* \"#utility.yul\":3965:3974   */\n      dup4\n        /* \"#utility.yul\":3961:3978   */\n      add\n        /* \"#utility.yul\":3952:3958   */\n      dup5\n        /* \"#utility.yul\":3908:3979   */\n      tag_169\n      jump\t// in\n    tag_257:\n        /* \"#utility.yul\":3764:3986   */\n      swap3\n      swap2\n      pop\n      pop\n      jump\t// out\n        /* \"#utility.yul\":3992:4082   */\n    tag_170:\n        /* \"#utility.yul\":4026:4033   */\n      0x00\n        /* \"#utility.yul\":4069:4074   */\n      dup2\n        /* \"#utility.yul\":4062:4075   */\n      iszero\n        /* \"#utility.yul\":4055:4076   */\n      iszero\n        /* \"#utility.yul\":4044:4076   */\n      swap1\n      pop\n        /* \"#utility.yul\":3992:4082   */\n      swap2\n      swap1\n      pop\n      jump\t// out\n        /* \"#utility.yul\":4088:4197   */\n    tag_171:\n        /* \"#utility.yul\":4169:4190   */\n      tag_260\n        /* \"#utility.yul\":4184:4189   */\n      dup2\n        /* \"#utility.yul\":4169:4190   */\n      tag_170\n      jump\t// in\n    tag_260:\n        /* \"#utility.yul\":4164:4167   */\n      dup3\n        /* \"#utility.yul\":4157:4191   */\n      mstore\n        /* \"#utility.yul\":4088:4197   */\n      pop\n      pop\n      jump\t// out\n        /* \"#utility.yul\":4203:4413   */\n    tag_32:\n        /* \"#utility.yul\":4290:4294   */\n      0x00\n        /* \"#utility.yul\":4328:4330   */\n      0x20\n        /* \"#utility.yul\":4317:4326   */\n      dup3\n        /* \"#utility.yul\":4313:4331   */\n      add\n        /* \"#utility.yul\":4305:4331   */\n      swap1\n      pop\n        /* \"#utility.yul\":4341:4406   */\n      tag_262\n        /* \"#utility.yul\":4403:4404   */\n      0x00\n        /* \"#utility.yul\":4392:4401   */\n      dup4\n        /* \"#utility.yul\":4388:4405   */\n      add\n        /* \"#utility.yul\":4379:4385   */\n      dup5\n        /* \"#utility.yul\":4341:4406   */\n      tag_171\n      jump\t// in\n    tag_262:\n        /* \"#utility.yul\":4203:4413   */\n      swap3\n      swap2\n      pop\n      pop\n      jump\t// out\n        /* \"#utility.yul\":4419:4545   */\n    tag_172:\n        /* \"#utility.yul\":4456:4463   */\n      0x00\n        /* \"#utility.yul\":4496:4538   */\n      0xffffffffffffffffffffffffffffffffffffffff\n        /* \"#utility.yul\":4489:4494   */\n      dup3\n        /* \"#utility.yul\":4485:4539   */\n      and\n        /* \"#utility.yul\":4474:4539   */\n      swap1\n      pop\n        /* \"#utility.yul\":4419:4545   */\n      swap2\n      swap1\n      pop\n      jump\t// out\n        /* \"#utility.yul\":4551:4647   */\n    tag_173:\n        /* \"#utility.yul\":4588:4595   */\n      0x00\n        /* \"#utility.yul\":4617:4641   */\n      tag_265\n        /* \"#utility.yul\":4635:4640   */\n      dup3\n        /* \"#utility.yul\":4617:4641   */\n      tag_172\n      jump\t// in\n    tag_265:\n        /* \"#utility.yul\":4606:4641   */\n      swap1\n      pop\n        /* \"#utility.yul\":4551:4647   */\n      swap2\n      swap1\n      pop\n      jump\t// out\n        /* \"#utility.yul\":4653:4775   */\n    tag_174:\n        /* \"#utility.yul\":4726:4750   */\n      tag_267\n        /* \"#utility.yul\":4744:4749   */\n      dup2\n        /* \"#utility.yul\":4726:4750   */\n      tag_173\n      jump\t// in\n    tag_267:\n        /* \"#utility.yul\":4719:4724   */\n      dup2\n        /* \"#utility.yul\":4716:4751   */\n      eq\n        /* \"#utility.yul\":4706:4769   */\n      tag_268\n      jumpi\n        /* \"#utility.yul\":4765:4766   */\n      0x00\n        /* \"#utility.yul\":4762:4763   */\n      dup1\n        /* \"#utility.yul\":4755:4767   */\n      revert\n        /* \"#utility.yul\":4706:4769   */\n    tag_268:\n        /* \"#utility.yul\":4653:4775   */\n      pop\n      jump\t// out\n        /* \"#utility.yul\":4781:4920   */\n    tag_175:\n        /* \"#utility.yul\":4827:4832   */\n      0x00\n        /* \"#utility.yul\":4865:4871   */\n      dup2\n        /* \"#utility.yul\":4852:4872   */\n      calldataload\n        /* \"#utility.yul\":4843:4872   */\n      swap1\n      pop\n        /* \"#utility.yul\":4881:4914   */\n      tag_270\n        /* \"#utility.yul\":4908:4913   */\n      dup2\n        /* \"#utility.yul\":4881:4914   */\n      tag_174\n      jump\t// in\n    tag_270:\n        /* \"#utility.yul\":4781:4920   */\n      swap3\n      swap2\n      pop\n      pop\n      jump\t// out\n        /* \"#utility.yul\":4926:5400   */\n    tag_35:\n        /* \"#utility.yul\":4994:5000   */\n      0x00\n        /* \"#utility.yul\":5002:5008   */\n      dup1\n        /* \"#utility.yul\":5051:5053   */\n      0x40\n        /* \"#utility.yul\":5039:5048   */\n      dup4\n        /* \"#utility.yul\":5030:5037   */\n      dup6\n        /* \"#utility.yul\":5026:5049   */\n      sub\n        /* \"#utility.yul\":5022:5054   */\n      slt\n        /* \"#utility.yul\":5019:5138   */\n      iszero\n      tag_272\n      jumpi\n        /* \"#utility.yul\":5057:5136   */\n      tag_273\n      tag_155\n      jump\t// in\n    tag_273:\n        /* \"#utility.yul\":5019:5138   */\n    tag_272:\n        /* \"#utility.yul\":5177:5178   */\n      0x00\n        /* \"#utility.yul\":5202:5255   */\n      tag_274\n        /* \"#utility.yul\":5247:5254   */\n      dup6\n        /* \"#utility.yul\":5238:5244   */\n      dup3\n        /* \"#utility.yul\":5227:5236   */\n      dup7\n        /* \"#utility.yul\":5223:5245   */\n      add\n        /* \"#utility.yul\":5202:5255   */\n      tag_175\n      jump\t// in\n    tag_274:\n        /* \"#utility.yul\":5192:5255   */\n      swap3\n      pop\n        /* \"#utility.yul\":5148:5265   */\n      pop\n        /* \"#utility.yul\":5304:5306   */\n      0x20\n        /* \"#utility.yul\":5330:5383   */\n      tag_275\n        /* \"#utility.yul\":5375:5382   */\n      dup6\n        /* \"#utility.yul\":5366:5372   */\n      dup3\n        /* \"#utility.yul\":5355:5364   */\n      dup7\n        /* \"#utility.yul\":5351:5373   */\n      add\n        /* \"#utility.yul\":5330:5383   */\n      tag_166\n      jump\t// in\n    tag_275:\n        /* \"#utility.yul\":5320:5383   */\n      swap2\n      pop\n        /* \"#utility.yul\":5275:5393   */\n      pop\n        /* \"#utility.yul\":4926:5400   */\n      swap3\n      pop\n      swap3\n      swap1\n      pop\n      jump\t// out\n        /* \"#utility.yul\":5406:5524   */\n    tag_176:\n        /* \"#utility.yul\":5493:5517   */\n      tag_277\n        /* \"#utility.yul\":5511:5516   */\n      dup2\n        /* \"#utility.yul\":5493:5517   */\n      tag_173\n      jump\t// in\n    tag_277:\n        /* \"#utility.yul\":5488:5491   */\n      dup3\n        /* \"#utility.yul\":5481:5518   */\n      mstore\n        /* \"#utility.yul\":5406:5524   */\n      pop\n      pop\n      jump\t// out\n        /* \"#utility.yul\":5530:5752   */\n    tag_43:\n        /* \"#utility.yul\":5623:5627   */\n      0x00\n        /* \"#utility.yul\":5661:5663   */\n      0x20\n        /* \"#utility.yul\":5650:5659   */\n      dup3\n        /* \"#utility.yul\":5646:5664   */\n      add\n        /* \"#utility.yul\":5638:5664   */\n      swap1\n      pop\n        /* \"#utility.yul\":5674:5745   */\n      tag_279\n        /* \"#utility.yul\":5742:5743   */\n      0x00\n        /* \"#utility.yul\":5731:5740   */\n      dup4\n        /* \"#utility.yul\":5727:5744   */\n      add\n        /* \"#utility.yul\":5718:5724   */\n      dup5\n        /* \"#utility.yul\":5674:5745   */\n      tag_176\n      jump\t// in\n    tag_279:\n        /* \"#utility.yul\":5530:5752   */\n      swap3\n      swap2\n      pop\n      pop\n      jump\t// out\n        /* \"#utility.yul\":5758:6232   */\n    tag_52:\n        /* \"#utility.yul\":5826:5832   */\n      0x00\n        /* \"#utility.yul\":5834:5840   */\n      dup1\n        /* \"#utility.yul\":5883:5885   */\n      0x40\n        /* \"#utility.yul\":5871:5880   */\n      dup4\n        /* \"#utility.yul\":5862:5869   */\n      dup6\n        /* \"#utility.yul\":5858:5881   */\n      sub\n        /* \"#utility.yul\":5854:5886   */\n      slt\n        /* \"#utility.yul\":5851:5970   */\n      iszero\n      tag_281\n      jumpi\n        /* \"#utility.yul\":5889:5968   */\n      tag_282\n      tag_155\n      jump\t// in\n    tag_282:\n        /* \"#utility.yul\":5851:5970   */\n    tag_281:\n        /* \"#utility.yul\":6009:6010   */\n      0x00\n        /* \"#utility.yul\":6034:6087   */\n      tag_283\n        /* \"#utility.yul\":6079:6086   */\n      dup6\n        /* \"#utility.yul\":6070:6076   */\n      dup3\n        /* \"#utility.yul\":6059:6068   */\n      dup7\n        /* \"#utility.yul\":6055:6077   */\n      add\n        /* \"#utility.yul\":6034:6087   */\n      tag_166\n      jump\t// in\n    tag_283:\n        /* \"#utility.yul\":6024:6087   */\n      swap3\n      pop\n        /* \"#utility.yul\":5980:6097   */\n      pop\n        /* \"#utility.yul\":6136:6138   */\n      0x20\n        /* \"#utility.yul\":6162:6215   */\n      tag_284\n        /* \"#utility.yul\":6207:6214   */\n      dup6\n        /* \"#utility.yul\":6198:6204   */\n      dup3\n        /* \"#utility.yul\":6187:6196   */\n      dup7\n        /* \"#utility.yul\":6183:6205   */\n      add\n        /* \"#utility.yul\":6162:6215   */\n      tag_166\n      jump\t// in\n    tag_284:\n        /* \"#utility.yul\":6152:6215   */\n      swap2\n      pop\n        /* \"#utility.yul\":6107:6225   */\n      pop\n        /* \"#utility.yul\":5758:6232   */\n      swap3\n      pop\n      swap3\n      swap1\n      pop\n      jump\t// out\n        /* \"#utility.yul\":6238:6298   */\n    tag_177:\n        /* \"#utility.yul\":6266:6269   */\n      0x00\n        /* \"#utility.yul\":6287:6292   */\n      dup2\n        /* \"#utility.yul\":6280:6292   */\n      swap1\n      pop\n        /* \"#utility.yul\":6238:6298   */\n      swap2\n      swap1\n      pop\n      jump\t// out\n        /* \"#utility.yul\":6304:6446   */\n    tag_178:\n        /* \"#utility.yul\":6354:6363   */\n      0x00\n        /* \"#utility.yul\":6387:6440   */\n      tag_287\n        /* \"#utility.yul\":6405:6439   */\n      tag_288\n        /* \"#utility.yul\":6414:6438   */\n      tag_289\n        /* \"#utility.yul\":6432:6437   */\n      dup5\n        /* \"#utility.yul\":6414:6438   */\n      tag_172\n      jump\t// in\n    tag_289:\n        /* \"#utility.yul\":6405:6439   */\n      tag_177\n      jump\t// in\n    tag_288:\n        /* \"#utility.yul\":6387:6440   */\n      tag_172\n      jump\t// in\n    tag_287:\n        /* \"#utility.yul\":6374:6440   */\n      swap1\n      pop\n        /* \"#utility.yul\":6304:6446   */\n      swap2\n      swap1\n      pop\n      jump\t// out\n        /* \"#utility.yul\":6452:6578   */\n    tag_179:\n        /* \"#utility.yul\":6502:6511   */\n      0x00\n        /* \"#utility.yul\":6535:6572   */\n      tag_291\n        /* \"#utility.yul\":6566:6571   */\n      dup3\n        /* \"#utility.yul\":6535:6572   */\n      tag_178\n      jump\t// in\n    tag_291:\n        /* \"#utility.yul\":6522:6572   */\n      swap1\n      pop\n        /* \"#utility.yul\":6452:6578   */\n      swap2\n      swap1\n      pop\n      jump\t// out\n        /* \"#utility.yul\":6584:6723   */\n    tag_180:\n        /* \"#utility.yul\":6647:6656   */\n      0x00\n        /* \"#utility.yul\":6680:6717   */\n      tag_293\n        /* \"#utility.yul\":6711:6716   */\n      dup3\n        /* \"#utility.yul\":6680:6717   */\n      tag_179\n      jump\t// in\n    tag_293:\n        /* \"#utility.yul\":6667:6717   */\n      swap1\n      pop\n        /* \"#utility.yul\":6584:6723   */\n      swap2\n      swap1\n      pop\n      jump\t// out\n        /* \"#utility.yul\":6729:6886   */\n    tag_181:\n        /* \"#utility.yul\":6829:6879   */\n      tag_295\n        /* \"#utility.yul\":6873:6878   */\n      dup2\n        /* \"#utility.yul\":6829:6879   */\n      tag_180\n      jump\t// in\n    tag_295:\n        /* \"#utility.yul\":6824:6827   */\n      dup3\n        /* \"#utility.yul\":6817:6880   */\n      mstore\n        /* \"#utility.yul\":6729:6886   */\n      pop\n      pop\n      jump\t// out\n        /* \"#utility.yul\":6892:7140   */\n    tag_58:\n        /* \"#utility.yul\":6998:7002   */\n      0x00\n        /* \"#utility.yul\":7036:7038   */\n      0x20\n        /* \"#utility.yul\":7025:7034   */\n      dup3\n        /* \"#utility.yul\":7021:7039   */\n      add\n        /* \"#utility.yul\":7013:7039   */\n      swap1\n      pop\n        /* \"#utility.yul\":7049:7133   */\n      tag_297\n        /* \"#utility.yul\":7130:7131   */\n      0x00\n        /* \"#utility.yul\":7119:7128   */\n      dup4\n        /* \"#utility.yul\":7115:7132   */\n      add\n        /* \"#utility.yul\":7106:7112   */\n      dup5\n        /* \"#utility.yul\":7049:7133   */\n      tag_181\n      jump\t// in\n    tag_297:\n        /* \"#utility.yul\":6892:7140   */\n      swap3\n      swap2\n      pop\n      pop\n      jump\t// out\n        /* \"#utility.yul\":7146:7315   */\n    tag_182:\n        /* \"#utility.yul\":7230:7241   */\n      0x00\n        /* \"#utility.yul\":7264:7270   */\n      dup3\n        /* \"#utility.yul\":7259:7262   */\n      dup3\n        /* \"#utility.yul\":7252:7271   */\n      mstore\n        /* \"#utility.yul\":7304:7308   */\n      0x20\n        /* \"#utility.yul\":7299:7302   */\n      dup3\n        /* \"#utility.yul\":7295:7309   */\n      add\n        /* \"#utility.yul\":7280:7309   */\n      swap1\n      pop\n        /* \"#utility.yul\":7146:7315   */\n      swap3\n      swap2\n      pop\n      pop\n      jump\t// out\n        /* \"#utility.yul\":7321:7493   */\n    tag_183:\n        /* \"#utility.yul\":7461:7485   */\n      0x41206c6f74657269612065737461206665636861646100000000000000000000\n        /* \"#utility.yul\":7457:7458   */\n      0x00\n        /* \"#utility.yul\":7449:7455   */\n      dup3\n        /* \"#utility.yul\":7445:7459   */\n      add\n        /* \"#utility.yul\":7438:7486   */\n      mstore\n        /* \"#utility.yul\":7321:7493   */\n      pop\n      jump\t// out\n        /* \"#utility.yul\":7499:7865   */\n    tag_184:\n        /* \"#utility.yul\":7641:7644   */\n      0x00\n        /* \"#utility.yul\":7662:7729   */\n      tag_301\n        /* \"#utility.yul\":7726:7728   */\n      0x16\n        /* \"#utility.yul\":7721:7724   */\n      dup4\n        /* \"#utility.yul\":7662:7729   */\n      tag_182\n      jump\t// in\n    tag_301:\n        /* \"#utility.yul\":7655:7729   */\n      swap2\n      pop\n        /* \"#utility.yul\":7738:7831   */\n      tag_302\n        /* \"#utility.yul\":7827:7830   */\n      dup3\n        /* \"#utility.yul\":7738:7831   */\n      tag_183\n      jump\t// in\n    tag_302:\n        /* \"#utility.yul\":7856:7858   */\n      0x20\n        /* \"#utility.yul\":7851:7854   */\n      dup3\n        /* \"#utility.yul\":7847:7859   */\n      add\n        /* \"#utility.yul\":7840:7859   */\n      swap1\n      pop\n        /* \"#utility.yul\":7499:7865   */\n      swap2\n      swap1\n      pop\n      jump\t// out\n        /* \"#utility.yul\":7871:8290   */\n    tag_62:\n        /* \"#utility.yul\":8037:8041   */\n      0x00\n        /* \"#utility.yul\":8075:8077   */\n      0x20\n        /* \"#utility.yul\":8064:8073   */\n      dup3\n        /* \"#utility.yul\":8060:8078   */\n      add\n        /* \"#utility.yul\":8052:8078   */\n      swap1\n      pop\n        /* \"#utility.yul\":8124:8133   */\n      dup2\n        /* \"#utility.yul\":8118:8122   */\n      dup2\n        /* \"#utility.yul\":8114:8134   */\n      sub\n        /* \"#utility.yul\":8110:8111   */\n      0x00\n        /* \"#utility.yul\":8099:8108   */\n      dup4\n        /* \"#utility.yul\":8095:8112   */\n      add\n        /* \"#utility.yul\":8088:8135   */\n      mstore\n        /* \"#utility.yul\":8152:8283   */\n      tag_304\n        /* \"#utility.yul\":8278:8282   */\n      dup2\n        /* \"#utility.yul\":8152:8283   */\n      tag_184\n      jump\t// in\n    tag_304:\n        /* \"#utility.yul\":8144:8283   */\n      swap1\n      pop\n        /* \"#utility.yul\":7871:8290   */\n      swap2\n      swap1\n      pop\n      jump\t// out\n        /* \"#utility.yul\":8296:8521   */\n    tag_185:\n        /* \"#utility.yul\":8436:8470   */\n      0x566f6365206465766520636f6d707261722070656c6f206d656e6f7320756d20\n        /* \"#utility.yul\":8432:8433   */\n      0x00\n        /* \"#utility.yul\":8424:8430   */\n      dup3\n        /* \"#utility.yul\":8420:8434   */\n      add\n        /* \"#utility.yul\":8413:8471   */\n      mstore\n        /* \"#utility.yul\":8505:8513   */\n      0x6e756d65726f0000000000000000000000000000000000000000000000000000\n        /* \"#utility.yul\":8500:8502   */\n      0x20\n        /* \"#utility.yul\":8492:8498   */\n      dup3\n        /* \"#utility.yul\":8488:8503   */\n      add\n        /* \"#utility.yul\":8481:8514   */\n      mstore\n        /* \"#utility.yul\":8296:8521   */\n      pop\n      jump\t// out\n        /* \"#utility.yul\":8527:8893   */\n    tag_186:\n        /* \"#utility.yul\":8669:8672   */\n      0x00\n        /* \"#utility.yul\":8690:8757   */\n      tag_307\n        /* \"#utility.yul\":8754:8756   */\n      0x26\n        /* \"#utility.yul\":8749:8752   */\n      dup4\n        /* \"#utility.yul\":8690:8757   */\n      tag_182\n      jump\t// in\n    tag_307:\n        /* \"#utility.yul\":8683:8757   */\n      swap2\n      pop\n        /* \"#utility.yul\":8766:8859   */\n      tag_308\n        /* \"#utility.yul\":8855:8858   */\n      dup3\n        /* \"#utility.yul\":8766:8859   */\n      tag_185\n      jump\t// in\n    tag_308:\n        /* \"#utility.yul\":8884:8886   */\n      0x40\n        /* \"#utility.yul\":8879:8882   */\n      dup3\n        /* \"#utility.yul\":8875:8887   */\n      add\n        /* \"#utility.yul\":8868:8887   */\n      swap1\n      pop\n        /* \"#utility.yul\":8527:8893   */\n      swap2\n      swap1\n      pop\n      jump\t// out\n        /* \"#utility.yul\":8899:9318   */\n    tag_65:\n        /* \"#utility.yul\":9065:9069   */\n      0x00\n        /* \"#utility.yul\":9103:9105   */\n      0x20\n        /* \"#utility.yul\":9092:9101   */\n      dup3\n        /* \"#utility.yul\":9088:9106   */\n      add\n        /* \"#utility.yul\":9080:9106   */\n      swap1\n      pop\n        /* \"#utility.yul\":9152:9161   */\n      dup2\n        /* \"#utility.yul\":9146:9150   */\n      dup2\n        /* \"#utility.yul\":9142:9162   */\n      sub\n        /* \"#utility.yul\":9138:9139   */\n      0x00\n        /* \"#utility.yul\":9127:9136   */\n      dup4\n        /* \"#utility.yul\":9123:9140   */\n      add\n        /* \"#utility.yul\":9116:9163   */\n      mstore\n        /* \"#utility.yul\":9180:9311   */\n      tag_310\n        /* \"#utility.yul\":9306:9310   */\n      dup2\n        /* \"#utility.yul\":9180:9311   */\n      tag_186\n      jump\t// in\n    tag_310:\n        /* \"#utility.yul\":9172:9311   */\n      swap1\n      pop\n        /* \"#utility.yul\":8899:9318   */\n      swap2\n      swap1\n      pop\n      jump\t// out\n        /* \"#utility.yul\":9324:9504   */\n    tag_187:\n        /* \"#utility.yul\":9372:9449   */\n      0x4e487b7100000000000000000000000000000000000000000000000000000000\n        /* \"#utility.yul\":9369:9370   */\n      0x00\n        /* \"#utility.yul\":9362:9450   */\n      mstore\n        /* \"#utility.yul\":9469:9473   */\n      0x11\n        /* \"#utility.yul\":9466:9467   */\n      0x04\n        /* \"#utility.yul\":9459:9474   */\n      mstore\n        /* \"#utility.yul\":9493:9497   */\n      0x24\n        /* \"#utility.yul\":9490:9491   */\n      0x00\n        /* \"#utility.yul\":9483:9498   */\n      revert\n        /* \"#utility.yul\":9510:9920   */\n    tag_67:\n        /* \"#utility.yul\":9550:9557   */\n      0x00\n        /* \"#utility.yul\":9573:9593   */\n      tag_313\n        /* \"#utility.yul\":9591:9592   */\n      dup3\n        /* \"#utility.yul\":9573:9593   */\n      tag_164\n      jump\t// in\n    tag_313:\n        /* \"#utility.yul\":9568:9593   */\n      swap2\n      pop\n        /* \"#utility.yul\":9607:9627   */\n      tag_314\n        /* \"#utility.yul\":9625:9626   */\n      dup4\n        /* \"#utility.yul\":9607:9627   */\n      tag_164\n      jump\t// in\n    tag_314:\n        /* \"#utility.yul\":9602:9627   */\n      swap3\n      pop\n        /* \"#utility.yul\":9662:9663   */\n      dup3\n        /* \"#utility.yul\":9659:9660   */\n      dup3\n        /* \"#utility.yul\":9655:9664   */\n      mul\n        /* \"#utility.yul\":9684:9714   */\n      tag_315\n        /* \"#utility.yul\":9702:9713   */\n      dup2\n        /* \"#utility.yul\":9684:9714   */\n      tag_164\n      jump\t// in\n    tag_315:\n        /* \"#utility.yul\":9673:9714   */\n      swap2\n      pop\n        /* \"#utility.yul\":9863:9864   */\n      dup3\n        /* \"#utility.yul\":9854:9861   */\n      dup3\n        /* \"#utility.yul\":9850:9865   */\n      div\n        /* \"#utility.yul\":9847:9848   */\n      dup5\n        /* \"#utility.yul\":9844:9866   */\n      eq\n        /* \"#utility.yul\":9824:9825   */\n      dup4\n        /* \"#utility.yul\":9817:9826   */\n      iszero\n        /* \"#utility.yul\":9797:9880   */\n      or\n        /* \"#utility.yul\":9774:9913   */\n      tag_316\n      jumpi\n        /* \"#utility.yul\":9893:9911   */\n      tag_317\n      tag_187\n      jump\t// in\n    tag_317:\n        /* \"#utility.yul\":9774:9913   */\n    tag_316:\n        /* \"#utility.yul\":9558:9920   */\n      pop\n        /* \"#utility.yul\":9510:9920   */\n      swap3\n      swap2\n      pop\n      pop\n      jump\t// out\n        /* \"#utility.yul\":9926:10368   */\n    tag_69:\n        /* \"#utility.yul\":10075:10079   */\n      0x00\n        /* \"#utility.yul\":10113:10115   */\n      0x60\n        /* \"#utility.yul\":10102:10111   */\n      dup3\n        /* \"#utility.yul\":10098:10116   */\n      add\n        /* \"#utility.yul\":10090:10116   */\n      swap1\n      pop\n        /* \"#utility.yul\":10126:10197   */\n      tag_319\n        /* \"#utility.yul\":10194:10195   */\n      0x00\n        /* \"#utility.yul\":10183:10192   */\n      dup4\n        /* \"#utility.yul\":10179:10196   */\n      add\n        /* \"#utility.yul\":10170:10176   */\n      dup7\n        /* \"#utility.yul\":10126:10197   */\n      tag_176\n      jump\t// in\n    tag_319:\n        /* \"#utility.yul\":10207:10279   */\n      tag_320\n        /* \"#utility.yul\":10275:10277   */\n      0x20\n        /* \"#utility.yul\":10264:10273   */\n      dup4\n        /* \"#utility.yul\":10260:10278   */\n      add\n        /* \"#utility.yul\":10251:10257   */\n      dup6\n        /* \"#utility.yul\":10207:10279   */\n      tag_176\n      jump\t// in\n    tag_320:\n        /* \"#utility.yul\":10289:10361   */\n      tag_321\n        /* \"#utility.yul\":10357:10359   */\n      0x40\n        /* \"#utility.yul\":10346:10355   */\n      dup4\n        /* \"#utility.yul\":10342:10360   */\n      add\n        /* \"#utility.yul\":10333:10339   */\n      dup5\n        /* \"#utility.yul\":10289:10361   */\n      tag_169\n      jump\t// in\n    tag_321:\n        /* \"#utility.yul\":9926:10368   */\n      swap5\n      swap4\n      pop\n      pop\n      pop\n      pop\n      jump\t// out\n        /* \"#utility.yul\":10374:10490   */\n    tag_188:\n        /* \"#utility.yul\":10444:10465   */\n      tag_323\n        /* \"#utility.yul\":10459:10464   */\n      dup2\n        /* \"#utility.yul\":10444:10465   */\n      tag_170\n      jump\t// in\n    tag_323:\n        /* \"#utility.yul\":10437:10442   */\n      dup2\n        /* \"#utility.yul\":10434:10466   */\n      eq\n        /* \"#utility.yul\":10424:10484   */\n      tag_324\n      jumpi\n        /* \"#utility.yul\":10480:10481   */\n      0x00\n        /* \"#utility.yul\":10477:10478   */\n      dup1\n        /* \"#utility.yul\":10470:10482   */\n      revert\n        /* \"#utility.yul\":10424:10484   */\n    tag_324:\n        /* \"#utility.yul\":10374:10490   */\n      pop\n      jump\t// out\n        /* \"#utility.yul\":10496:10633   */\n    tag_189:\n        /* \"#utility.yul\":10550:10555   */\n      0x00\n        /* \"#utility.yul\":10581:10587   */\n      dup2\n        /* \"#utility.yul\":10575:10588   */\n      mload\n        /* \"#utility.yul\":10566:10588   */\n      swap1\n      pop\n        /* \"#utility.yul\":10597:10627   */\n      tag_326\n        /* \"#utility.yul\":10621:10626   */\n      dup2\n        /* \"#utility.yul\":10597:10627   */\n      tag_188\n      jump\t// in\n    tag_326:\n        /* \"#utility.yul\":10496:10633   */\n      swap3\n      swap2\n      pop\n      pop\n      jump\t// out\n        /* \"#utility.yul\":10639:10984   */\n    tag_73:\n        /* \"#utility.yul\":10706:10712   */\n      0x00\n        /* \"#utility.yul\":10755:10757   */\n      0x20\n        /* \"#utility.yul\":10743:10752   */\n      dup3\n        /* \"#utility.yul\":10734:10741   */\n      dup5\n        /* \"#utility.yul\":10730:10753   */\n      sub\n        /* \"#utility.yul\":10726:10758   */\n      slt\n        /* \"#utility.yul\":10723:10842   */\n      iszero\n      tag_328\n      jumpi\n        /* \"#utility.yul\":10761:10840   */\n      tag_329\n      tag_155\n      jump\t// in\n    tag_329:\n        /* \"#utility.yul\":10723:10842   */\n    tag_328:\n        /* \"#utility.yul\":10881:10882   */\n      0x00\n        /* \"#utility.yul\":10906:10967   */\n      tag_330\n        /* \"#utility.yul\":10959:10966   */\n      dup5\n        /* \"#utility.yul\":10950:10956   */\n      dup3\n        /* \"#utility.yul\":10939:10948   */\n      dup6\n        /* \"#utility.yul\":10935:10957   */\n      add\n        /* \"#utility.yul\":10906:10967   */\n      tag_189\n      jump\t// in\n    tag_330:\n        /* \"#utility.yul\":10896:10967   */\n      swap2\n      pop\n        /* \"#utility.yul\":10852:10977   */\n      pop\n        /* \"#utility.yul\":10639:10984   */\n      swap3\n      swap2\n      pop\n      pop\n      jump\t// out\n        /* \"#utility.yul\":10990:11170   */\n    tag_190:\n        /* \"#utility.yul\":11130:11162   */\n      0x5472616e73666572656e63696120646520746f6b656e732066616c686f750000\n        /* \"#utility.yul\":11126:11127   */\n      0x00\n        /* \"#utility.yul\":11118:11124   */\n      dup3\n        /* \"#utility.yul\":11114:11128   */\n      add\n        /* \"#utility.yul\":11107:11163   */\n      mstore\n        /* \"#utility.yul\":10990:11170   */\n      pop\n      jump\t// out\n        /* \"#utility.yul\":11176:11542   */\n    tag_191:\n        /* \"#utility.yul\":11318:11321   */\n      0x00\n        /* \"#utility.yul\":11339:11406   */\n      tag_333\n        /* \"#utility.yul\":11403:11405   */\n      0x1e\n        /* \"#utility.yul\":11398:11401   */\n      dup4\n        /* \"#utility.yul\":11339:11406   */\n      tag_182\n      jump\t// in\n    tag_333:\n        /* \"#utility.yul\":11332:11406   */\n      swap2\n      pop\n        /* \"#utility.yul\":11415:11508   */\n      tag_334\n        /* \"#utility.yul\":11504:11507   */\n      dup3\n        /* \"#utility.yul\":11415:11508   */\n      tag_190\n      jump\t// in\n    tag_334:\n        /* \"#utility.yul\":11533:11535   */\n      0x20\n        /* \"#utility.yul\":11528:11531   */\n      dup3\n        /* \"#utility.yul\":11524:11536   */\n      add\n        /* \"#utility.yul\":11517:11536   */\n      swap1\n      pop\n        /* \"#utility.yul\":11176:11542   */\n      swap2\n      swap1\n      pop\n      jump\t// out\n        /* \"#utility.yul\":11548:11967   */\n    tag_76:\n        /* \"#utility.yul\":11714:11718   */\n      0x00\n        /* \"#utility.yul\":11752:11754   */\n      0x20\n        /* \"#utility.yul\":11741:11750   */\n      dup3\n        /* \"#utility.yul\":11737:11755   */\n      add\n        /* \"#utility.yul\":11729:11755   */\n      swap1\n      pop\n        /* \"#utility.yul\":11801:11810   */\n      dup2\n        /* \"#utility.yul\":11795:11799   */\n      dup2\n        /* \"#utility.yul\":11791:11811   */\n      sub\n        /* \"#utility.yul\":11787:11788   */\n      0x00\n        /* \"#utility.yul\":11776:11785   */\n      dup4\n        /* \"#utility.yul\":11772:11789   */\n      add\n        /* \"#utility.yul\":11765:11812   */\n      mstore\n        /* \"#utility.yul\":11829:11960   */\n      tag_336\n        /* \"#utility.yul\":11955:11959   */\n      dup2\n        /* \"#utility.yul\":11829:11960   */\n      tag_191\n      jump\t// in\n    tag_336:\n        /* \"#utility.yul\":11821:11960   */\n      swap1\n      pop\n        /* \"#utility.yul\":11548:11967   */\n      swap2\n      swap1\n      pop\n      jump\t// out\n        /* \"#utility.yul\":11973:12164   */\n    tag_78:\n        /* \"#utility.yul\":12013:12016   */\n      0x00\n        /* \"#utility.yul\":12032:12052   */\n      tag_338\n        /* \"#utility.yul\":12050:12051   */\n      dup3\n        /* \"#utility.yul\":12032:12052   */\n      tag_164\n      jump\t// in\n    tag_338:\n        /* \"#utility.yul\":12027:12052   */\n      swap2\n      pop\n        /* \"#utility.yul\":12066:12086   */\n      tag_339\n        /* \"#utility.yul\":12084:12085   */\n      dup4\n        /* \"#utility.yul\":12066:12086   */\n      tag_164\n      jump\t// in\n    tag_339:\n        /* \"#utility.yul\":12061:12086   */\n      swap3\n      pop\n        /* \"#utility.yul\":12109:12110   */\n      dup3\n        /* \"#utility.yul\":12106:12107   */\n      dup3\n        /* \"#utility.yul\":12102:12111   */\n      add\n        /* \"#utility.yul\":12095:12111   */\n      swap1\n      pop\n        /* \"#utility.yul\":12130:12133   */\n      dup1\n        /* \"#utility.yul\":12127:12128   */\n      dup3\n        /* \"#utility.yul\":12124:12134   */\n      gt\n        /* \"#utility.yul\":12121:12157   */\n      iszero\n      tag_340\n      jumpi\n        /* \"#utility.yul\":12137:12155   */\n      tag_341\n      tag_187\n      jump\t// in\n    tag_341:\n        /* \"#utility.yul\":12121:12157   */\n    tag_340:\n        /* \"#utility.yul\":11973:12164   */\n      swap3\n      swap2\n      pop\n      pop\n      jump\t// out\n        /* \"#utility.yul\":12170:12350   */\n    tag_84:\n        /* \"#utility.yul\":12218:12295   */\n      0x4e487b7100000000000000000000000000000000000000000000000000000000\n        /* \"#utility.yul\":12215:12216   */\n      0x00\n        /* \"#utility.yul\":12208:12296   */\n      mstore\n        /* \"#utility.yul\":12315:12319   */\n      0x32\n        /* \"#utility.yul\":12312:12313   */\n      0x04\n        /* \"#utility.yul\":12305:12320   */\n      mstore\n        /* \"#utility.yul\":12339:12343   */\n      0x24\n        /* \"#utility.yul\":12336:12337   */\n      0x00\n        /* \"#utility.yul\":12329:12344   */\n      revert\n        /* \"#utility.yul\":12356:12589   */\n    tag_90:\n        /* \"#utility.yul\":12395:12398   */\n      0x00\n        /* \"#utility.yul\":12418:12442   */\n      tag_344\n        /* \"#utility.yul\":12436:12441   */\n      dup3\n        /* \"#utility.yul\":12418:12442   */\n      tag_164\n      jump\t// in\n    tag_344:\n        /* \"#utility.yul\":12409:12442   */\n      swap2\n      pop\n        /* \"#utility.yul\":12464:12530   */\n      0xffffffffffffffffffffffffffffffffffffffffffffffffffffffffffffffff\n        /* \"#utility.yul\":12457:12462   */\n      dup3\n        /* \"#utility.yul\":12454:12531   */\n      sub\n        /* \"#utility.yul\":12451:12554   */\n      tag_345\n      jumpi\n        /* \"#utility.yul\":12534:12552   */\n      tag_346\n      tag_187\n      jump\t// in\n    tag_346:\n        /* \"#utility.yul\":12451:12554   */\n    tag_345:\n        /* \"#utility.yul\":12581:12582   */\n      0x01\n        /* \"#utility.yul\":12574:12579   */\n      dup3\n        /* \"#utility.yul\":12570:12583   */\n      add\n        /* \"#utility.yul\":12563:12583   */\n      swap1\n      pop\n        /* \"#utility.yul\":12356:12589   */\n      swap2\n      swap1\n      pop\n      jump\t// out\n        /* \"#utility.yul\":12595:12709   */\n    tag_192:\n        /* \"#utility.yul\":12662:12668   */\n      0x00\n        /* \"#utility.yul\":12696:12701   */\n      dup2\n        /* \"#utility.yul\":12690:12702   */\n      mload\n        /* \"#utility.yul\":12680:12702   */\n      swap1\n      pop\n        /* \"#utility.yul\":12595:12709   */\n      swap2\n      swap1\n      pop\n      jump\t// out\n        /* \"#utility.yul\":12715:12899   */\n    tag_193:\n        /* \"#utility.yul\":12814:12825   */\n      0x00\n        /* \"#utility.yul\":12848:12854   */\n      dup3\n        /* \"#utility.yul\":12843:12846   */\n      dup3\n        /* \"#utility.yul\":12836:12855   */\n      mstore\n        /* \"#utility.yul\":12888:12892   */\n      0x20\n        /* \"#utility.yul\":12883:12886   */\n      dup3\n        /* \"#utility.yul\":12879:12893   */\n      add\n        /* \"#utility.yul\":12864:12893   */\n      swap1\n      pop\n        /* \"#utility.yul\":12715:12899   */\n      swap3\n      swap2\n      pop\n      pop\n      jump\t// out\n        /* \"#utility.yul\":12905:13037   */\n    tag_194:\n        /* \"#utility.yul\":12972:12976   */\n      0x00\n        /* \"#utility.yul\":12995:12998   */\n      dup2\n        /* \"#utility.yul\":12987:12998   */\n      swap1\n      pop\n        /* \"#utility.yul\":13025:13029   */\n      0x20\n        /* \"#utility.yul\":13020:13023   */\n      dup3\n        /* \"#utility.yul\":13016:13030   */\n      add\n        /* \"#utility.yul\":13008:13030   */\n      swap1\n      pop\n        /* \"#utility.yul\":12905:13037   */\n      swap2\n      swap1\n      pop\n      jump\t// out\n        /* \"#utility.yul\":13043:13151   */\n    tag_195:\n        /* \"#utility.yul\":13120:13144   */\n      tag_351\n        /* \"#utility.yul\":13138:13143   */\n      dup2\n        /* \"#utility.yul\":13120:13144   */\n      tag_164\n      jump\t// in\n    tag_351:\n        /* \"#utility.yul\":13115:13118   */\n      dup3\n        /* \"#utility.yul\":13108:13145   */\n      mstore\n        /* \"#utility.yul\":13043:13151   */\n      pop\n      pop\n      jump\t// out\n        /* \"#utility.yul\":13157:13336   */\n    tag_196:\n        /* \"#utility.yul\":13226:13236   */\n      0x00\n        /* \"#utility.yul\":13247:13293   */\n      tag_353\n        /* \"#utility.yul\":13289:13292   */\n      dup4\n        /* \"#utility.yul\":13281:13287   */\n      dup4\n        /* \"#utility.yul\":13247:13293   */\n      tag_195\n      jump\t// in\n    tag_353:\n        /* \"#utility.yul\":13325:13329   */\n      0x20\n        /* \"#utility.yul\":13320:13323   */\n      dup4\n        /* \"#utility.yul\":13316:13330   */\n      add\n        /* \"#utility.yul\":13302:13330   */\n      swap1\n      pop\n        /* \"#utility.yul\":13157:13336   */\n      swap3\n      swap2\n      pop\n      pop\n      jump\t// out\n        /* \"#utility.yul\":13342:13455   */\n    tag_197:\n        /* \"#utility.yul\":13412:13416   */\n      0x00\n        /* \"#utility.yul\":13444:13448   */\n      0x20\n        /* \"#utility.yul\":13439:13442   */\n      dup3\n        /* \"#utility.yul\":13435:13449   */\n      add\n        /* \"#utility.yul\":13427:13449   */\n      swap1\n      pop\n        /* \"#utility.yul\":13342:13455   */\n      swap2\n      swap1\n      pop\n      jump\t// out\n        /* \"#utility.yul\":13491:14223   */\n    tag_198:\n        /* \"#utility.yul\":13610:13613   */\n      0x00\n        /* \"#utility.yul\":13639:13693   */\n      tag_356\n        /* \"#utility.yul\":13687:13692   */\n      dup3\n        /* \"#utility.yul\":13639:13693   */\n      tag_192\n      jump\t// in\n    tag_356:\n        /* \"#utility.yul\":13709:13795   */\n      tag_357\n        /* \"#utility.yul\":13788:13794   */\n      dup2\n        /* \"#utility.yul\":13783:13786   */\n      dup6\n        /* \"#utility.yul\":13709:13795   */\n      tag_193\n      jump\t// in\n    tag_357:\n        /* \"#utility.yul\":13702:13795   */\n      swap4\n      pop\n        /* \"#utility.yul\":13819:13875   */\n      tag_358\n        /* \"#utility.yul\":13869:13874   */\n      dup4\n        /* \"#utility.yul\":13819:13875   */\n      tag_194\n      jump\t// in\n    tag_358:\n        /* \"#utility.yul\":13898:13905   */\n      dup1\n        /* \"#utility.yul\":13929:13930   */\n      0x00\n        /* \"#utility.yul\":13914:14198   */\n    tag_359:\n        /* \"#utility.yul\":13939:13945   */\n      dup4\n        /* \"#utility.yul\":13936:13937   */\n      dup2\n        /* \"#utility.yul\":13933:13946   */\n      lt\n        /* \"#utility.yul\":13914:14198   */\n      iszero\n      tag_361\n      jumpi\n        /* \"#utility.yul\":14015:14021   */\n      dup2\n        /* \"#utility.yul\":14009:14022   */\n      mload\n        /* \"#utility.yul\":14042:14105   */\n      tag_362\n        /* \"#utility.yul\":14101:14104   */\n      dup9\n        /* \"#utility.yul\":14086:14099   */\n      dup3\n        /* \"#utility.yul\":14042:14105   */\n      tag_196\n      jump\t// in\n    tag_362:\n        /* \"#utility.yul\":14035:14105   */\n      swap8\n      pop\n        /* \"#utility.yul\":14128:14188   */\n      tag_363\n        /* \"#utility.yul\":14181:14187   */\n      dup4\n        /* \"#utility.yul\":14128:14188   */\n      tag_197\n      jump\t// in\n    tag_363:\n        /* \"#utility.yul\":14118:14188   */\n      swap3\n      pop\n        /* \"#utility.yul\":13974:14198   */\n      pop\n        /* \"#utility.yul\":13961:13962   */\n      0x01\n        /* \"#utility.yul\":13958:13959   */\n      dup2\n        /* \"#utility.yul\":13954:13963   */\n      add\n        /* \"#utility.yul\":13949:13963   */\n      swap1\n      pop\n        /* \"#utility.yul\":13914:14198   */\n      jump(tag_359)\n    tag_361:\n        /* \"#utility.yul\":13918:13932   */\n      pop\n        /* \"#utility.yul\":14214:14217   */\n      dup6\n        /* \"#utility.yul\":14207:14217   */\n      swap4\n      pop\n        /* \"#utility.yul\":13615:14223   */\n      pop\n      pop\n      pop\n        /* \"#utility.yul\":13491:14223   */\n      swap3\n      swap2\n      pop\n      pop\n      jump\t// out\n        /* \"#utility.yul\":14229:14602   */\n    tag_92:\n        /* \"#utility.yul\":14372:14376   */\n      0x00\n        /* \"#utility.yul\":14410:14412   */\n      0x20\n        /* \"#utility.yul\":14399:14408   */\n      dup3\n        /* \"#utility.yul\":14395:14413   */\n      add\n        /* \"#utility.yul\":14387:14413   */\n      swap1\n      pop\n        /* \"#utility.yul\":14459:14468   */\n      dup2\n        /* \"#utility.yul\":14453:14457   */\n      dup2\n        /* \"#utility.yul\":14449:14469   */\n      sub\n        /* \"#utility.yul\":14445:14446   */\n      0x00\n        /* \"#utility.yul\":14434:14443   */\n      dup4\n        /* \"#utility.yul\":14430:14447   */\n      add\n        /* \"#utility.yul\":14423:14470   */\n      mstore\n        /* \"#utility.yul\":14487:14595   */\n      tag_365\n        /* \"#utility.yul\":14590:14594   */\n      dup2\n        /* \"#utility.yul\":14581:14587   */\n      dup5\n        /* \"#utility.yul\":14487:14595   */\n      tag_198\n      jump\t// in\n    tag_365:\n        /* \"#utility.yul\":14479:14595   */\n      swap1\n      pop\n        /* \"#utility.yul\":14229:14602   */\n      swap3\n      swap2\n      pop\n      pop\n      jump\t// out\n        /* \"#utility.yul\":14608:14833   */\n    tag_199:\n        /* \"#utility.yul\":14748:14782   */\n      0x536f6d656e7465206f20646f6e6f20706f6465206368616d6172206573736120\n        /* \"#utility.yul\":14744:14745   */\n      0x00\n        /* \"#utility.yul\":14736:14742   */\n      dup3\n        /* \"#utility.yul\":14732:14746   */\n      add\n        /* \"#utility.yul\":14725:14783   */\n      mstore\n        /* \"#utility.yul\":14817:14825   */\n      0x66756e63616f0000000000000000000000000000000000000000000000000000\n        /* \"#utility.yul\":14812:14814   */\n      0x20\n        /* \"#utility.yul\":14804:14810   */\n      dup3\n        /* \"#utility.yul\":14800:14815   */\n      add\n        /* \"#utility.yul\":14793:14826   */\n      mstore\n        /* \"#utility.yul\":14608:14833   */\n      pop\n      jump\t// out\n        /* \"#utility.yul\":14839:15205   */\n    tag_200:\n        /* \"#utility.yul\":14981:14984   */\n      0x00\n        /* \"#utility.yul\":15002:15069   */\n      tag_368\n        /* \"#utility.yul\":15066:15068   */\n      0x26\n        /* \"#utility.yul\":15061:15064   */\n      dup4\n        /* \"#utility.yul\":15002:15069   */\n      tag_182\n      jump\t// in\n    tag_368:\n        /* \"#utility.yul\":14995:15069   */\n      swap2\n      pop\n        /* \"#utility.yul\":15078:15171   */\n      tag_369\n        /* \"#utility.yul\":15167:15170   */\n      dup3\n        /* \"#utility.yul\":15078:15171   */\n      tag_199\n      jump\t// in\n    tag_369:\n        /* \"#utility.yul\":15196:15198   */\n      0x40\n        /* \"#utility.yul\":15191:15194   */\n      dup3\n        /* \"#utility.yul\":15187:15199   */\n      add\n        /* \"#utility.yul\":15180:15199   */\n      swap1\n      pop\n        /* \"#utility.yul\":14839:15205   */\n      swap2\n      swap1\n      pop\n      jump\t// out\n        /* \"#utility.yul\":15211:15630   */\n    tag_96:\n        /* \"#utility.yul\":15377:15381   */\n      0x00\n        /* \"#utility.yul\":15415:15417   */\n      0x20\n        /* \"#utility.yul\":15404:15413   */\n      dup3\n        /* \"#utility.yul\":15400:15418   */\n      add\n        /* \"#utility.yul\":15392:15418   */\n      swap1\n      pop\n        /* \"#utility.yul\":15464:15473   */\n      dup2\n        /* \"#utility.yul\":15458:15462   */\n      dup2\n        /* \"#utility.yul\":15454:15474   */\n      sub\n        /* \"#utility.yul\":15450:15451   */\n      0x00\n        /* \"#utility.yul\":15439:15448   */\n      dup4\n        /* \"#utility.yul\":15435:15452   */\n      add\n        /* \"#utility.yul\":15428:15475   */\n      mstore\n        /* \"#utility.yul\":15492:15623   */\n      tag_371\n        /* \"#utility.yul\":15618:15622   */\n      dup2\n        /* \"#utility.yul\":15492:15623   */\n      tag_200\n      jump\t// in\n    tag_371:\n        /* \"#utility.yul\":15484:15623   */\n      swap1\n      pop\n        /* \"#utility.yul\":15211:15630   */\n      swap2\n      swap1\n      pop\n      jump\t// out\n        /* \"#utility.yul\":15636:15810   */\n    tag_201:\n        /* \"#utility.yul\":15776:15802   */\n      0x41206c6f7465726961206a612065737461206162657274610000000000000000\n        /* \"#utility.yul\":15772:15773   */\n      0x00\n        /* \"#utility.yul\":15764:15770   */\n      dup3\n        /* \"#utility.yul\":15760:15774   */\n      add\n        /* \"#utility.yul\":15753:15803   */\n      mstore\n        /* \"#utility.yul\":15636:15810   */\n      pop\n      jump\t// out\n        /* \"#utility.yul\":15816:16182   */\n    tag_202:\n        /* \"#utility.yul\":15958:15961   */\n      0x00\n        /* \"#utility.yul\":15979:16046   */\n      tag_374\n        /* \"#utility.yul\":16043:16045   */\n      0x18\n        /* \"#utility.yul\":16038:16041   */\n      dup4\n        /* \"#utility.yul\":15979:16046   */\n      tag_182\n      jump\t// in\n    tag_374:\n        /* \"#utility.yul\":15972:16046   */\n      swap2\n      pop\n        /* \"#utility.yul\":16055:16148   */\n      tag_375\n        /* \"#utility.yul\":16144:16147   */\n      dup3\n        /* \"#utility.yul\":16055:16148   */\n      tag_201\n      jump\t// in\n    tag_375:\n        /* \"#utility.yul\":16173:16175   */\n      0x20\n        /* \"#utility.yul\":16168:16171   */\n      dup3\n        /* \"#utility.yul\":16164:16176   */\n      add\n        /* \"#utility.yul\":16157:16176   */\n      swap1\n      pop\n        /* \"#utility.yul\":15816:16182   */\n      swap2\n      swap1\n      pop\n      jump\t// out\n        /* \"#utility.yul\":16188:16607   */\n    tag_100:\n        /* \"#utility.yul\":16354:16358   */\n      0x00\n        /* \"#utility.yul\":16392:16394   */\n      0x20\n        /* \"#utility.yul\":16381:16390   */\n      dup3\n        /* \"#utility.yul\":16377:16395   */\n      add\n        /* \"#utility.yul\":16369:16395   */\n      swap1\n      pop\n        /* \"#utility.yul\":16441:16450   */\n      dup2\n        /* \"#utility.yul\":16435:16439   */\n      dup2\n        /* \"#utility.yul\":16431:16451   */\n      sub\n        /* \"#utility.yul\":16427:16428   */\n      0x00\n        /* \"#utility.yul\":16416:16425   */\n      dup4\n        /* \"#utility.yul\":16412:16429   */\n      add\n        /* \"#utility.yul\":16405:16452   */\n      mstore\n        /* \"#utility.yul\":16469:16600   */\n      tag_377\n        /* \"#utility.yul\":16595:16599   */\n      dup2\n        /* \"#utility.yul\":16469:16600   */\n      tag_202\n      jump\t// in\n    tag_377:\n        /* \"#utility.yul\":16461:16600   */\n      swap1\n      pop\n        /* \"#utility.yul\":16188:16607   */\n      swap2\n      swap1\n      pop\n      jump\t// out\n        /* \"#utility.yul\":16613:16787   */\n    tag_203:\n        /* \"#utility.yul\":16753:16779   */\n      0x41206c6f7465726961206e616f2074656d2066756e646f730000000000000000\n        /* \"#utility.yul\":16749:16750   */\n      0x00\n        /* \"#utility.yul\":16741:16747   */\n      dup3\n        /* \"#utility.yul\":16737:16751   */\n      add\n        /* \"#utility.yul\":16730:16780   */\n      mstore\n        /* \"#utility.yul\":16613:16787   */\n      pop\n      jump\t// out\n        /* \"#utility.yul\":16793:17159   */\n    tag_204:\n        /* \"#utility.yul\":16935:16938   */\n      0x00\n        /* \"#utility.yul\":16956:17023   */\n      tag_380\n        /* \"#utility.yul\":17020:17022   */\n      0x18\n        /* \"#utility.yul\":17015:17018   */\n      dup4\n        /* \"#utility.yul\":16956:17023   */\n      tag_182\n      jump\t// in\n    tag_380:\n        /* \"#utility.yul\":16949:17023   */\n      swap2\n      pop\n        /* \"#utility.yul\":17032:17125   */\n      tag_381\n        /* \"#utility.yul\":17121:17124   */\n      dup3\n        /* \"#utility.yul\":17032:17125   */\n      tag_203\n      jump\t// in\n    tag_381:\n        /* \"#utility.yul\":17150:17152   */\n      0x20\n        /* \"#utility.yul\":17145:17148   */\n      dup3\n        /* \"#utility.yul\":17141:17153   */\n      add\n        /* \"#utility.yul\":17134:17153   */\n      swap1\n      pop\n        /* \"#utility.yul\":16793:17159   */\n      swap2\n      swap1\n      pop\n      jump\t// out\n        /* \"#utility.yul\":17165:17584   */\n    tag_111:\n        /* \"#utility.yul\":17331:17335   */\n      0x00\n        /* \"#utility.yul\":17369:17371   */\n      0x20\n        /* \"#utility.yul\":17358:17367   */\n      dup3\n        /* \"#utility.yul\":17354:17372   */\n      add\n        /* \"#utility.yul\":17346:17372   */\n      swap1\n      pop\n        /* \"#utility.yul\":17418:17427   */\n      dup2\n        /* \"#utility.yul\":17412:17416   */\n      dup2\n        /* \"#utility.yul\":17408:17428   */\n      sub\n        /* \"#utility.yul\":17404:17405   */\n      0x00\n        /* \"#utility.yul\":17393:17402   */\n      dup4\n        /* \"#utility.yul\":17389:17406   */\n      add\n        /* \"#utility.yul\":17382:17429   */\n      mstore\n        /* \"#utility.yul\":17446:17577   */\n      tag_383\n        /* \"#utility.yul\":17572:17576   */\n      dup2\n        /* \"#utility.yul\":17446:17577   */\n      tag_204\n      jump\t// in\n    tag_383:\n        /* \"#utility.yul\":17438:17577   */\n      swap1\n      pop\n        /* \"#utility.yul\":17165:17584   */\n      swap2\n      swap1\n      pop\n      jump\t// out\n        /* \"#utility.yul\":17590:17669   */\n    tag_205:\n        /* \"#utility.yul\":17629:17636   */\n      0x00\n        /* \"#utility.yul\":17658:17663   */\n      dup2\n        /* \"#utility.yul\":17647:17663   */\n      swap1\n      pop\n        /* \"#utility.yul\":17590:17669   */\n      swap2\n      swap1\n      pop\n      jump\t// out\n        /* \"#utility.yul\":17675:17832   */\n    tag_206:\n        /* \"#utility.yul\":17780:17825   */\n      tag_386\n        /* \"#utility.yul\":17800:17824   */\n      tag_387\n        /* \"#utility.yul\":17818:17823   */\n      dup3\n        /* \"#utility.yul\":17800:17824   */\n      tag_164\n      jump\t// in\n    tag_387:\n        /* \"#utility.yul\":17780:17825   */\n      tag_205\n      jump\t// in\n    tag_386:\n        /* \"#utility.yul\":17775:17778   */\n      dup3\n        /* \"#utility.yul\":17768:17826   */\n      mstore\n        /* \"#utility.yul\":17675:17832   */\n      pop\n      pop\n      jump\t// out\n        /* \"#utility.yul\":17838:18376   */\n    tag_113:\n        /* \"#utility.yul\":18006:18009   */\n      0x00\n        /* \"#utility.yul\":18021:18096   */\n      tag_389\n        /* \"#utility.yul\":18092:18095   */\n      dup3\n        /* \"#utility.yul\":18083:18089   */\n      dup7\n        /* \"#utility.yul\":18021:18096   */\n      tag_206\n      jump\t// in\n    tag_389:\n        /* \"#utility.yul\":18121:18123   */\n      0x20\n        /* \"#utility.yul\":18116:18119   */\n      dup3\n        /* \"#utility.yul\":18112:18124   */\n      add\n        /* \"#utility.yul\":18105:18124   */\n      swap2\n      pop\n        /* \"#utility.yul\":18134:18209   */\n      tag_390\n        /* \"#utility.yul\":18205:18208   */\n      dup3\n        /* \"#utility.yul\":18196:18202   */\n      dup6\n        /* \"#utility.yul\":18134:18209   */\n      tag_206\n      jump\t// in\n    tag_390:\n        /* \"#utility.yul\":18234:18236   */\n      0x20\n        /* \"#utility.yul\":18229:18232   */\n      dup3\n        /* \"#utility.yul\":18225:18237   */\n      add\n        /* \"#utility.yul\":18218:18237   */\n      swap2\n      pop\n        /* \"#utility.yul\":18247:18322   */\n      tag_391\n        /* \"#utility.yul\":18318:18321   */\n      dup3\n        /* \"#utility.yul\":18309:18315   */\n      dup5\n        /* \"#utility.yul\":18247:18322   */\n      tag_206\n      jump\t// in\n    tag_391:\n        /* \"#utility.yul\":18347:18349   */\n      0x20\n        /* \"#utility.yul\":18342:18345   */\n      dup3\n        /* \"#utility.yul\":18338:18350   */\n      add\n        /* \"#utility.yul\":18331:18350   */\n      swap2\n      pop\n        /* \"#utility.yul\":18367:18370   */\n      dup2\n        /* \"#utility.yul\":18360:18370   */\n      swap1\n      pop\n        /* \"#utility.yul\":17838:18376   */\n      swap5\n      swap4\n      pop\n      pop\n      pop\n      pop\n      jump\t// out\n        /* \"#utility.yul\":18382:18562   */\n    tag_207:\n        /* \"#utility.yul\":18430:18507   */\n      0x4e487b7100000000000000000000000000000000000000000000000000000000\n        /* \"#utility.yul\":18427:18428   */\n      0x00\n        /* \"#utility.yul\":18420:18508   */\n      mstore\n        /* \"#utility.yul\":18527:18531   */\n      0x12\n        /* \"#utility.yul\":18524:18525   */\n      0x04\n        /* \"#utility.yul\":18517:18532   */\n      mstore\n        /* \"#utility.yul\":18551:18555   */\n      0x24\n        /* \"#utility.yul\":18548:18549   */\n      0x00\n        /* \"#utility.yul\":18541:18556   */\n      revert\n        /* \"#utility.yul\":18568:18744   */\n    tag_115:\n        /* \"#utility.yul\":18600:18601   */\n      0x00\n        /* \"#utility.yul\":18617:18637   */\n      tag_394\n        /* \"#utility.yul\":18635:18636   */\n      dup3\n        /* \"#utility.yul\":18617:18637   */\n      tag_164\n      jump\t// in\n    tag_394:\n        /* \"#utility.yul\":18612:18637   */\n      swap2\n      pop\n        /* \"#utility.yul\":18651:18671   */\n      tag_395\n        /* \"#utility.yul\":18669:18670   */\n      dup4\n        /* \"#utility.yul\":18651:18671   */\n      tag_164\n      jump\t// in\n    tag_395:\n        /* \"#utility.yul\":18646:18671   */\n      swap3\n      pop\n        /* \"#utility.yul\":18690:18691   */\n      dup3\n        /* \"#utility.yul\":18680:18715   */\n      tag_396\n      jumpi\n        /* \"#utility.yul\":18695:18713   */\n      tag_397\n      tag_207\n      jump\t// in\n    tag_397:\n        /* \"#utility.yul\":18680:18715   */\n    tag_396:\n        /* \"#utility.yul\":18736:18737   */\n      dup3\n        /* \"#utility.yul\":18733:18734   */\n      dup3\n        /* \"#utility.yul\":18729:18738   */\n      mod\n        /* \"#utility.yul\":18724:18738   */\n      swap1\n      pop\n        /* \"#utility.yul\":18568:18744   */\n      swap3\n      swap2\n      pop\n      pop\n      jump\t// out\n        /* \"#utility.yul\":18750:18935   */\n    tag_122:\n        /* \"#utility.yul\":18790:18791   */\n      0x00\n        /* \"#utility.yul\":18807:18827   */\n      tag_399\n        /* \"#utility.yul\":18825:18826   */\n      dup3\n        /* \"#utility.yul\":18807:18827   */\n      tag_164\n      jump\t// in\n    tag_399:\n        /* \"#utility.yul\":18802:18827   */\n      swap2\n      pop\n        /* \"#utility.yul\":18841:18861   */\n      tag_400\n        /* \"#utility.yul\":18859:18860   */\n      dup4\n        /* \"#utility.yul\":18841:18861   */\n      tag_164\n      jump\t// in\n    tag_400:\n        /* \"#utility.yul\":18836:18861   */\n      swap3\n      pop\n        /* \"#utility.yul\":18880:18881   */\n      dup3\n        /* \"#utility.yul\":18870:18905   */\n      tag_401\n      jumpi\n        /* \"#utility.yul\":18885:18903   */\n      tag_402\n      tag_207\n      jump\t// in\n    tag_402:\n        /* \"#utility.yul\":18870:18905   */\n    tag_401:\n        /* \"#utility.yul\":18927:18928   */\n      dup3\n        /* \"#utility.yul\":18924:18925   */\n      dup3\n        /* \"#utility.yul\":18920:18929   */\n      div\n        /* \"#utility.yul\":18915:18929   */\n      swap1\n      pop\n        /* \"#utility.yul\":18750:18935   */\n      swap3\n      swap2\n      pop\n      pop\n      jump\t// out\n        /* \"#utility.yul\":18941:19273   */\n    tag_130:\n        /* \"#utility.yul\":19062:19066   */\n      0x00\n        /* \"#utility.yul\":19100:19102   */\n      0x40\n        /* \"#utility.yul\":19089:19098   */\n      dup3\n        /* \"#utility.yul\":19085:19103   */\n      add\n        /* \"#utility.yul\":19077:19103   */\n      swap1\n      pop\n        /* \"#utility.yul\":19113:19184   */\n      tag_404\n        /* \"#utility.yul\":19181:19182   */\n      0x00\n        /* \"#utility.yul\":19170:19179   */\n      dup4\n        /* \"#utility.yul\":19166:19183   */\n      add\n        /* \"#utility.yul\":19157:19163   */\n      dup6\n        /* \"#utility.yul\":19113:19184   */\n      tag_176\n      jump\t// in\n    tag_404:\n        /* \"#utility.yul\":19194:19266   */\n      tag_405\n        /* \"#utility.yul\":19262:19264   */\n      0x20\n        /* \"#utility.yul\":19251:19260   */\n      dup4\n        /* \"#utility.yul\":19247:19265   */\n      add\n        /* \"#utility.yul\":19238:19244   */\n      dup5\n        /* \"#utility.yul\":19194:19266   */\n      tag_169\n      jump\t// in\n    tag_405:\n        /* \"#utility.yul\":18941:19273   */\n      swap4\n      swap3\n      pop\n      pop\n      pop\n      jump\t// out\n        /* \"#utility.yul\":19279:19611   */\n    tag_141:\n        /* \"#utility.yul\":19400:19404   */\n      0x00\n        /* \"#utility.yul\":19438:19440   */\n      0x40\n        /* \"#utility.yul\":19427:19436   */\n      dup3\n        /* \"#utility.yul\":19423:19441   */\n      add\n        /* \"#utility.yul\":19415:19441   */\n      swap1\n      pop\n        /* \"#utility.yul\":19451:19522   */\n      tag_407\n        /* \"#utility.yul\":19519:19520   */\n      0x00\n        /* \"#utility.yul\":19508:19517   */\n      dup4\n        /* \"#utility.yul\":19504:19521   */\n      add\n        /* \"#utility.yul\":19495:19501   */\n      dup6\n        /* \"#utility.yul\":19451:19522   */\n      tag_169\n      jump\t// in\n    tag_407:\n        /* \"#utility.yul\":19532:19604   */\n      tag_408\n        /* \"#utility.yul\":19600:19602   */\n      0x20\n        /* \"#utility.yul\":19589:19598   */\n      dup4\n        /* \"#utility.yul\":19585:19603   */\n      add\n        /* \"#utility.yul\":19576:19582   */\n      dup5\n        /* \"#utility.yul\":19532:19604   */\n      tag_169\n      jump\t// in\n    tag_408:\n        /* \"#utility.yul\":19279:19611   */\n      swap4\n      swap3\n      pop\n      pop\n      pop\n      jump\t// out\n        /* \"#utility.yul\":19617:19702   */\n    tag_208:\n        /* \"#utility.yul\":19662:19669   */\n      0x00\n        /* \"#utility.yul\":19691:19696   */\n      dup2\n        /* \"#utility.yul\":19680:19696   */\n      swap1\n      pop\n        /* \"#utility.yul\":19617:19702   */\n      swap2\n      swap1\n      pop\n      jump\t// out\n        /* \"#utility.yul\":19708:19866   */\n    tag_209:\n        /* \"#utility.yul\":19766:19775   */\n      0x00\n        /* \"#utility.yul\":19799:19860   */\n      tag_411\n        /* \"#utility.yul\":19817:19859   */\n      tag_412\n        /* \"#utility.yul\":19826:19858   */\n      tag_413\n        /* \"#utility.yul\":19852:19857   */\n      dup5\n        /* \"#utility.yul\":19826:19858   */\n      tag_208\n      jump\t// in\n    tag_413:\n        /* \"#utility.yul\":19817:19859   */\n      tag_177\n      jump\t// in\n    tag_412:\n        /* \"#utility.yul\":19799:19860   */\n      tag_164\n      jump\t// in\n    tag_411:\n        /* \"#utility.yul\":19786:19860   */\n      swap1\n      pop\n        /* \"#utility.yul\":19708:19866   */\n      swap2\n      swap1\n      pop\n      jump\t// out\n        /* \"#utility.yul\":19872:20019   */\n    tag_210:\n        /* \"#utility.yul\":19967:20012   */\n      tag_415\n        /* \"#utility.yul\":20006:20011   */\n      dup2\n        /* \"#utility.yul\":19967:20012   */\n      tag_209\n      jump\t// in\n    tag_415:\n        /* \"#utility.yul\":19962:19965   */\n      dup3\n        /* \"#utility.yul\":19955:20013   */\n      mstore\n        /* \"#utility.yul\":19872:20019   */\n      pop\n      pop\n      jump\t// out\n        /* \"#utility.yul\":20025:20373   */\n    tag_144:\n        /* \"#utility.yul\":20154:20158   */\n      0x00\n        /* \"#utility.yul\":20192:20194   */\n      0x40\n        /* \"#utility.yul\":20181:20190   */\n      dup3\n        /* \"#utility.yul\":20177:20195   */\n      add\n        /* \"#utility.yul\":20169:20195   */\n      swap1\n      pop\n        /* \"#utility.yul\":20205:20284   */\n      tag_417\n        /* \"#utility.yul\":20281:20282   */\n      0x00\n        /* \"#utility.yul\":20270:20279   */\n      dup4\n        /* \"#utility.yul\":20266:20283   */\n      add\n        /* \"#utility.yul\":20257:20263   */\n      dup6\n        /* \"#utility.yul\":20205:20284   */\n      tag_210\n      jump\t// in\n    tag_417:\n        /* \"#utility.yul\":20294:20366   */\n      tag_418\n        /* \"#utility.yul\":20362:20364   */\n      0x20\n        /* \"#utility.yul\":20351:20360   */\n      dup4\n        /* \"#utility.yul\":20347:20365   */\n      add\n        /* \"#utility.yul\":20338:20344   */\n      dup5\n        /* \"#utility.yul\":20294:20366   */\n      tag_169\n      jump\t// in\n    tag_418:\n        /* \"#utility.yul\":20025:20373   */\n      swap4\n      swap3\n      pop\n      pop\n      pop\n      jump\t// out\n        /* \"#utility.yul\":20379:20573   */\n    tag_146:\n        /* \"#utility.yul\":20419:20423   */\n      0x00\n        /* \"#utility.yul\":20439:20459   */\n      tag_420\n        /* \"#utility.yul\":20457:20458   */\n      dup3\n        /* \"#utility.yul\":20439:20459   */\n      tag_164\n      jump\t// in\n    tag_420:\n        /* \"#utility.yul\":20434:20459   */\n      swap2\n      pop\n        /* \"#utility.yul\":20473:20493   */\n      tag_421\n        /* \"#utility.yul\":20491:20492   */\n      dup4\n        /* \"#utility.yul\":20473:20493   */\n      tag_164\n      jump\t// in\n    tag_421:\n        /* \"#utility.yul\":20468:20493   */\n      swap3\n      pop\n        /* \"#utility.yul\":20517:20518   */\n      dup3\n        /* \"#utility.yul\":20514:20515   */\n      dup3\n        /* \"#utility.yul\":20510:20519   */\n      sub\n        /* \"#utility.yul\":20502:20519   */\n      swap1\n      pop\n        /* \"#utility.yul\":20541:20542   */\n      dup2\n        /* \"#utility.yul\":20535:20539   */\n      dup2\n        /* \"#utility.yul\":20532:20543   */\n      gt\n        /* \"#utility.yul\":20529:20566   */\n      iszero\n      tag_422\n      jumpi\n        /* \"#utility.yul\":20546:20564   */\n      tag_423\n      tag_187\n      jump\t// in\n    tag_423:\n        /* \"#utility.yul\":20529:20566   */\n    tag_422:\n        /* \"#utility.yul\":20379:20573   */\n      swap3\n      swap2\n      pop\n      pop\n      jump\t// out\n\n    auxdata: 0xa2646970667358221220e139353c7e0d00d848c259b43e433923098abf2e42248f144494f65abc64d52864736f6c63430008120033\n}\n",
				"bytecode": {
					"linkReferences": {},
					"object": "60806040523480156200001157600080fd5b5060405162001a1238038062001a12833981810160405281019062000037919062000187565b336000806101000a81548173ffffffffffffffffffffffffffffffffffffffff021916908373ffffffffffffffffffffffffffffffffffffffff16021790555081600260006101000a81548173ffffffffffffffffffffffffffffffffffffffff021916908373ffffffffffffffffffffffffffffffffffffffff160217905550806003819055506001600660006101000a81548160ff0219169083151502179055505050620001ce565b600080fd5b600073ffffffffffffffffffffffffffffffffffffffff82169050919050565b60006200011482620000e7565b9050919050565b620001268162000107565b81146200013257600080fd5b50565b60008151905062000146816200011b565b92915050565b6000819050919050565b62000161816200014c565b81146200016d57600080fd5b50565b600081519050620001818162000156565b92915050565b60008060408385031215620001a157620001a0620000e2565b5b6000620001b18582860162000135565b9250506020620001c48582860162000170565b9150509250929050565b61183480620001de6000396000f3fe608060405234801561001057600080fd5b50600436106100b45760003560e01c80638ade2ac4116100715780638ade2ac4146101695780638da5cb5b14610173578063b24733e314610191578063d8787a86146101af578063dfe22b5f146101cd578063fc0c546a146101fd576100b4565b80632832ffa4146100b95780632ddbd13a146100d557806350237f72146100f35780636b7bdd0c146101115780636dc4114f1461011b57806376ffe86614610139575b600080fd5b6100d360048036038101906100ce9190610e89565b61021b565b005b6100dd61053b565b6040516100ea9190610ee1565b60405180910390f35b6100fb610541565b6040516101089190610ee1565b60405180910390f35b610119610547565b005b610123610642565b6040516101309190610f17565b60405180910390f35b610153600480360381019061014e9190610f90565b610655565b6040516101609190610ee1565b60405180910390f35b610171610686565b005b61017b610c42565b6040516101889190610fdf565b60405180910390f35b610199610c66565b6040516101a69190610ee1565b60405180910390f35b6101b7610c6c565b6040516101c49190610ee1565b60405180910390f35b6101e760048036038101906101e29190610ffa565b610c72565b6040516101f49190610fdf565b60405180910390f35b610205610cc0565b6040516102129190611099565b60405180910390f35b600660009054906101000a900460ff1661026a576040517f08c379a000000000000000000000000000000000000000000000000000000000815260040161026190611111565b60405180910390fd5b60008151116102ae576040517f08c379a00000000000000000000000000000000000000000000000000000000081526004016102a5906111a3565b60405180910390fd5b600060035482516102bf91906111f2565b9050600260009054906101000a900473ffffffffffffffffffffffffffffffffffffffff1673ffffffffffffffffffffffffffffffffffffffff166323b872dd3330846040518463ffffffff1660e01b815260040161032093929190611234565b6020604051808303816000875af115801561033f573d6000803e3d6000fd5b505050506040513d601f19601f820116820180604052508101906103639190611297565b6103a2576040517f08c379a000000000000000000000000000000000000000000000000000000000815260040161039990611310565b60405180910390fd5b80600460008282546103b49190611330565b9250508190555060005b82518110156104e857600760003373ffffffffffffffffffffffffffffffffffffffff1673ffffffffffffffffffffffffffffffffffffffff16815260200190815260200160002083828151811061041957610418611364565b5b602002602001015190806001815401808255809150506001900390600052602060002001600090919091909150556008600084838151811061045e5761045d611364565b5b60200260200101518152602001908152602001600020339080600181540180825580915050600190039060005260206000200160009091909190916101000a81548173ffffffffffffffffffffffffffffffffffffffff021916908373ffffffffffffffffffffffffffffffffffffffff16021790555080806104e090611393565b9150506103be565b503373ffffffffffffffffffffffffffffffffffffffff167f40cdfeb8eab7629300182755f706ba32e44c0089edabb30c660d9df355250e9f8360405161052f9190611499565b60405180910390a25050565b60045481565b60015481565b60008054906101000a900473ffffffffffffffffffffffffffffffffffffffff1673ffffffffffffffffffffffffffffffffffffffff163373ffffffffffffffffffffffffffffffffffffffff16146105d5576040517f08c379a00000000000000000000000000000000000000000000000000000000081526004016105cc9061152d565b60405180910390fd5b600660009054906101000a900460ff1615610625576040517f08c379a000000000000000000000000000000000000000000000000000000000815260040161061c90611599565b60405180910390fd5b6001600660006101000a81548160ff021916908315150217905550565b600660009054906101000a900460ff1681565b6007602052816000526040600020818154811061067157600080fd5b90600052602060002001600091509150505481565b60008054906101000a900473ffffffffffffffffffffffffffffffffffffffff1673ffffffffffffffffffffffffffffffffffffffff163373ffffffffffffffffffffffffffffffffffffffff1614610714576040517f08c379a000000000000000000000000000000000000000000000000000000000815260040161070b9061152d565b60405180910390fd5b600660009054906101000a900460ff16610763576040517f08c379a000000000000000000000000000000000000000000000000000000000815260040161075a90611111565b60405180910390fd5b6000600454116107a8576040517f08c379a000000000000000000000000000000000000000000000000000000000815260040161079f90611605565b60405180910390fd5b6000600660006101000a81548160ff021916908315150217905550600160644244436040516020016107dc93929190611646565b6040516020818303038152906040528051906020012060001c6107ff91906116b2565b6108099190611330565b60058190555060006008600060055481526020019081526020016000208054806020026020016040519081016040528092919081815260200182805480156108a657602002820191906000526020600020905b8160009054906101000a900473ffffffffffffffffffffffffffffffffffffffff1673ffffffffffffffffffffffffffffffffffffffff168152602001906001019080831161085c575b50505050509050600081511115610a9e5760006064605f6004546108ca91906111f2565b6108d491906116e3565b905060008251826108e591906116e3565b905060005b8351811015610a2957600260009054906101000a900473ffffffffffffffffffffffffffffffffffffffff1673ffffffffffffffffffffffffffffffffffffffff1663a9059cbb85838151811061094457610943611364565b5b6020026020010151846040518363ffffffff1660e01b815260040161096a929190611714565b6020604051808303816000875af1158015610989573d6000803e3d6000fd5b505050506040513d601f19601f820116820180604052508101906109ad9190611297565b508381815181106109c1576109c0611364565b5b602002602001015173ffffffffffffffffffffffffffffffffffffffff167f0f03616d91da279c94798e7c7e176bf320a7e4722e68b134c8f83dbc0bf43a4b83604051610a0e9190610ee1565b60405180910390a28080610a2190611393565b9150506108ea565b5082600081518110610a3e57610a3d611364565b5b602002602001015173ffffffffffffffffffffffffffffffffffffffff167f642ee3256d48a8ca800d4524ff59b98ae3fb70f54d4dff14e901e17dfebe126083600554604051610a8f92919061173d565b60405180910390a25050610af3565b600073ffffffffffffffffffffffffffffffffffffffff167f642ee3256d48a8ca800d4524ff59b98ae3fb70f54d4dff14e901e17dfebe12606000600554604051610aea9291906117a1565b60405180910390a25b6000600154600454610b0591906117ca565b9050600260009054906101000a900473ffffffffffffffffffffffffffffffffffffffff1673ffffffffffffffffffffffffffffffffffffffff1663a9059cbb60008054906101000a900473ffffffffffffffffffffffffffffffffffffffff16836040518363ffffffff1660e01b8152600401610b84929190611714565b6020604051808303816000875af1158015610ba3573d6000803e3d6000fd5b505050506040513d601f19601f82011682018060405250810190610bc79190611297565b5060008054906101000a900473ffffffffffffffffffffffffffffffffffffffff1673ffffffffffffffffffffffffffffffffffffffff167f0f03616d91da279c94798e7c7e176bf320a7e4722e68b134c8f83dbc0bf43a4b82604051610c2e9190610ee1565b60405180910390a260006004819055505050565b60008054906101000a900473ffffffffffffffffffffffffffffffffffffffff1681565b60055481565b60035481565b60086020528160005260406000208181548110610c8e57600080fd5b906000526020600020016000915091509054906101000a900473ffffffffffffffffffffffffffffffffffffffff1681565b600260009054906101000a900473ffffffffffffffffffffffffffffffffffffffff1681565b6000604051905090565b600080fd5b600080fd5b600080fd5b6000601f19601f8301169050919050565b7f4e487b7100000000000000000000000000000000000000000000000000000000600052604160045260246000fd5b610d4882610cff565b810181811067ffffffffffffffff82111715610d6757610d66610d10565b5b80604052505050565b6000610d7a610ce6565b9050610d868282610d3f565b919050565b600067ffffffffffffffff821115610da657610da5610d10565b5b602082029050602081019050919050565b600080fd5b6000819050919050565b610dcf81610dbc565b8114610dda57600080fd5b50565b600081359050610dec81610dc6565b92915050565b6000610e05610e0084610d8b565b610d70565b90508083825260208201905060208402830185811115610e2857610e27610db7565b5b835b81811015610e515780610e3d8882610ddd565b845260208401935050602081019050610e2a565b5050509392505050565b600082601f830112610e7057610e6f610cfa565b5b8135610e80848260208601610df2565b91505092915050565b600060208284031215610e9f57610e9e610cf0565b5b600082013567ffffffffffffffff811115610ebd57610ebc610cf5565b5b610ec984828501610e5b565b91505092915050565b610edb81610dbc565b82525050565b6000602082019050610ef66000830184610ed2565b92915050565b60008115159050919050565b610f1181610efc565b82525050565b6000602082019050610f2c6000830184610f08565b92915050565b600073ffffffffffffffffffffffffffffffffffffffff82169050919050565b6000610f5d82610f32565b9050919050565b610f6d81610f52565b8114610f7857600080fd5b50565b600081359050610f8a81610f64565b92915050565b60008060408385031215610fa757610fa6610cf0565b5b6000610fb585828601610f7b565b9250506020610fc685828601610ddd565b9150509250929050565b610fd981610f52565b82525050565b6000602082019050610ff46000830184610fd0565b92915050565b6000806040838503121561101157611010610cf0565b5b600061101f85828601610ddd565b925050602061103085828601610ddd565b9150509250929050565b6000819050919050565b600061105f61105a61105584610f32565b61103a565b610f32565b9050919050565b600061107182611044565b9050919050565b600061108382611066565b9050919050565b61109381611078565b82525050565b60006020820190506110ae600083018461108a565b92915050565b600082825260208201905092915050565b7f41206c6f74657269612065737461206665636861646100000000000000000000600082015250565b60006110fb6016836110b4565b9150611106826110c5565b602082019050919050565b6000602082019050818103600083015261112a816110ee565b9050919050565b7f566f6365206465766520636f6d707261722070656c6f206d656e6f7320756d2060008201527f6e756d65726f0000000000000000000000000000000000000000000000000000602082015250565b600061118d6026836110b4565b915061119882611131565b604082019050919050565b600060208201905081810360008301526111bc81611180565b9050919050565b7f4e487b7100000000000000000000000000000000000000000000000000000000600052601160045260246000fd5b60006111fd82610dbc565b915061120883610dbc565b925082820261121681610dbc565b9150828204841483151761122d5761122c6111c3565b5b5092915050565b60006060820190506112496000830186610fd0565b6112566020830185610fd0565b6112636040830184610ed2565b949350505050565b61127481610efc565b811461127f57600080fd5b50565b6000815190506112918161126b565b92915050565b6000602082840312156112ad576112ac610cf0565b5b60006112bb84828501611282565b91505092915050565b7f5472616e73666572656e63696120646520746f6b656e732066616c686f750000600082015250565b60006112fa601e836110b4565b9150611305826112c4565b602082019050919050565b60006020820190508181036000830152611329816112ed565b9050919050565b600061133b82610dbc565b915061134683610dbc565b925082820190508082111561135e5761135d6111c3565b5b92915050565b7f4e487b7100000000000000000000000000000000000000000000000000000000600052603260045260246000fd5b600061139e82610dbc565b91507fffffffffffffffffffffffffffffffffffffffffffffffffffffffffffffffff82036113d0576113cf6111c3565b5b600182019050919050565b600081519050919050565b600082825260208201905092915050565b6000819050602082019050919050565b61141081610dbc565b82525050565b60006114228383611407565b60208301905092915050565b6000602082019050919050565b6000611446826113db565b61145081856113e6565b935061145b836113f7565b8060005b8381101561148c5781516114738882611416565b975061147e8361142e565b92505060018101905061145f565b5085935050505092915050565b600060208201905081810360008301526114b3818461143b565b905092915050565b7f536f6d656e7465206f20646f6e6f20706f6465206368616d617220657373612060008201527f66756e63616f0000000000000000000000000000000000000000000000000000602082015250565b60006115176026836110b4565b9150611522826114bb565b604082019050919050565b600060208201905081810360008301526115468161150a565b9050919050565b7f41206c6f7465726961206a612065737461206162657274610000000000000000600082015250565b60006115836018836110b4565b915061158e8261154d565b602082019050919050565b600060208201905081810360008301526115b281611576565b9050919050565b7f41206c6f7465726961206e616f2074656d2066756e646f730000000000000000600082015250565b60006115ef6018836110b4565b91506115fa826115b9565b602082019050919050565b6000602082019050818103600083015261161e816115e2565b9050919050565b6000819050919050565b61164061163b82610dbc565b611625565b82525050565b6000611652828661162f565b602082019150611662828561162f565b602082019150611672828461162f565b602082019150819050949350505050565b7f4e487b7100000000000000000000000000000000000000000000000000000000600052601260045260246000fd5b60006116bd82610dbc565b91506116c883610dbc565b9250826116d8576116d7611683565b5b828206905092915050565b60006116ee82610dbc565b91506116f983610dbc565b92508261170957611708611683565b5b828204905092915050565b60006040820190506117296000830185610fd0565b6117366020830184610ed2565b9392505050565b60006040820190506117526000830185610ed2565b61175f6020830184610ed2565b9392505050565b6000819050919050565b600061178b61178661178184611766565b61103a565b610dbc565b9050919050565b61179b81611770565b82525050565b60006040820190506117b66000830185611792565b6117c36020830184610ed2565b9392505050565b60006117d582610dbc565b91506117e083610dbc565b92508282039050818111156117f8576117f76111c3565b5b9291505056fea2646970667358221220e139353c7e0d00d848c259b43e433923098abf2e42248f144494f65abc64d52864736f6c63430008120033",
					"opcodes": "PUSH1 0x80 PUSH1 0x40 MSTORE CALLVALUE DUP1 ISZERO PUSH3 0x11 JUMPI PUSH1 0x0 DUP1 REVERT JUMPDEST POP PUSH1 0x40 MLOAD PUSH3 0x1A12 CODESIZE SUB DUP1 PUSH3 0x1A12 DUP4 CODECOPY DUP2 DUP2 ADD PUSH1 0x40 MSTORE DUP2 ADD SWAP1 PUSH3 0x37 SWAP2 SWAP1 PUSH3 0x187 JUMP JUMPDEST CALLER PUSH1 0x0 DUP1 PUSH2 0x100 EXP DUP2 SLOAD DUP2 PUSH20 0xFFFFFFFFFFFFFFFFFFFFFFFFFFFFFFFFFFFFFFFF MUL NOT AND SWAP1 DUP4 PUSH20 0xFFFFFFFFFFFFFFFFFFFFFFFFFFFFFFFFFFFFFFFF AND MUL OR SWAP1 SSTORE POP DUP2 PUSH1 0x2 PUSH1 0x0 PUSH2 0x100 EXP DUP2 SLOAD DUP2 PUSH20 0xFFFFFFFFFFFFFFFFFFFFFFFFFFFFFFFFFFFFFFFF MUL NOT AND SWAP1 DUP4 PUSH20 0xFFFFFFFFFFFFFFFFFFFFFFFFFFFFFFFFFFFFFFFF AND MUL OR SWAP1 SSTORE POP DUP1 PUSH1 0x3 DUP2 SWAP1 SSTORE POP PUSH1 0x1 PUSH1 0x6 PUSH1 0x0 PUSH2 0x100 EXP DUP2 SLOAD DUP2 PUSH1 0xFF MUL NOT AND SWAP1 DUP4 ISZERO ISZERO MUL OR SWAP1 SSTORE POP POP POP PUSH3 0x1CE JUMP JUMPDEST PUSH1 0x0 DUP1 REVERT JUMPDEST PUSH1 0x0 PUSH20 0xFFFFFFFFFFFFFFFFFFFFFFFFFFFFFFFFFFFFFFFF DUP3 AND SWAP1 POP SWAP2 SWAP1 POP JUMP JUMPDEST PUSH1 0x0 PUSH3 0x114 DUP3 PUSH3 0xE7 JUMP JUMPDEST SWAP1 POP SWAP2 SWAP1 POP JUMP JUMPDEST PUSH3 0x126 DUP2 PUSH3 0x107 JUMP JUMPDEST DUP2 EQ PUSH3 0x132 JUMPI PUSH1 0x0 DUP1 REVERT JUMPDEST POP JUMP JUMPDEST PUSH1 0x0 DUP2 MLOAD SWAP1 POP PUSH3 0x146 DUP2 PUSH3 0x11B JUMP JUMPDEST SWAP3 SWAP2 POP POP JUMP JUMPDEST PUSH1 0x0 DUP2 SWAP1 POP SWAP2 SWAP1 POP JUMP JUMPDEST PUSH3 0x161 DUP2 PUSH3 0x14C JUMP JUMPDEST DUP2 EQ PUSH3 0x16D JUMPI PUSH1 0x0 DUP1 REVERT JUMPDEST POP JUMP JUMPDEST PUSH1 0x0 DUP2 MLOAD SWAP1 POP PUSH3 0x181 DUP2 PUSH3 0x156 JUMP JUMPDEST SWAP3 SWAP2 POP POP JUMP JUMPDEST PUSH1 0x0 DUP1 PUSH1 0x40 DUP4 DUP6 SUB SLT ISZERO PUSH3 0x1A1 JUMPI PUSH3 0x1A0 PUSH3 0xE2 JUMP JUMPDEST JUMPDEST PUSH1 0x0 PUSH3 0x1B1 DUP6 DUP3 DUP7 ADD PUSH3 0x135 JUMP JUMPDEST SWAP3 POP POP PUSH1 0x20 PUSH3 0x1C4 DUP6 DUP3 DUP7 ADD PUSH3 0x170 JUMP JUMPDEST SWAP2 POP POP SWAP3 POP SWAP3 SWAP1 POP JUMP JUMPDEST PUSH2 0x1834 DUP1 PUSH3 0x1DE PUSH1 0x0 CODECOPY PUSH1 0x0 RETURN INVALID PUSH1 0x80 PUSH1 0x40 MSTORE CALLVALUE DUP1 ISZERO PUSH2 0x10 JUMPI PUSH1 0x0 DUP1 REVERT JUMPDEST POP PUSH1 0x4 CALLDATASIZE LT PUSH2 0xB4 JUMPI PUSH1 0x0 CALLDATALOAD PUSH1 0xE0 SHR DUP1 PUSH4 0x8ADE2AC4 GT PUSH2 0x71 JUMPI DUP1 PUSH4 0x8ADE2AC4 EQ PUSH2 0x169 JUMPI DUP1 PUSH4 0x8DA5CB5B EQ PUSH2 0x173 JUMPI DUP1 PUSH4 0xB24733E3 EQ PUSH2 0x191 JUMPI DUP1 PUSH4 0xD8787A86 EQ PUSH2 0x1AF JUMPI DUP1 PUSH4 0xDFE22B5F EQ PUSH2 0x1CD JUMPI DUP1 PUSH4 0xFC0C546A EQ PUSH2 0x1FD JUMPI PUSH2 0xB4 JUMP JUMPDEST DUP1 PUSH4 0x2832FFA4 EQ PUSH2 0xB9 JUMPI DUP1 PUSH4 0x2DDBD13A EQ PUSH2 0xD5 JUMPI DUP1 PUSH4 0x50237F72 EQ PUSH2 0xF3 JUMPI DUP1 PUSH4 0x6B7BDD0C EQ PUSH2 0x111 JUMPI DUP1 PUSH4 0x6DC4114F EQ PUSH2 0x11B JUMPI DUP1 PUSH4 0x76FFE866 EQ PUSH2 0x139 JUMPI JUMPDEST PUSH1 0x0 DUP1 REVERT JUMPDEST PUSH2 0xD3 PUSH1 0x4 DUP1 CALLDATASIZE SUB DUP2 ADD SWAP1 PUSH2 0xCE SWAP2 SWAP1 PUSH2 0xE89 JUMP JUMPDEST PUSH2 0x21B JUMP JUMPDEST STOP JUMPDEST PUSH2 0xDD PUSH2 0x53B JUMP JUMPDEST PUSH1 0x40 MLOAD PUSH2 0xEA SWAP2 SWAP1 PUSH2 0xEE1 JUMP JUMPDEST PUSH1 0x40 MLOAD DUP1 SWAP2 SUB SWAP1 RETURN JUMPDEST PUSH2 0xFB PUSH2 0x541 JUMP JUMPDEST PUSH1 0x40 MLOAD PUSH2 0x108 SWAP2 SWAP1 PUSH2 0xEE1 JUMP JUMPDEST PUSH1 0x40 MLOAD DUP1 SWAP2 SUB SWAP1 RETURN JUMPDEST PUSH2 0x119 PUSH2 0x547 JUMP JUMPDEST STOP JUMPDEST PUSH2 0x123 PUSH2 0x642 JUMP JUMPDEST PUSH1 0x40 MLOAD PUSH2 0x130 SWAP2 SWAP1 PUSH2 0xF17 JUMP JUMPDEST PUSH1 0x40 MLOAD DUP1 SWAP2 SUB SWAP1 RETURN JUMPDEST PUSH2 0x153 PUSH1 0x4 DUP1 CALLDATASIZE SUB DUP2 ADD SWAP1 PUSH2 0x14E SWAP2 SWAP1 PUSH2 0xF90 JUMP JUMPDEST PUSH2 0x655 JUMP JUMPDEST PUSH1 0x40 MLOAD PUSH2 0x160 SWAP2 SWAP1 PUSH2 0xEE1 JUMP JUMPDEST PUSH1 0x40 MLOAD DUP1 SWAP2 SUB SWAP1 RETURN JUMPDEST PUSH2 0x171 PUSH2 0x686 JUMP JUMPDEST STOP JUMPDEST PUSH2 0x17B PUSH2 0xC42 JUMP JUMPDEST PUSH1 0x40 MLOAD PUSH2 0x188 SWAP2 SWAP1 PUSH2 0xFDF JUMP JUMPDEST PUSH1 0x40 MLOAD DUP1 SWAP2 SUB SWAP1 RETURN JUMPDEST PUSH2 0x199 PUSH2 0xC66 JUMP JUMPDEST PUSH1 0x40 MLOAD PUSH2 0x1A6 SWAP2 SWAP1 PUSH2 0xEE1 JUMP JUMPDEST PUSH1 0x40 MLOAD DUP1 SWAP2 SUB SWAP1 RETURN JUMPDEST PUSH2 0x1B7 PUSH2 0xC6C JUMP JUMPDEST PUSH1 0x40 MLOAD PUSH2 0x1C4 SWAP2 SWAP1 PUSH2 0xEE1 JUMP JUMPDEST PUSH1 0x40 MLOAD DUP1 SWAP2 SUB SWAP1 RETURN JUMPDEST PUSH2 0x1E7 PUSH1 0x4 DUP1 CALLDATASIZE SUB DUP2 ADD SWAP1 PUSH2 0x1E2 SWAP2 SWAP1 PUSH2 0xFFA JUMP JUMPDEST PUSH2 0xC72 JUMP JUMPDEST PUSH1 0x40 MLOAD PUSH2 0x1F4 SWAP2 SWAP1 PUSH2 0xFDF JUMP JUMPDEST PUSH1 0x40 MLOAD DUP1 SWAP2 SUB SWAP1 RETURN JUMPDEST PUSH2 0x205 PUSH2 0xCC0 JUMP JUMPDEST PUSH1 0x40 MLOAD PUSH2 0x212 SWAP2 SWAP1 PUSH2 0x1099 JUMP JUMPDEST PUSH1 0x40 MLOAD DUP1 SWAP2 SUB SWAP1 RETURN JUMPDEST PUSH1 0x6 PUSH1 0x0 SWAP1 SLOAD SWAP1 PUSH2 0x100 EXP SWAP1 DIV PUSH1 0xFF AND PUSH2 0x26A JUMPI PUSH1 0x40 MLOAD PUSH32 0x8C379A000000000000000000000000000000000000000000000000000000000 DUP2 MSTORE PUSH1 0x4 ADD PUSH2 0x261 SWAP1 PUSH2 0x1111 JUMP JUMPDEST PUSH1 0x40 MLOAD DUP1 SWAP2 SUB SWAP1 REVERT JUMPDEST PUSH1 0x0 DUP2 MLOAD GT PUSH2 0x2AE JUMPI PUSH1 0x40 MLOAD PUSH32 0x8C379A000000000000000000000000000000000000000000000000000000000 DUP2 MSTORE PUSH1 0x4 ADD PUSH2 0x2A5 SWAP1 PUSH2 0x11A3 JUMP JUMPDEST PUSH1 0x40 MLOAD DUP1 SWAP2 SUB SWAP1 REVERT JUMPDEST PUSH1 0x0 PUSH1 0x3 SLOAD DUP3 MLOAD PUSH2 0x2BF SWAP2 SWAP1 PUSH2 0x11F2 JUMP JUMPDEST SWAP1 POP PUSH1 0x2 PUSH1 0x0 SWAP1 SLOAD SWAP1 PUSH2 0x100 EXP SWAP1 DIV PUSH20 0xFFFFFFFFFFFFFFFFFFFFFFFFFFFFFFFFFFFFFFFF AND PUSH20 0xFFFFFFFFFFFFFFFFFFFFFFFFFFFFFFFFFFFFFFFF AND PUSH4 0x23B872DD CALLER ADDRESS DUP5 PUSH1 0x40 MLOAD DUP5 PUSH4 0xFFFFFFFF AND PUSH1 0xE0 SHL DUP2 MSTORE PUSH1 0x4 ADD PUSH2 0x320 SWAP4 SWAP3 SWAP2 SWAP1 PUSH2 0x1234 JUMP JUMPDEST PUSH1 0x20 PUSH1 0x40 MLOAD DUP1 DUP4 SUB DUP2 PUSH1 0x0 DUP8 GAS CALL ISZERO DUP1 ISZERO PUSH2 0x33F JUMPI RETURNDATASIZE PUSH1 0x0 DUP1 RETURNDATACOPY RETURNDATASIZE PUSH1 0x0 REVERT JUMPDEST POP POP POP POP PUSH1 0x40 MLOAD RETURNDATASIZE PUSH1 0x1F NOT PUSH1 0x1F DUP3 ADD AND DUP3 ADD DUP1 PUSH1 0x40 MSTORE POP DUP2 ADD SWAP1 PUSH2 0x363 SWAP2 SWAP1 PUSH2 0x1297 JUMP JUMPDEST PUSH2 0x3A2 JUMPI PUSH1 0x40 MLOAD PUSH32 0x8C379A000000000000000000000000000000000000000000000000000000000 DUP2 MSTORE PUSH1 0x4 ADD PUSH2 0x399 SWAP1 PUSH2 0x1310 JUMP JUMPDEST PUSH1 0x40 MLOAD DUP1 SWAP2 SUB SWAP1 REVERT JUMPDEST DUP1 PUSH1 0x4 PUSH1 0x0 DUP3 DUP3 SLOAD PUSH2 0x3B4 SWAP2 SWAP1 PUSH2 0x1330 JUMP JUMPDEST SWAP3 POP POP DUP2 SWAP1 SSTORE POP PUSH1 0x0 JUMPDEST DUP3 MLOAD DUP2 LT ISZERO PUSH2 0x4E8 JUMPI PUSH1 0x7 PUSH1 0x0 CALLER PUSH20 0xFFFFFFFFFFFFFFFFFFFFFFFFFFFFFFFFFFFFFFFF AND PUSH20 0xFFFFFFFFFFFFFFFFFFFFFFFFFFFFFFFFFFFFFFFF AND DUP2 MSTORE PUSH1 0x20 ADD SWAP1 DUP2 MSTORE PUSH1 0x20 ADD PUSH1 0x0 KECCAK256 DUP4 DUP3 DUP2 MLOAD DUP2 LT PUSH2 0x419 JUMPI PUSH2 0x418 PUSH2 0x1364 JUMP JUMPDEST JUMPDEST PUSH1 0x20 MUL PUSH1 0x20 ADD ADD MLOAD SWAP1 DUP1 PUSH1 0x1 DUP2 SLOAD ADD DUP1 DUP3 SSTORE DUP1 SWAP2 POP POP PUSH1 0x1 SWAP1 SUB SWAP1 PUSH1 0x0 MSTORE PUSH1 0x20 PUSH1 0x0 KECCAK256 ADD PUSH1 0x0 SWAP1 SWAP2 SWAP1 SWAP2 SWAP1 SWAP2 POP SSTORE PUSH1 0x8 PUSH1 0x0 DUP5 DUP4 DUP2 MLOAD DUP2 LT PUSH2 0x45E JUMPI PUSH2 0x45D PUSH2 0x1364 JUMP JUMPDEST JUMPDEST PUSH1 0x20 MUL PUSH1 0x20 ADD ADD MLOAD DUP2 MSTORE PUSH1 0x20 ADD SWAP1 DUP2 MSTORE PUSH1 0x20 ADD PUSH1 0x0 KECCAK256 CALLER SWAP1 DUP1 PUSH1 0x1 DUP2 SLOAD ADD DUP1 DUP3 SSTORE DUP1 SWAP2 POP POP PUSH1 0x1 SWAP1 SUB SWAP1 PUSH1 0x0 MSTORE PUSH1 0x20 PUSH1 0x0 KECCAK256 ADD PUSH1 0x0 SWAP1 SWAP2 SWAP1 SWAP2 SWAP1 SWAP2 PUSH2 0x100 EXP DUP2 SLOAD DUP2 PUSH20 0xFFFFFFFFFFFFFFFFFFFFFFFFFFFFFFFFFFFFFFFF MUL NOT AND SWAP1 DUP4 PUSH20 0xFFFFFFFFFFFFFFFFFFFFFFFFFFFFFFFFFFFFFFFF AND MUL OR SWAP1 SSTORE POP DUP1 DUP1 PUSH2 0x4E0 SWAP1 PUSH2 0x1393 JUMP JUMPDEST SWAP2 POP POP PUSH2 0x3BE JUMP JUMPDEST POP CALLER PUSH20 0xFFFFFFFFFFFFFFFFFFFFFFFFFFFFFFFFFFFFFFFF AND PUSH32 0x40CDFEB8EAB7629300182755F706BA32E44C0089EDABB30C660D9DF355250E9F DUP4 PUSH1 0x40 MLOAD PUSH2 0x52F SWAP2 SWAP1 PUSH2 0x1499 JUMP JUMPDEST PUSH1 0x40 MLOAD DUP1 SWAP2 SUB SWAP1 LOG2 POP POP JUMP JUMPDEST PUSH1 0x4 SLOAD DUP2 JUMP JUMPDEST PUSH1 0x1 SLOAD DUP2 JUMP JUMPDEST PUSH1 0x0 DUP1 SLOAD SWAP1 PUSH2 0x100 EXP SWAP1 DIV PUSH20 0xFFFFFFFFFFFFFFFFFFFFFFFFFFFFFFFFFFFFFFFF AND PUSH20 0xFFFFFFFFFFFFFFFFFFFFFFFFFFFFFFFFFFFFFFFF AND CALLER PUSH20 0xFFFFFFFFFFFFFFFFFFFFFFFFFFFFFFFFFFFFFFFF AND EQ PUSH2 0x5D5 JUMPI PUSH1 0x40 MLOAD PUSH32 0x8C379A000000000000000000000000000000000000000000000000000000000 DUP2 MSTORE PUSH1 0x4 ADD PUSH2 0x5CC SWAP1 PUSH2 0x152D JUMP JUMPDEST PUSH1 0x40 MLOAD DUP1 SWAP2 SUB SWAP1 REVERT JUMPDEST PUSH1 0x6 PUSH1 0x0 SWAP1 SLOAD SWAP1 PUSH2 0x100 EXP SWAP1 DIV PUSH1 0xFF AND ISZERO PUSH2 0x625 JUMPI PUSH1 0x40 MLOAD PUSH32 0x8C379A000000000000000000000000000000000000000000000000000000000 DUP2 MSTORE PUSH1 0x4 ADD PUSH2 0x61C SWAP1 PUSH2 0x1599 JUMP JUMPDEST PUSH1 0x40 MLOAD DUP1 SWAP2 SUB SWAP1 REVERT JUMPDEST PUSH1 0x1 PUSH1 0x6 PUSH1 0x0 PUSH2 0x100 EXP DUP2 SLOAD DUP2 PUSH1 0xFF MUL NOT AND SWAP1 DUP4 ISZERO ISZERO MUL OR SWAP1 SSTORE POP JUMP JUMPDEST PUSH1 0x6 PUSH1 0x0 SWAP1 SLOAD SWAP1 PUSH2 0x100 EXP SWAP1 DIV PUSH1 0xFF AND DUP2 JUMP JUMPDEST PUSH1 0x7 PUSH1 0x20 MSTORE DUP2 PUSH1 0x0 MSTORE PUSH1 0x40 PUSH1 0x0 KECCAK256 DUP2 DUP2 SLOAD DUP2 LT PUSH2 0x671 JUMPI PUSH1 0x0 DUP1 REVERT JUMPDEST SWAP1 PUSH1 0x0 MSTORE PUSH1 0x20 PUSH1 0x0 KECCAK256 ADD PUSH1 0x0 SWAP2 POP SWAP2 POP POP SLOAD DUP2 JUMP JUMPDEST PUSH1 0x0 DUP1 SLOAD SWAP1 PUSH2 0x100 EXP SWAP1 DIV PUSH20 0xFFFFFFFFFFFFFFFFFFFFFFFFFFFFFFFFFFFFFFFF AND PUSH20 0xFFFFFFFFFFFFFFFFFFFFFFFFFFFFFFFFFFFFFFFF AND CALLER PUSH20 0xFFFFFFFFFFFFFFFFFFFFFFFFFFFFFFFFFFFFFFFF AND EQ PUSH2 0x714 JUMPI PUSH1 0x40 MLOAD PUSH32 0x8C379A000000000000000000000000000000000000000000000000000000000 DUP2 MSTORE PUSH1 0x4 ADD PUSH2 0x70B SWAP1 PUSH2 0x152D JUMP JUMPDEST PUSH1 0x40 MLOAD DUP1 SWAP2 SUB SWAP1 REVERT JUMPDEST PUSH1 0x6 PUSH1 0x0 SWAP1 SLOAD SWAP1 PUSH2 0x100 EXP SWAP1 DIV PUSH1 0xFF AND PUSH2 0x763 JUMPI PUSH1 0x40 MLOAD PUSH32 0x8C379A000000000000000000000000000000000000000000000000000000000 DUP2 MSTORE PUSH1 0x4 ADD PUSH2 0x75A SWAP1 PUSH2 0x1111 JUMP JUMPDEST PUSH1 0x40 MLOAD DUP1 SWAP2 SUB SWAP1 REVERT JUMPDEST PUSH1 0x0 PUSH1 0x4 SLOAD GT PUSH2 0x7A8 JUMPI PUSH1 0x40 MLOAD PUSH32 0x8C379A000000000000000000000000000000000000000000000000000000000 DUP2 MSTORE PUSH1 0x4 ADD PUSH2 0x79F SWAP1 PUSH2 0x1605 JUMP JUMPDEST PUSH1 0x40 MLOAD DUP1 SWAP2 SUB SWAP1 REVERT JUMPDEST PUSH1 0x0 PUSH1 0x6 PUSH1 0x0 PUSH2 0x100 EXP DUP2 SLOAD DUP2 PUSH1 0xFF MUL NOT AND SWAP1 DUP4 ISZERO ISZERO MUL OR SWAP1 SSTORE POP PUSH1 0x1 PUSH1 0x64 TIMESTAMP PREVRANDAO NUMBER PUSH1 0x40 MLOAD PUSH1 0x20 ADD PUSH2 0x7DC SWAP4 SWAP3 SWAP2 SWAP1 PUSH2 0x1646 JUMP JUMPDEST PUSH1 0x40 MLOAD PUSH1 0x20 DUP2 DUP4 SUB SUB DUP2 MSTORE SWAP1 PUSH1 0x40 MSTORE DUP1 MLOAD SWAP1 PUSH1 0x20 ADD KECCAK256 PUSH1 0x0 SHR PUSH2 0x7FF SWAP2 SWAP1 PUSH2 0x16B2 JUMP JUMPDEST PUSH2 0x809 SWAP2 SWAP1 PUSH2 0x1330 JUMP JUMPDEST PUSH1 0x5 DUP2 SWAP1 SSTORE POP PUSH1 0x0 PUSH1 0x8 PUSH1 0x0 PUSH1 0x5 SLOAD DUP2 MSTORE PUSH1 0x20 ADD SWAP1 DUP2 MSTORE PUSH1 0x20 ADD PUSH1 0x0 KECCAK256 DUP1 SLOAD DUP1 PUSH1 0x20 MUL PUSH1 0x20 ADD PUSH1 0x40 MLOAD SWAP1 DUP2 ADD PUSH1 0x40 MSTORE DUP1 SWAP3 SWAP2 SWAP1 DUP2 DUP2 MSTORE PUSH1 0x20 ADD DUP3 DUP1 SLOAD DUP1 ISZERO PUSH2 0x8A6 JUMPI PUSH1 0x20 MUL DUP3 ADD SWAP2 SWAP1 PUSH1 0x0 MSTORE PUSH1 0x20 PUSH1 0x0 KECCAK256 SWAP1 JUMPDEST DUP2 PUSH1 0x0 SWAP1 SLOAD SWAP1 PUSH2 0x100 EXP SWAP1 DIV PUSH20 0xFFFFFFFFFFFFFFFFFFFFFFFFFFFFFFFFFFFFFFFF AND PUSH20 0xFFFFFFFFFFFFFFFFFFFFFFFFFFFFFFFFFFFFFFFF AND DUP2 MSTORE PUSH1 0x20 ADD SWAP1 PUSH1 0x1 ADD SWAP1 DUP1 DUP4 GT PUSH2 0x85C JUMPI JUMPDEST POP POP POP POP POP SWAP1 POP PUSH1 0x0 DUP2 MLOAD GT ISZERO PUSH2 0xA9E JUMPI PUSH1 0x0 PUSH1 0x64 PUSH1 0x5F PUSH1 0x4 SLOAD PUSH2 0x8CA SWAP2 SWAP1 PUSH2 0x11F2 JUMP JUMPDEST PUSH2 0x8D4 SWAP2 SWAP1 PUSH2 0x16E3 JUMP JUMPDEST SWAP1 POP PUSH1 0x0 DUP3 MLOAD DUP3 PUSH2 0x8E5 SWAP2 SWAP1 PUSH2 0x16E3 JUMP JUMPDEST SWAP1 POP PUSH1 0x0 JUMPDEST DUP4 MLOAD DUP2 LT ISZERO PUSH2 0xA29 JUMPI PUSH1 0x2 PUSH1 0x0 SWAP1 SLOAD SWAP1 PUSH2 0x100 EXP SWAP1 DIV PUSH20 0xFFFFFFFFFFFFFFFFFFFFFFFFFFFFFFFFFFFFFFFF AND PUSH20 0xFFFFFFFFFFFFFFFFFFFFFFFFFFFFFFFFFFFFFFFF AND PUSH4 0xA9059CBB DUP6 DUP4 DUP2 MLOAD DUP2 LT PUSH2 0x944 JUMPI PUSH2 0x943 PUSH2 0x1364 JUMP JUMPDEST JUMPDEST PUSH1 0x20 MUL PUSH1 0x20 ADD ADD MLOAD DUP5 PUSH1 0x40 MLOAD DUP4 PUSH4 0xFFFFFFFF AND PUSH1 0xE0 SHL DUP2 MSTORE PUSH1 0x4 ADD PUSH2 0x96A SWAP3 SWAP2 SWAP1 PUSH2 0x1714 JUMP JUMPDEST PUSH1 0x20 PUSH1 0x40 MLOAD DUP1 DUP4 SUB DUP2 PUSH1 0x0 DUP8 GAS CALL ISZERO DUP1 ISZERO PUSH2 0x989 JUMPI RETURNDATASIZE PUSH1 0x0 DUP1 RETURNDATACOPY RETURNDATASIZE PUSH1 0x0 REVERT JUMPDEST POP POP POP POP PUSH1 0x40 MLOAD RETURNDATASIZE PUSH1 0x1F NOT PUSH1 0x1F DUP3 ADD AND DUP3 ADD DUP1 PUSH1 0x40 MSTORE POP DUP2 ADD SWAP1 PUSH2 0x9AD SWAP2 SWAP1 PUSH2 0x1297 JUMP JUMPDEST POP DUP4 DUP2 DUP2 MLOAD DUP2 LT PUSH2 0x9C1 JUMPI PUSH2 0x9C0 PUSH2 0x1364 JUMP JUMPDEST JUMPDEST PUSH1 0x20 MUL PUSH1 0x20 ADD ADD MLOAD PUSH20 0xFFFFFFFFFFFFFFFFFFFFFFFFFFFFFFFFFFFFFFFF AND PUSH32 0xF03616D91DA279C94798E7C7E176BF320A7E4722E68B134C8F83DBC0BF43A4B DUP4 PUSH1 0x40 MLOAD PUSH2 0xA0E SWAP2 SWAP1 PUSH2 0xEE1 JUMP JUMPDEST PUSH1 0x40 MLOAD DUP1 SWAP2 SUB SWAP1 LOG2 DUP1 DUP1 PUSH2 0xA21 SWAP1 PUSH2 0x1393 JUMP JUMPDEST SWAP2 POP POP PUSH2 0x8EA JUMP JUMPDEST POP DUP3 PUSH1 0x0 DUP2 MLOAD DUP2 LT PUSH2 0xA3E JUMPI PUSH2 0xA3D PUSH2 0x1364 JUMP JUMPDEST JUMPDEST PUSH1 0x20 MUL PUSH1 0x20 ADD ADD MLOAD PUSH20 0xFFFFFFFFFFFFFFFFFFFFFFFFFFFFFFFFFFFFFFFF AND PUSH32 0x642EE3256D48A8CA800D4524FF59B98AE3FB70F54D4DFF14E901E17DFEBE1260 DUP4 PUSH1 0x5 SLOAD PUSH1 0x40 MLOAD PUSH2 0xA8F SWAP3 SWAP2 SWAP1 PUSH2 0x173D JUMP JUMPDEST PUSH1 0x40 MLOAD DUP1 SWAP2 SUB SWAP1 LOG2 POP POP PUSH2 0xAF3 JUMP JUMPDEST PUSH1 0x0 PUSH20 0xFFFFFFFFFFFFFFFFFFFFFFFFFFFFFFFFFFFFFFFF AND PUSH32 0x642EE3256D48A8CA800D4524FF59B98AE3FB70F54D4DFF14E901E17DFEBE1260 PUSH1 0x0 PUSH1 0x5 SLOAD PUSH1 0x40 MLOAD PUSH2 0xAEA SWAP3 SWAP2 SWAP1 PUSH2 0x17A1 JUMP JUMPDEST PUSH1 0x40 MLOAD DUP1 SWAP2 SUB SWAP1 LOG2 JUMPDEST PUSH1 0x0 PUSH1 0x1 SLOAD PUSH1 0x4 SLOAD PUSH2 0xB05 SWAP2 SWAP1 PUSH2 0x17CA JUMP JUMPDEST SWAP1 POP PUSH1 0x2 PUSH1 0x0 SWAP1 SLOAD SWAP1 PUSH2 0x100 EXP SWAP1 DIV PUSH20 0xFFFFFFFFFFFFFFFFFFFFFFFFFFFFFFFFFFFFFFFF AND PUSH20 0xFFFFFFFFFFFFFFFFFFFFFFFFFFFFFFFFFFFFFFFF AND PUSH4 0xA9059CBB PUSH1 0x0 DUP1 SLOAD SWAP1 PUSH2 0x100 EXP SWAP1 DIV PUSH20 0xFFFFFFFFFFFFFFFFFFFFFFFFFFFFFFFFFFFFFFFF AND DUP4 PUSH1 0x40 MLOAD DUP4 PUSH4 0xFFFFFFFF AND PUSH1 0xE0 SHL DUP2 MSTORE PUSH1 0x4 ADD PUSH2 0xB84 SWAP3 SWAP2 SWAP1 PUSH2 0x1714 JUMP JUMPDEST PUSH1 0x20 PUSH1 0x40 MLOAD DUP1 DUP4 SUB DUP2 PUSH1 0x0 DUP8 GAS CALL ISZERO DUP1 ISZERO PUSH2 0xBA3 JUMPI RETURNDATASIZE PUSH1 0x0 DUP1 RETURNDATACOPY RETURNDATASIZE PUSH1 0x0 REVERT JUMPDEST POP POP POP POP PUSH1 0x40 MLOAD RETURNDATASIZE PUSH1 0x1F NOT PUSH1 0x1F DUP3 ADD AND DUP3 ADD DUP1 PUSH1 0x40 MSTORE POP DUP2 ADD SWAP1 PUSH2 0xBC7 SWAP2 SWAP1 PUSH2 0x1297 JUMP JUMPDEST POP PUSH1 0x0 DUP1 SLOAD SWAP1 PUSH2 0x100 EXP SWAP1 DIV PUSH20 0xFFFFFFFFFFFFFFFFFFFFFFFFFFFFFFFFFFFFFFFF AND PUSH20 0xFFFFFFFFFFFFFFFFFFFFFFFFFFFFFFFFFFFFFFFF AND PUSH32 0xF03616D91DA279C94798E7C7E176BF320A7E4722E68B134C8F83DBC0BF43A4B DUP3 PUSH1 0x40 MLOAD PUSH2 0xC2E SWAP2 SWAP1 PUSH2 0xEE1 JUMP JUMPDEST PUSH1 0x40 MLOAD DUP1 SWAP2 SUB SWAP1 LOG2 PUSH1 0x0 PUSH1 0x4 DUP2 SWAP1 SSTORE POP POP POP JUMP JUMPDEST PUSH1 0x0 DUP1 SLOAD SWAP1 PUSH2 0x100 EXP SWAP1 DIV PUSH20 0xFFFFFFFFFFFFFFFFFFFFFFFFFFFFFFFFFFFFFFFF AND DUP2 JUMP JUMPDEST PUSH1 0x5 SLOAD DUP2 JUMP JUMPDEST PUSH1 0x3 SLOAD DUP2 JUMP JUMPDEST PUSH1 0x8 PUSH1 0x20 MSTORE DUP2 PUSH1 0x0 MSTORE PUSH1 0x40 PUSH1 0x0 KECCAK256 DUP2 DUP2 SLOAD DUP2 LT PUSH2 0xC8E JUMPI PUSH1 0x0 DUP1 REVERT JUMPDEST SWAP1 PUSH1 0x0 MSTORE PUSH1 0x20 PUSH1 0x0 KECCAK256 ADD PUSH1 0x0 SWAP2 POP SWAP2 POP SWAP1 SLOAD SWAP1 PUSH2 0x100 EXP SWAP1 DIV PUSH20 0xFFFFFFFFFFFFFFFFFFFFFFFFFFFFFFFFFFFFFFFF AND DUP2 JUMP JUMPDEST PUSH1 0x2 PUSH1 0x0 SWAP1 SLOAD SWAP1 PUSH2 0x100 EXP SWAP1 DIV PUSH20 0xFFFFFFFFFFFFFFFFFFFFFFFFFFFFFFFFFFFFFFFF AND DUP2 JUMP JUMPDEST PUSH1 0x0 PUSH1 0x40 MLOAD SWAP1 POP SWAP1 JUMP JUMPDEST PUSH1 0x0 DUP1 REVERT JUMPDEST PUSH1 0x0 DUP1 REVERT JUMPDEST PUSH1 0x0 DUP1 REVERT JUMPDEST PUSH1 0x0 PUSH1 0x1F NOT PUSH1 0x1F DUP4 ADD AND SWAP1 POP SWAP2 SWAP1 POP JUMP JUMPDEST PUSH32 0x4E487B7100000000000000000000000000000000000000000000000000000000 PUSH1 0x0 MSTORE PUSH1 0x41 PUSH1 0x4 MSTORE PUSH1 0x24 PUSH1 0x0 REVERT JUMPDEST PUSH2 0xD48 DUP3 PUSH2 0xCFF JUMP JUMPDEST DUP2 ADD DUP2 DUP2 LT PUSH8 0xFFFFFFFFFFFFFFFF DUP3 GT OR ISZERO PUSH2 0xD67 JUMPI PUSH2 0xD66 PUSH2 0xD10 JUMP JUMPDEST JUMPDEST DUP1 PUSH1 0x40 MSTORE POP POP POP JUMP JUMPDEST PUSH1 0x0 PUSH2 0xD7A PUSH2 0xCE6 JUMP JUMPDEST SWAP1 POP PUSH2 0xD86 DUP3 DUP3 PUSH2 0xD3F JUMP JUMPDEST SWAP2 SWAP1 POP JUMP JUMPDEST PUSH1 0x0 PUSH8 0xFFFFFFFFFFFFFFFF DUP3 GT ISZERO PUSH2 0xDA6 JUMPI PUSH2 0xDA5 PUSH2 0xD10 JUMP JUMPDEST JUMPDEST PUSH1 0x20 DUP3 MUL SWAP1 POP PUSH1 0x20 DUP2 ADD SWAP1 POP SWAP2 SWAP1 POP JUMP JUMPDEST PUSH1 0x0 DUP1 REVERT JUMPDEST PUSH1 0x0 DUP2 SWAP1 POP SWAP2 SWAP1 POP JUMP JUMPDEST PUSH2 0xDCF DUP2 PUSH2 0xDBC JUMP JUMPDEST DUP2 EQ PUSH2 0xDDA JUMPI PUSH1 0x0 DUP1 REVERT JUMPDEST POP JUMP JUMPDEST PUSH1 0x0 DUP2 CALLDATALOAD SWAP1 POP PUSH2 0xDEC DUP2 PUSH2 0xDC6 JUMP JUMPDEST SWAP3 SWAP2 POP POP JUMP JUMPDEST PUSH1 0x0 PUSH2 0xE05 PUSH2 0xE00 DUP5 PUSH2 0xD8B JUMP JUMPDEST PUSH2 0xD70 JUMP JUMPDEST SWAP1 POP DUP1 DUP4 DUP3 MSTORE PUSH1 0x20 DUP3 ADD SWAP1 POP PUSH1 0x20 DUP5 MUL DUP4 ADD DUP6 DUP2 GT ISZERO PUSH2 0xE28 JUMPI PUSH2 0xE27 PUSH2 0xDB7 JUMP JUMPDEST JUMPDEST DUP4 JUMPDEST DUP2 DUP2 LT ISZERO PUSH2 0xE51 JUMPI DUP1 PUSH2 0xE3D DUP9 DUP3 PUSH2 0xDDD JUMP JUMPDEST DUP5 MSTORE PUSH1 0x20 DUP5 ADD SWAP4 POP POP PUSH1 0x20 DUP2 ADD SWAP1 POP PUSH2 0xE2A JUMP JUMPDEST POP POP POP SWAP4 SWAP3 POP POP POP JUMP JUMPDEST PUSH1 0x0 DUP3 PUSH1 0x1F DUP4 ADD SLT PUSH2 0xE70 JUMPI PUSH2 0xE6F PUSH2 0xCFA JUMP JUMPDEST JUMPDEST DUP2 CALLDATALOAD PUSH2 0xE80 DUP5 DUP3 PUSH1 0x20 DUP7 ADD PUSH2 0xDF2 JUMP JUMPDEST SWAP2 POP POP SWAP3 SWAP2 POP POP JUMP JUMPDEST PUSH1 0x0 PUSH1 0x20 DUP3 DUP5 SUB SLT ISZERO PUSH2 0xE9F JUMPI PUSH2 0xE9E PUSH2 0xCF0 JUMP JUMPDEST JUMPDEST PUSH1 0x0 DUP3 ADD CALLDATALOAD PUSH8 0xFFFFFFFFFFFFFFFF DUP2 GT ISZERO PUSH2 0xEBD JUMPI PUSH2 0xEBC PUSH2 0xCF5 JUMP JUMPDEST JUMPDEST PUSH2 0xEC9 DUP5 DUP3 DUP6 ADD PUSH2 0xE5B JUMP JUMPDEST SWAP2 POP POP SWAP3 SWAP2 POP POP JUMP JUMPDEST PUSH2 0xEDB DUP2 PUSH2 0xDBC JUMP JUMPDEST DUP3 MSTORE POP POP JUMP JUMPDEST PUSH1 0x0 PUSH1 0x20 DUP3 ADD SWAP1 POP PUSH2 0xEF6 PUSH1 0x0 DUP4 ADD DUP5 PUSH2 0xED2 JUMP JUMPDEST SWAP3 SWAP2 POP POP JUMP JUMPDEST PUSH1 0x0 DUP2 ISZERO ISZERO SWAP1 POP SWAP2 SWAP1 POP JUMP JUMPDEST PUSH2 0xF11 DUP2 PUSH2 0xEFC JUMP JUMPDEST DUP3 MSTORE POP POP JUMP JUMPDEST PUSH1 0x0 PUSH1 0x20 DUP3 ADD SWAP1 POP PUSH2 0xF2C PUSH1 0x0 DUP4 ADD DUP5 PUSH2 0xF08 JUMP JUMPDEST SWAP3 SWAP2 POP POP JUMP JUMPDEST PUSH1 0x0 PUSH20 0xFFFFFFFFFFFFFFFFFFFFFFFFFFFFFFFFFFFFFFFF DUP3 AND SWAP1 POP SWAP2 SWAP1 POP JUMP JUMPDEST PUSH1 0x0 PUSH2 0xF5D DUP3 PUSH2 0xF32 JUMP JUMPDEST SWAP1 POP SWAP2 SWAP1 POP JUMP JUMPDEST PUSH2 0xF6D DUP2 PUSH2 0xF52 JUMP JUMPDEST DUP2 EQ PUSH2 0xF78 JUMPI PUSH1 0x0 DUP1 REVERT JUMPDEST POP JUMP JUMPDEST PUSH1 0x0 DUP2 CALLDATALOAD SWAP1 POP PUSH2 0xF8A DUP2 PUSH2 0xF64 JUMP JUMPDEST SWAP3 SWAP2 POP POP JUMP JUMPDEST PUSH1 0x0 DUP1 PUSH1 0x40 DUP4 DUP6 SUB SLT ISZERO PUSH2 0xFA7 JUMPI PUSH2 0xFA6 PUSH2 0xCF0 JUMP JUMPDEST JUMPDEST PUSH1 0x0 PUSH2 0xFB5 DUP6 DUP3 DUP7 ADD PUSH2 0xF7B JUMP JUMPDEST SWAP3 POP POP PUSH1 0x20 PUSH2 0xFC6 DUP6 DUP3 DUP7 ADD PUSH2 0xDDD JUMP JUMPDEST SWAP2 POP POP SWAP3 POP SWAP3 SWAP1 POP JUMP JUMPDEST PUSH2 0xFD9 DUP2 PUSH2 0xF52 JUMP JUMPDEST DUP3 MSTORE POP POP JUMP JUMPDEST PUSH1 0x0 PUSH1 0x20 DUP3 ADD SWAP1 POP PUSH2 0xFF4 PUSH1 0x0 DUP4 ADD DUP5 PUSH2 0xFD0 JUMP JUMPDEST SWAP3 SWAP2 POP POP JUMP JUMPDEST PUSH1 0x0 DUP1 PUSH1 0x40 DUP4 DUP6 SUB SLT ISZERO PUSH2 0x1011 JUMPI PUSH2 0x1010 PUSH2 0xCF0 JUMP JUMPDEST JUMPDEST PUSH1 0x0 PUSH2 0x101F DUP6 DUP3 DUP7 ADD PUSH2 0xDDD JUMP JUMPDEST SWAP3 POP POP PUSH1 0x20 PUSH2 0x1030 DUP6 DUP3 DUP7 ADD PUSH2 0xDDD JUMP JUMPDEST SWAP2 POP POP SWAP3 POP SWAP3 SWAP1 POP JUMP JUMPDEST PUSH1 0x0 DUP2 SWAP1 POP SWAP2 SWAP1 POP JUMP JUMPDEST PUSH1 0x0 PUSH2 0x105F PUSH2 0x105A PUSH2 0x1055 DUP5 PUSH2 0xF32 JUMP JUMPDEST PUSH2 0x103A JUMP JUMPDEST PUSH2 0xF32 JUMP JUMPDEST SWAP1 POP SWAP2 SWAP1 POP JUMP JUMPDEST PUSH1 0x0 PUSH2 0x1071 DUP3 PUSH2 0x1044 JUMP JUMPDEST SWAP1 POP SWAP2 SWAP1 POP JUMP JUMPDEST PUSH1 0x0 PUSH2 0x1083 DUP3 PUSH2 0x1066 JUMP JUMPDEST SWAP1 POP SWAP2 SWAP1 POP JUMP JUMPDEST PUSH2 0x1093 DUP2 PUSH2 0x1078 JUMP JUMPDEST DUP3 MSTORE POP POP JUMP JUMPDEST PUSH1 0x0 PUSH1 0x20 DUP3 ADD SWAP1 POP PUSH2 0x10AE PUSH1 0x0 DUP4 ADD DUP5 PUSH2 0x108A JUMP JUMPDEST SWAP3 SWAP2 POP POP JUMP JUMPDEST PUSH1 0x0 DUP3 DUP3 MSTORE PUSH1 0x20 DUP3 ADD SWAP1 POP SWAP3 SWAP2 POP POP JUMP JUMPDEST PUSH32 0x41206C6F74657269612065737461206665636861646100000000000000000000 PUSH1 0x0 DUP3 ADD MSTORE POP JUMP JUMPDEST PUSH1 0x0 PUSH2 0x10FB PUSH1 0x16 DUP4 PUSH2 0x10B4 JUMP JUMPDEST SWAP2 POP PUSH2 0x1106 DUP3 PUSH2 0x10C5 JUMP JUMPDEST PUSH1 0x20 DUP3 ADD SWAP1 POP SWAP2 SWAP1 POP JUMP JUMPDEST PUSH1 0x0 PUSH1 0x20 DUP3 ADD SWAP1 POP DUP2 DUP2 SUB PUSH1 0x0 DUP4 ADD MSTORE PUSH2 0x112A DUP2 PUSH2 0x10EE JUMP JUMPDEST SWAP1 POP SWAP2 SWAP1 POP JUMP JUMPDEST PUSH32 0x566F6365206465766520636F6D707261722070656C6F206D656E6F7320756D20 PUSH1 0x0 DUP3 ADD MSTORE PUSH32 0x6E756D65726F0000000000000000000000000000000000000000000000000000 PUSH1 0x20 DUP3 ADD MSTORE POP JUMP JUMPDEST PUSH1 0x0 PUSH2 0x118D PUSH1 0x26 DUP4 PUSH2 0x10B4 JUMP JUMPDEST SWAP2 POP PUSH2 0x1198 DUP3 PUSH2 0x1131 JUMP JUMPDEST PUSH1 0x40 DUP3 ADD SWAP1 POP SWAP2 SWAP1 POP JUMP JUMPDEST PUSH1 0x0 PUSH1 0x20 DUP3 ADD SWAP1 POP DUP2 DUP2 SUB PUSH1 0x0 DUP4 ADD MSTORE PUSH2 0x11BC DUP2 PUSH2 0x1180 JUMP JUMPDEST SWAP1 POP SWAP2 SWAP1 POP JUMP JUMPDEST PUSH32 0x4E487B7100000000000000000000000000000000000000000000000000000000 PUSH1 0x0 MSTORE PUSH1 0x11 PUSH1 0x4 MSTORE PUSH1 0x24 PUSH1 0x0 REVERT JUMPDEST PUSH1 0x0 PUSH2 0x11FD DUP3 PUSH2 0xDBC JUMP JUMPDEST SWAP2 POP PUSH2 0x1208 DUP4 PUSH2 0xDBC JUMP JUMPDEST SWAP3 POP DUP3 DUP3 MUL PUSH2 0x1216 DUP2 PUSH2 0xDBC JUMP JUMPDEST SWAP2 POP DUP3 DUP3 DIV DUP5 EQ DUP4 ISZERO OR PUSH2 0x122D JUMPI PUSH2 0x122C PUSH2 0x11C3 JUMP JUMPDEST JUMPDEST POP SWAP3 SWAP2 POP POP JUMP JUMPDEST PUSH1 0x0 PUSH1 0x60 DUP3 ADD SWAP1 POP PUSH2 0x1249 PUSH1 0x0 DUP4 ADD DUP7 PUSH2 0xFD0 JUMP JUMPDEST PUSH2 0x1256 PUSH1 0x20 DUP4 ADD DUP6 PUSH2 0xFD0 JUMP JUMPDEST PUSH2 0x1263 PUSH1 0x40 DUP4 ADD DUP5 PUSH2 0xED2 JUMP JUMPDEST SWAP5 SWAP4 POP POP POP POP JUMP JUMPDEST PUSH2 0x1274 DUP2 PUSH2 0xEFC JUMP JUMPDEST DUP2 EQ PUSH2 0x127F JUMPI PUSH1 0x0 DUP1 REVERT JUMPDEST POP JUMP JUMPDEST PUSH1 0x0 DUP2 MLOAD SWAP1 POP PUSH2 0x1291 DUP2 PUSH2 0x126B JUMP JUMPDEST SWAP3 SWAP2 POP POP JUMP JUMPDEST PUSH1 0x0 PUSH1 0x20 DUP3 DUP5 SUB SLT ISZERO PUSH2 0x12AD JUMPI PUSH2 0x12AC PUSH2 0xCF0 JUMP JUMPDEST JUMPDEST PUSH1 0x0 PUSH2 0x12BB DUP5 DUP3 DUP6 ADD PUSH2 0x1282 JUMP JUMPDEST SWAP2 POP POP SWAP3 SWAP2 POP POP JUMP JUMPDEST PUSH32 0x5472616E73666572656E63696120646520746F6B656E732066616C686F750000 PUSH1 0x0 DUP3 ADD MSTORE POP JUMP JUMPDEST PUSH1 0x0 PUSH2 0x12FA PUSH1 0x1E DUP4 PUSH2 0x10B4 JUMP JUMPDEST SWAP2 POP PUSH2 0x1305 DUP3 PUSH2 0x12C4 JUMP JUMPDEST PUSH1 0x20 DUP3 ADD SWAP1 POP SWAP2 SWAP1 POP JUMP JUMPDEST PUSH1 0x0 PUSH1 0x20 DUP3 ADD SWAP1 POP DUP2 DUP2 SUB PUSH1 0x0 DUP4 ADD MSTORE PUSH2 0x1329 DUP2 PUSH2 0x12ED JUMP JUMPDEST SWAP1 POP SWAP2 SWAP1 POP JUMP JUMPDEST PUSH1 0x0 PUSH2 0x133B DUP3 PUSH2 0xDBC JUMP JUMPDEST SWAP2 POP PUSH2 0x1346 DUP4 PUSH2 0xDBC JUMP JUMPDEST SWAP3 POP DUP3 DUP3 ADD SWAP1 POP DUP1 DUP3 GT ISZERO PUSH2 0x135E JUMPI PUSH2 0x135D PUSH2 0x11C3 JUMP JUMPDEST JUMPDEST SWAP3 SWAP2 POP POP JUMP JUMPDEST PUSH32 0x4E487B7100000000000000000000000000000000000000000000000000000000 PUSH1 0x0 MSTORE PUSH1 0x32 PUSH1 0x4 MSTORE PUSH1 0x24 PUSH1 0x0 REVERT JUMPDEST PUSH1 0x0 PUSH2 0x139E DUP3 PUSH2 0xDBC JUMP JUMPDEST SWAP2 POP PUSH32 0xFFFFFFFFFFFFFFFFFFFFFFFFFFFFFFFFFFFFFFFFFFFFFFFFFFFFFFFFFFFFFFFF DUP3 SUB PUSH2 0x13D0 JUMPI PUSH2 0x13CF PUSH2 0x11C3 JUMP JUMPDEST JUMPDEST PUSH1 0x1 DUP3 ADD SWAP1 POP SWAP2 SWAP1 POP JUMP JUMPDEST PUSH1 0x0 DUP2 MLOAD SWAP1 POP SWAP2 SWAP1 POP JUMP JUMPDEST PUSH1 0x0 DUP3 DUP3 MSTORE PUSH1 0x20 DUP3 ADD SWAP1 POP SWAP3 SWAP2 POP POP JUMP JUMPDEST PUSH1 0x0 DUP2 SWAP1 POP PUSH1 0x20 DUP3 ADD SWAP1 POP SWAP2 SWAP1 POP JUMP JUMPDEST PUSH2 0x1410 DUP2 PUSH2 0xDBC JUMP JUMPDEST DUP3 MSTORE POP POP JUMP JUMPDEST PUSH1 0x0 PUSH2 0x1422 DUP4 DUP4 PUSH2 0x1407 JUMP JUMPDEST PUSH1 0x20 DUP4 ADD SWAP1 POP SWAP3 SWAP2 POP POP JUMP JUMPDEST PUSH1 0x0 PUSH1 0x20 DUP3 ADD SWAP1 POP SWAP2 SWAP1 POP JUMP JUMPDEST PUSH1 0x0 PUSH2 0x1446 DUP3 PUSH2 0x13DB JUMP JUMPDEST PUSH2 0x1450 DUP2 DUP6 PUSH2 0x13E6 JUMP JUMPDEST SWAP4 POP PUSH2 0x145B DUP4 PUSH2 0x13F7 JUMP JUMPDEST DUP1 PUSH1 0x0 JUMPDEST DUP4 DUP2 LT ISZERO PUSH2 0x148C JUMPI DUP2 MLOAD PUSH2 0x1473 DUP9 DUP3 PUSH2 0x1416 JUMP JUMPDEST SWAP8 POP PUSH2 0x147E DUP4 PUSH2 0x142E JUMP JUMPDEST SWAP3 POP POP PUSH1 0x1 DUP2 ADD SWAP1 POP PUSH2 0x145F JUMP JUMPDEST POP DUP6 SWAP4 POP POP POP POP SWAP3 SWAP2 POP POP JUMP JUMPDEST PUSH1 0x0 PUSH1 0x20 DUP3 ADD SWAP1 POP DUP2 DUP2 SUB PUSH1 0x0 DUP4 ADD MSTORE PUSH2 0x14B3 DUP2 DUP5 PUSH2 0x143B JUMP JUMPDEST SWAP1 POP SWAP3 SWAP2 POP POP JUMP JUMPDEST PUSH32 0x536F6D656E7465206F20646F6E6F20706F6465206368616D6172206573736120 PUSH1 0x0 DUP3 ADD MSTORE PUSH32 0x66756E63616F0000000000000000000000000000000000000000000000000000 PUSH1 0x20 DUP3 ADD MSTORE POP JUMP JUMPDEST PUSH1 0x0 PUSH2 0x1517 PUSH1 0x26 DUP4 PUSH2 0x10B4 JUMP JUMPDEST SWAP2 POP PUSH2 0x1522 DUP3 PUSH2 0x14BB JUMP JUMPDEST PUSH1 0x40 DUP3 ADD SWAP1 POP SWAP2 SWAP1 POP JUMP JUMPDEST PUSH1 0x0 PUSH1 0x20 DUP3 ADD SWAP1 POP DUP2 DUP2 SUB PUSH1 0x0 DUP4 ADD MSTORE PUSH2 0x1546 DUP2 PUSH2 0x150A JUMP JUMPDEST SWAP1 POP SWAP2 SWAP1 POP JUMP JUMPDEST PUSH32 0x41206C6F7465726961206A612065737461206162657274610000000000000000 PUSH1 0x0 DUP3 ADD MSTORE POP JUMP JUMPDEST PUSH1 0x0 PUSH2 0x1583 PUSH1 0x18 DUP4 PUSH2 0x10B4 JUMP JUMPDEST SWAP2 POP PUSH2 0x158E DUP3 PUSH2 0x154D JUMP JUMPDEST PUSH1 0x20 DUP3 ADD SWAP1 POP SWAP2 SWAP1 POP JUMP JUMPDEST PUSH1 0x0 PUSH1 0x20 DUP3 ADD SWAP1 POP DUP2 DUP2 SUB PUSH1 0x0 DUP4 ADD MSTORE PUSH2 0x15B2 DUP2 PUSH2 0x1576 JUMP JUMPDEST SWAP1 POP SWAP2 SWAP1 POP JUMP JUMPDEST PUSH32 0x41206C6F7465726961206E616F2074656D2066756E646F730000000000000000 PUSH1 0x0 DUP3 ADD MSTORE POP JUMP JUMPDEST PUSH1 0x0 PUSH2 0x15EF PUSH1 0x18 DUP4 PUSH2 0x10B4 JUMP JUMPDEST SWAP2 POP PUSH2 0x15FA DUP3 PUSH2 0x15B9 JUMP JUMPDEST PUSH1 0x20 DUP3 ADD SWAP1 POP SWAP2 SWAP1 POP JUMP JUMPDEST PUSH1 0x0 PUSH1 0x20 DUP3 ADD SWAP1 POP DUP2 DUP2 SUB PUSH1 0x0 DUP4 ADD MSTORE PUSH2 0x161E DUP2 PUSH2 0x15E2 JUMP JUMPDEST SWAP1 POP SWAP2 SWAP1 POP JUMP JUMPDEST PUSH1 0x0 DUP2 SWAP1 POP SWAP2 SWAP1 POP JUMP JUMPDEST PUSH2 0x1640 PUSH2 0x163B DUP3 PUSH2 0xDBC JUMP JUMPDEST PUSH2 0x1625 JUMP JUMPDEST DUP3 MSTORE POP POP JUMP JUMPDEST PUSH1 0x0 PUSH2 0x1652 DUP3 DUP7 PUSH2 0x162F JUMP JUMPDEST PUSH1 0x20 DUP3 ADD SWAP2 POP PUSH2 0x1662 DUP3 DUP6 PUSH2 0x162F JUMP JUMPDEST PUSH1 0x20 DUP3 ADD SWAP2 POP PUSH2 0x1672 DUP3 DUP5 PUSH2 0x162F JUMP JUMPDEST PUSH1 0x20 DUP3 ADD SWAP2 POP DUP2 SWAP1 POP SWAP5 SWAP4 POP POP POP POP JUMP JUMPDEST PUSH32 0x4E487B7100000000000000000000000000000000000000000000000000000000 PUSH1 0x0 MSTORE PUSH1 0x12 PUSH1 0x4 MSTORE PUSH1 0x24 PUSH1 0x0 REVERT JUMPDEST PUSH1 0x0 PUSH2 0x16BD DUP3 PUSH2 0xDBC JUMP JUMPDEST SWAP2 POP PUSH2 0x16C8 DUP4 PUSH2 0xDBC JUMP JUMPDEST SWAP3 POP DUP3 PUSH2 0x16D8 JUMPI PUSH2 0x16D7 PUSH2 0x1683 JUMP JUMPDEST JUMPDEST DUP3 DUP3 MOD SWAP1 POP SWAP3 SWAP2 POP POP JUMP JUMPDEST PUSH1 0x0 PUSH2 0x16EE DUP3 PUSH2 0xDBC JUMP JUMPDEST SWAP2 POP PUSH2 0x16F9 DUP4 PUSH2 0xDBC JUMP JUMPDEST SWAP3 POP DUP3 PUSH2 0x1709 JUMPI PUSH2 0x1708 PUSH2 0x1683 JUMP JUMPDEST JUMPDEST DUP3 DUP3 DIV SWAP1 POP SWAP3 SWAP2 POP POP JUMP JUMPDEST PUSH1 0x0 PUSH1 0x40 DUP3 ADD SWAP1 POP PUSH2 0x1729 PUSH1 0x0 DUP4 ADD DUP6 PUSH2 0xFD0 JUMP JUMPDEST PUSH2 0x1736 PUSH1 0x20 DUP4 ADD DUP5 PUSH2 0xED2 JUMP JUMPDEST SWAP4 SWAP3 POP POP POP JUMP JUMPDEST PUSH1 0x0 PUSH1 0x40 DUP3 ADD SWAP1 POP PUSH2 0x1752 PUSH1 0x0 DUP4 ADD DUP6 PUSH2 0xED2 JUMP JUMPDEST PUSH2 0x175F PUSH1 0x20 DUP4 ADD DUP5 PUSH2 0xED2 JUMP JUMPDEST SWAP4 SWAP3 POP POP POP JUMP JUMPDEST PUSH1 0x0 DUP2 SWAP1 POP SWAP2 SWAP1 POP JUMP JUMPDEST PUSH1 0x0 PUSH2 0x178B PUSH2 0x1786 PUSH2 0x1781 DUP5 PUSH2 0x1766 JUMP JUMPDEST PUSH2 0x103A JUMP JUMPDEST PUSH2 0xDBC JUMP JUMPDEST SWAP1 POP SWAP2 SWAP1 POP JUMP JUMPDEST PUSH2 0x179B DUP2 PUSH2 0x1770 JUMP JUMPDEST DUP3 MSTORE POP POP JUMP JUMPDEST PUSH1 0x0 PUSH1 0x40 DUP3 ADD SWAP1 POP PUSH2 0x17B6 PUSH1 0x0 DUP4 ADD DUP6 PUSH2 0x1792 JUMP JUMPDEST PUSH2 0x17C3 PUSH1 0x20 DUP4 ADD DUP5 PUSH2 0xED2 JUMP JUMPDEST SWAP4 SWAP3 POP POP POP JUMP JUMPDEST PUSH1 0x0 PUSH2 0x17D5 DUP3 PUSH2 0xDBC JUMP JUMPDEST SWAP2 POP PUSH2 0x17E0 DUP4 PUSH2 0xDBC JUMP JUMPDEST SWAP3 POP DUP3 DUP3 SUB SWAP1 POP DUP2 DUP2 GT ISZERO PUSH2 0x17F8 JUMPI PUSH2 0x17F7 PUSH2 0x11C3 JUMP JUMPDEST JUMPDEST SWAP3 SWAP2 POP POP JUMP INVALID LOG2 PUSH5 0x6970667358 0x22 SLT KECCAK256 0xE1 CODECOPY CALLDATALOAD EXTCODECOPY PUSH31 0xD00D848C259B43E433923098ABF2E42248F144494F65ABC64D52864736F6C PUSH4 0x43000812 STOP CALLER "
				},
				"gasEstimates": {
					"creation": {
						"codeDepositCost": "1239200",
						"executionCost": "infinite",
						"totalCost": "infinite"
					},
					"external": {
						"aberta()": "2560",
						"apostadores(uint256,uint256)": "infinite",
						"comprar(uint256[])": "infinite",
						"numeros(address,uint256)": "infinite",
						"owner()": "2533",
						"preco()": "2495",
						"premio()": "2474",
						"reabrir()": "28801",
						"sorteado()": "2473",
						"sortear()": "infinite",
						"token()": "infinite",
						"total()": "2452"
					}
				},
				"methodIdentifiers": {
					"aberta()": "6dc4114f",
					"apostadores(uint256,uint256)": "dfe22b5f",
					"comprar(uint256[])": "2832ffa4",
					"numeros(address,uint256)": "76ffe866",
					"owner()": "8da5cb5b",
					"preco()": "d8787a86",
					"premio()": "50237f72",
					"reabrir()": "6b7bdd0c",
					"sorteado()": "b24733e3",
					"sortear()": "8ade2ac4",
					"token()": "fc0c546a",
					"total()": "2ddbd13a"
				}
			},
			"storageLayout": {
				"storage": [
					{
						"astId": 82,
						"contract": ".deps/npm/@openzeppelin/contracts/token/ERC20/testLoto.sol:Loteria",
						"label": "owner",
						"offset": 0,
						"slot": "0",
						"type": "t_address"
					},
					{
						"astId": 84,
						"contract": ".deps/npm/@openzeppelin/contracts/token/ERC20/testLoto.sol:Loteria",
						"label": "premio",
						"offset": 0,
						"slot": "1",
						"type": "t_uint256"
					},
					{
						"astId": 87,
						"contract": ".deps/npm/@openzeppelin/contracts/token/ERC20/testLoto.sol:Loteria",
						"label": "token",
						"offset": 0,
						"slot": "2",
						"type": "t_contract(IERC20)77"
					},
					{
						"astId": 89,
						"contract": ".deps/npm/@openzeppelin/contracts/token/ERC20/testLoto.sol:Loteria",
						"label": "preco",
						"offset": 0,
						"slot": "3",
						"type": "t_uint256"
					},
					{
						"astId": 91,
						"contract": ".deps/npm/@openzeppelin/contracts/token/ERC20/testLoto.sol:Loteria",
						"label": "total",
						"offset": 0,
						"slot": "4",
						"type": "t_uint256"
					},
					{
						"astId": 93,
						"contract": ".deps/npm/@openzeppelin/contracts/token/ERC20/testLoto.sol:Loteria",
						"label": "sorteado",
						"offset": 0,
						"slot": "5",
						"type": "t_uint256"
					},
					{
						"astId": 95,
						"contract": ".deps/npm/@openzeppelin/contracts/token/ERC20/testLoto.sol:Loteria",
						"label": "aberta",
						"offset": 0,
						"slot": "6",
						"type": "t_bool"
					},
					{
						"astId": 100,
						"contract": ".deps/npm/@openzeppelin/contracts/token/ERC20/testLoto.sol:Loteria",
						"label": "numeros",
						"offset": 0,
						"slot": "7",
						"type": "t_mapping(t_address,t_array(t_uint256)dyn_storage)"
					},
					{
						"astId": 105,
						"contract": ".deps/npm/@openzeppelin/contracts/token/ERC20/testLoto.sol:Loteria",
						"label": "apostadores",
						"offset": 0,
						"slot": "8",
						"type": "t_mapping(t_uint256,t_array(t_address)dyn_storage)"
					}
				],
				"types": {
					"t_address": {
						"encoding": "inplace",
						"label": "address",
						"numberOfBytes": "20"
					},
					"t_array(t_address)dyn_storage": {
						"base": "t_address",
						"encoding": "dynamic_array",
						"label": "address[]",
						"numberOfBytes": "32"
					},
					"t_array(t_uint256)dyn_storage": {
						"base": "t_uint256",
						"encoding": "dynamic_array",
						"label": "uint256[]",
						"numberOfBytes": "32"
					},
					"t_bool": {
						"encoding": "inplace",
						"label": "bool",
						"numberOfBytes": "1"
					},
					"t_contract(IERC20)77": {
						"encoding": "inplace",
						"label": "contract IERC20",
						"numberOfBytes": "20"
					},
					"t_mapping(t_address,t_array(t_uint256)dyn_storage)": {
						"encoding": "mapping",
						"key": "t_address",
						"label": "mapping(address => uint256[])",
						"numberOfBytes": "32",
						"value": "t_array(t_uint256)dyn_storage"
					},
					"t_mapping(t_uint256,t_array(t_address)dyn_storage)": {
						"encoding": "mapping",
						"key": "t_uint256",
						"label": "mapping(uint256 => address[])",
						"numberOfBytes": "32",
						"value": "t_array(t_address)dyn_storage"
					},
					"t_uint256": {
						"encoding": "inplace",
						"label": "uint256",
						"numberOfBytes": "32"
					}
				}
			},
			"userdoc": {
				"kind": "user",
				"methods": {},
				"version": 1
			}
		}
	}
}